{
  "contracts/Scholarship.sol": {
    "ScholarDist": {
      "abi": [
        {
          "inputs": [],
          "stateMutability": "nonpayable",
          "type": "constructor"
        },
        {
          "anonymous": false,
          "inputs": [
            {
              "indexed": true,
              "internalType": "address",
              "name": "student",
              "type": "address"
            },
            {
              "indexed": false,
              "internalType": "uint8",
              "name": "score",
              "type": "uint8"
            }
          ],
          "name": "Applied",
          "type": "event"
        },
        {
          "anonymous": false,
          "inputs": [
            {
              "indexed": true,
              "internalType": "address",
              "name": "student",
              "type": "address"
            },
            {
              "indexed": false,
              "internalType": "uint256",
              "name": "amount",
              "type": "uint256"
            }
          ],
          "name": "Disbursed",
          "type": "event"
        },
        {
          "anonymous": false,
          "inputs": [
            {
              "indexed": false,
              "internalType": "string",
              "name": "name",
              "type": "string"
            },
            {
              "indexed": false,
              "internalType": "uint256",
              "name": "amount",
              "type": "uint256"
            },
            {
              "indexed": false,
              "internalType": "uint8",
              "name": "minScore",
              "type": "uint8"
            },
            {
              "indexed": false,
              "internalType": "uint8",
              "name": "totalSeats",
              "type": "uint8"
            },
            {
              "indexed": false,
              "internalType": "uint8",
              "name": "requiredAttendance",
              "type": "uint8"
            },
            {
              "indexed": false,
              "internalType": "uint8",
              "name": "requiredAcademic",
              "type": "uint8"
            }
          ],
          "name": "ScholarshipCreated",
          "type": "event"
        },
        {
          "inputs": [
            {
              "internalType": "string",
              "name": "_name",
              "type": "string"
            },
            {
              "internalType": "uint256",
              "name": "_amount",
              "type": "uint256"
            },
            {
              "internalType": "uint8",
              "name": "_minScore",
              "type": "uint8"
            },
            {
              "internalType": "uint8",
              "name": "_totalSeats",
              "type": "uint8"
            },
            {
              "internalType": "uint8",
              "name": "_requiredAttendance",
              "type": "uint8"
            },
            {
              "internalType": "uint8",
              "name": "_requiredAcademic",
              "type": "uint8"
            }
          ],
          "name": "addScholarship",
          "outputs": [],
          "stateMutability": "nonpayable",
          "type": "function"
        },
        {
          "inputs": [],
          "name": "admin",
          "outputs": [
            {
              "internalType": "address",
              "name": "",
              "type": "address"
            }
          ],
          "stateMutability": "view",
          "type": "function"
        },
        {
          "inputs": [
            {
              "internalType": "uint256",
              "name": "",
              "type": "uint256"
            }
          ],
          "name": "applications",
          "outputs": [
            {
              "internalType": "address",
              "name": "applicant",
              "type": "address"
            },
            {
              "internalType": "string",
              "name": "studentName",
              "type": "string"
            },
            {
              "internalType": "string",
              "name": "regNumber",
              "type": "string"
            },
            {
              "internalType": "string",
              "name": "college",
              "type": "string"
            },
            {
              "internalType": "string",
              "name": "course",
              "type": "string"
            },
            {
              "internalType": "uint8",
              "name": "attendancePercent",
              "type": "uint8"
            },
            {
              "internalType": "uint8",
              "name": "academicMark",
              "type": "uint8"
            },
            {
              "internalType": "uint8",
              "name": "score",
              "type": "uint8"
            },
            {
              "internalType": "bool",
              "name": "received",
              "type": "bool"
            }
          ],
          "stateMutability": "view",
          "type": "function"
        },
        {
          "inputs": [
            {
              "internalType": "string",
              "name": "_studentName",
              "type": "string"
            },
            {
              "internalType": "string",
              "name": "_regNumber",
              "type": "string"
            },
            {
              "internalType": "string",
              "name": "_college",
              "type": "string"
            },
            {
              "internalType": "string",
              "name": "_course",
              "type": "string"
            },
            {
              "internalType": "uint8",
              "name": "_attendancePercent",
              "type": "uint8"
            },
            {
              "internalType": "uint8",
              "name": "_academicMark",
              "type": "uint8"
            }
          ],
          "name": "applyForScholarship",
          "outputs": [],
          "stateMutability": "nonpayable",
          "type": "function"
        },
        {
          "inputs": [],
          "name": "getApplications",
          "outputs": [
            {
              "components": [
                {
                  "internalType": "address",
                  "name": "applicant",
                  "type": "address"
                },
                {
                  "internalType": "string",
                  "name": "studentName",
                  "type": "string"
                },
                {
                  "internalType": "string",
                  "name": "regNumber",
                  "type": "string"
                },
                {
                  "internalType": "string",
                  "name": "college",
                  "type": "string"
                },
                {
                  "internalType": "string",
                  "name": "course",
                  "type": "string"
                },
                {
                  "internalType": "uint8",
                  "name": "attendancePercent",
                  "type": "uint8"
                },
                {
                  "internalType": "uint8",
                  "name": "academicMark",
                  "type": "uint8"
                },
                {
                  "internalType": "uint8",
                  "name": "score",
                  "type": "uint8"
                },
                {
                  "internalType": "bool",
                  "name": "received",
                  "type": "bool"
                }
              ],
              "internalType": "struct ScholarDist.Application[]",
              "name": "",
              "type": "tuple[]"
            }
          ],
          "stateMutability": "view",
          "type": "function"
        },
        {
          "inputs": [],
          "name": "getSelectedApplicants",
          "outputs": [
            {
              "components": [
                {
                  "internalType": "address",
                  "name": "applicant",
                  "type": "address"
                },
                {
                  "internalType": "string",
                  "name": "studentName",
                  "type": "string"
                },
                {
                  "internalType": "string",
                  "name": "regNumber",
                  "type": "string"
                },
                {
                  "internalType": "string",
                  "name": "college",
                  "type": "string"
                },
                {
                  "internalType": "string",
                  "name": "course",
                  "type": "string"
                },
                {
                  "internalType": "uint8",
                  "name": "attendancePercent",
                  "type": "uint8"
                },
                {
                  "internalType": "uint8",
                  "name": "academicMark",
                  "type": "uint8"
                },
                {
                  "internalType": "uint8",
                  "name": "score",
                  "type": "uint8"
                },
                {
                  "internalType": "bool",
                  "name": "received",
                  "type": "bool"
                }
              ],
              "internalType": "struct ScholarDist.Application[]",
              "name": "",
              "type": "tuple[]"
            }
          ],
          "stateMutability": "view",
          "type": "function"
        },
        {
          "inputs": [
            {
              "internalType": "address",
              "name": "",
              "type": "address"
            }
          ],
          "name": "hasApplied",
          "outputs": [
            {
              "internalType": "bool",
              "name": "",
              "type": "bool"
            }
          ],
          "stateMutability": "view",
          "type": "function"
        },
        {
          "inputs": [],
          "name": "scholarship",
          "outputs": [
            {
              "internalType": "string",
              "name": "name",
              "type": "string"
            },
            {
              "internalType": "uint256",
              "name": "amount",
              "type": "uint256"
            },
            {
              "internalType": "uint8",
              "name": "minScore",
              "type": "uint8"
            },
            {
              "internalType": "uint8",
              "name": "totalSeats",
              "type": "uint8"
            },
            {
              "internalType": "uint8",
              "name": "requiredAttendance",
              "type": "uint8"
            },
            {
              "internalType": "uint8",
              "name": "requiredAcademic",
              "type": "uint8"
            },
            {
              "internalType": "bool",
              "name": "isActive",
              "type": "bool"
            },
            {
              "internalType": "bool",
              "name": "isProcessed",
              "type": "bool"
            }
          ],
          "stateMutability": "view",
          "type": "function"
        },
        {
          "inputs": [],
          "name": "selectTopApplicants",
          "outputs": [],
          "stateMutability": "nonpayable",
          "type": "function"
        },
        {
          "stateMutability": "payable",
          "type": "receive"
        }
      ],
      "evm": {
        "bytecode": {
          "linkReferences": {},
          "object": "60808060405234602757600080546001600160a01b03191633179055611b2f908161002d8239f35b600080fdfe608080604052600436101561001d575b50361561001b57600080fd5b005b60003560e01c90816309413a51146111a55750806339e64d261461105457806343900e7814610fc157806358810c8514610b615780636fb7c14e146106575780637daf5774146102de578063a7539775146101a8578063dfefadff146100bb5763f851a4401461008d573861000f565b346100b65760003660031901126100b6576000546040516001600160a01b039091168152602090f35b600080fd5b346100b65760203660031901126100b6576004356004548110156100b6576100e29061147d565b5080546001600160a01b03166100fa600183016113d9565b9160ff61017961010c600284016113d9565b9261016b61011c600383016113d9565b61015d600561012d600486016113d9565b9401549661014f6040519a8b9a8b5261012060208c01526101208b01906111e5565b9089820360408b01526111e5565b9087820360608901526111e5565b9085820360808701526111e5565b9181811660a0850152818160081c1660c0850152818160101c1660e085015260181c1615156101008301520390f35b346100b65760003660031901126100b65760405160006001546101ca81611362565b80845290600181169081156102ba575060011461025b575b610210836101f2818503826113b8565b60025460ff60035460405194859461010086526101008601906111e5565b9260208501528181166040850152818160081c166060850152818160101c166080850152818160181c1660a0850152818160201c16151560c085015260281c16151560e08301520390f35b600160009081527fb10e2d527612073b26eecdfd717e6a320cf44b4afac2b0732d9fcbe2b7fa0cf6939250905b8082106102a0575090915081016020016101f26101e2565b919260018160209254838588010152019101909291610288565b60ff191660208086019190915291151560051b840190910191506101f290506101e2565b346100b65760c03660031901126100b6576004356001600160401b0381116100b65761030e903690600401611315565b906024356001600160401b0381116100b65761032e903690600401611315565b6044356001600160401b0381116100b65761034d903690600401611315565b906064356001600160401b0381116100b65761036d903690600401611315565b919092610378611342565b95610381611352565b956003549760ff8960201c161561061a5733600052600560205260ff604060002054166105e35760ff16966064881115806105d5575b156105995760ff8960101c1688106105485760ff8091169860181c1688106104f3578787019860ff8a116104dd576040519a6103f28c61139c565b338c52369061040092611ac2565b60208b0152369061041092611ac2565b6040890152369061042092611ac2565b6060870152369061043092611ac2565b608085015260a084015260c083015260ff16908160e082015261010081016000905260045490680100000000000000008210156104c75761047a826001610480940160045561147d565b90611708565b3360005260056020526040600020600160ff198254161790556040519081527f2a0d6d267b6be30f45be710c28b257a95b5728c95f8d76ff8220b4c502a59e9d60203392a2005b634e487b7160e01b600052604160045260246000fd5b634e487b7160e01b600052601160045260246000fd5b60405162461bcd60e51b815260206004820152602760248201527f41636164656d6963206d61726b732062656c6f772072657175697265642074686044820152661c995cda1bdb1960ca1b6064820152608490fd5b60405162461bcd60e51b815260206004820152602360248201527f417474656e64616e63652062656c6f77207265717569726564207468726573686044820152621bdb1960ea1b6064820152608490fd5b60405162461bcd60e51b8152602060048201526014602482015273496e76616c696420696e7075742076616c75657360601b6044820152606490fd5b50606460ff821611156103b7565b60405162461bcd60e51b815260206004820152600f60248201526e105b1c9958591e48185c1c1b1a5959608a1b6044820152606490fd5b60405162461bcd60e51b815260206004820152601560248201527404e6f20616374697665207363686f6c61727368697605c1b6044820152606490fd5b346100b65760c03660031901126100b6576004356001600160401b0381116100b657610687903690600401611315565b6044359160ff831683036100b65760643560ff811681036100b6576106aa611342565b906106b3611352565b946106c960018060a01b0360005416331461157d565b60ff60035460201c16610b1c5760243515610ae25760c860ff821611610aa95760ff821615610a6457606460ff8416111580610a56575b15610a115760405161010081018181106001600160401b038211176104c75760405261072d368787611ac2565b808252602435602083015260ff8316604083015260ff8416606083015260ff8516608083015260ff881660a0830152600160c0830152600060e08301528051906001600160401b0382116104c757610786600154611362565b601f81116109ac575b50602090601f83116001146108f157889560ff809660e07f935eae76d64694973ebc9667f9a70a4f2564736a35e131d459521610604d2d1e9d976107f2888599849f9e9987996000926108e6575b50508160011b916000199060031b1c19161790565b6001555b60208101516002558360408201511684196003541617600355606081015161ff00806003549260081b16169061ff00191617600355608081015162ff0000806003549260101b16169062ff000019161760035560a081015160035463ff00000064ff0000000060c0850151151560201b169260181b169064ffff000000191617176003550151151565ff00000000006003549160281b169065ff00000000001916176003556040519b8c9a60c08c528160c08d01528c8c013760008a8a018c015260243560208b01521660408901521660608701521660808501521660a0830152601f01601f19168101030190a1005b0151905038806107dd565b9060016000527fb10e2d527612073b26eecdfd717e6a320cf44b4afac2b0732d9fcbe2b7fa0cf69160005b601f198516811061099457509560ff809660e07f935eae76d64694973ebc9667f9a70a4f2564736a35e131d459521610604d2d1e9d976001888f9c98849f9e9998879b99889a601f1981161061097b575b505050811b016001556107f6565b015160001960f88460031b161c1916905538808061096d565b9192602060018192868501518155019401920161091c565b60016000527fb10e2d527612073b26eecdfd717e6a320cf44b4afac2b0732d9fcbe2b7fa0cf6601f840160051c81019160208510610a07575b601f0160051c01905b8181106109fb575061078f565b600081556001016109ee565b90915081906109e5565b60405162461bcd60e51b815260206004820152601960248201527f496e76616c69642070657263656e7461676520696e70757473000000000000006044820152606490fd5b50606460ff87161115610700565b60405162461bcd60e51b815260206004820152601760248201527f546f74616c207365617473206d757374206265203e20300000000000000000006044820152606490fd5b60405162461bcd60e51b8152602060048201526011602482015270496e76616c6964206d696e2073636f726560781b6044820152606490fd5b60405162461bcd60e51b81526020600482015260126024820152710416d6f756e74206d757374206265203e20360741b6044820152606490fd5b60405162461bcd60e51b815260206004820152601a60248201527f5363686f6c61727368697020616c7265616479206578697374730000000000006044820152606490fd5b346100b65760003660031901126100b657610b8760018060a01b0360005416331461157d565b60035460ff8160201c1615610f835760281c60ff16610f4a5760045415610f135760005b600454811015610d5057600181018082116104dd575b600454811015610d475760ff6005610bd88361147d565b50015460101c1660ff6005610bec8561147d565b50015460101c1610610c01575b600101610bc1565b610c13610c0d8361147d565b506114ec565b90610c1d8161147d565b50610c278461147d565b939093610d31578382610c489360019603610c4f575b505061047a8361147d565b9050610bf9565b60ff600580610d2a94898060a01b038a8060a01b03865416166bffffffffffffffffffffffff60a01b825416178155610c8c8a86018b8301611626565b610c9c6002860160028301611626565b610cac6003860160038301611626565b610cbc6004860160048301611626565b0192018180825416168219845416178355610cee82825460081c16849061ff0082549160081b169061ff001916179055565b8054835462ff00001916601091821c841690911b62ff0000161783555460181c1663ff000000825491151560181b169063ff0000001916179055565b8580610c3d565b634e487b7160e01b600052600060045260246000fd5b50600101610bab565b6000805b600454811080610eff575b15610ee65760ff6005610d718361147d565b50015460101c1660ff60035416111580610ecb575b610d99575b610d94906114b2565b610d54565b90610da38261147d565b50546002546001600160a01b039091169190478111610e8f57600080808093865af13d15610e8a573d610dd581611aa7565b90610de360405192836113b8565b8152600060203d92013e5b15610e535760ff917f5724630c7039b7451802c963e5285779ee0776995655e2fb2cc6215d909493d96020600254604051908152a26005610e2e8461147d565b5001805463ff000000191663010000001790551660ff81146104dd5760010190610d8b565b60405162461bcd60e51b815260206004820152600f60248201526e151c985b9cd9995c8819985a5b1959608a1b6044820152606490fd5b610dee565b60405162461bcd60e51b8152602060048201526014602482015273496e73756666696369656e742062616c616e636560601b6044820152606490fd5b5060ff6005610ed98361147d565b50015460181c1615610d86565b6003805465ff0000000000191665010000000000179055005b5060ff60035460081c1660ff831610610d5f565b60405162461bcd60e51b815260206004820152600f60248201526e4e6f206170706c69636174696f6e7360881b6044820152606490fd5b60405162461bcd60e51b8152602060048201526011602482015270105b1c9958591e481c1c9bd8d95cdcd959607a1b6044820152606490fd5b60405162461bcd60e51b81526020600482015260166024820152755363686f6c617273686970206e6f742061637469766560501b6044820152606490fd5b346100b65760003660031901126100b657600454610fde816114c1565b90610fec60405192836113b8565b8082526020820160046000527f8a35acfbc15ff81a39ae7d344fd709f28e8600b4aa8c65c6b64bfe7fe36bd19b6000915b83831061103657604051806110328782611226565b0390f35b60066020600192611046856114ec565b81520192019201919061101d565b346100b65760003660031901126100b657600080600454905b818110611170575061107e826114c1565b9161108c60405193846113b8565b80835261109b601f19916114c1565b0160005b81811061111a5750506000805b8281106110c157604051806110328682611226565b8060ff60056110d160019461147d565b50015460181c166110e3575b016110ac565b6111146110ef8261147d565b50936111036110fd826114b2565b956114ec565b61110d82896114d8565b52866114d8565b506110dd565b6020906040516111298161139c565b600081526060838201526060604082015260608082015260606080820152600060a0820152600060c0820152600060e082015260006101008201528282870101520161109f565b60ff600561117d8361147d565b50015460181c16611191575b60010161106d565b9161119d6001916114b2565b929050611189565b346100b65760203660031901126100b6576004356001600160a01b03811691908290036100b6576020916000526005825260ff6040600020541615158152f35b919082519283825260005b848110611211575050826000602080949584010152601f8019910116010190565b806020809284010151828286010152016111f0565b602081016020825282518091526040820191602060408360051b8301019401926000915b83831061125957505050505090565b9091929394602080600192603f19858203018652885190848060a01b038251168152610100806112d76112c56112b36112a1888801516101208a8901526101208801906111e5565b604088015187820360408901526111e5565b606087015186820360608801526111e5565b608086015185820360808701526111e5565b9360ff60a08201511660a085015260ff60c08201511660c085015260ff60e08201511660e0850152015115159101529701930193019193929061124a565b9181601f840112156100b6578235916001600160401b0383116100b657602083818601950101116100b657565b6084359060ff821682036100b657565b60a4359060ff821682036100b657565b90600182811c92168015611392575b602083101461137c57565b634e487b7160e01b600052602260045260246000fd5b91607f1691611371565b61012081019081106001600160401b038211176104c757604052565b90601f801991011681019081106001600160401b038211176104c757604052565b90604051918260008254926113ed84611362565b808452936001811690811561145b5750600114611414575b50611412925003836113b8565b565b90506000929192526020600020906000915b81831061143f5750509060206114129282010138611405565b6020919350806001915483858901015201910190918492611426565b90506020925061141294915060ff191682840152151560051b82010138611405565b60045481101561149c5760046000526006602060002091020190600090565b634e487b7160e01b600052603260045260246000fd5b60001981146104dd5760010190565b6001600160401b0381116104c75760051b60200190565b805182101561149c5760209160051b010190565b906040516114f98161139c565b61010060ff6005839560018060a01b03815416855261151a600182016113d9565b602086015261152b600282016113d9565b604086015261153c600382016113d9565b606086015261154d600482016113d9565b6080860152015481811660a0850152818160081c1660c0850152818160101c1660e085015260181c161515910152565b1561158457565b60405162461bcd60e51b815260206004820152602260248201527f4f6e6c792061646d696e2063616e20706572666f726d2074686973206163746960448201526137b760f11b6064820152608490fd5b601f82116115e157505050565b6000526020600020906020601f840160051c8301931061161c575b601f0160051c01905b818110611610575050565b60008155600101611605565b90915081906115fc565b9190918281146117035761163a8354611362565b6001600160401b0381116104c75761165c816116568454611362565b846115d4565b600093601f821160011461169d5761168e92939482916000926116925750508160011b916000199060031b1c19161790565b9055565b0154905038806107dd565b845260208085208386529085209094601f198316815b8181106116eb575095836001959697106116d2575b505050811b019055565b015460001960f88460031b161c191690553880806116c8565b9192600180602092868b0154815501940192016116b3565b509050565b90610d3157815181546001600160a01b0319166001600160a01b03919091161781556020820151805160018301916001600160401b0382116104c757611758826117528554611362565b856115d4565b602090601f8311600114611a40576117889291600091836108e65750508160011b916000199060031b1c19161790565b90555b6002810160408301518051906001600160401b0382116104c7576117b3826117528554611362565b602090601f83116001146119d9576117e39291600091836108e65750508160011b916000199060031b1c19161790565b90555b6003810160608301518051906001600160401b0382116104c75761180e826117528554611362565b602090601f83116001146119725761183e9291600091836108e65750508160011b916000199060031b1c19161790565b90555b6004810160808301518051906001600160401b0382116104c757611869826117528554611362565b602090601f831160011461190057926118a583600594611412989794610100976000926108e65750508160011b916000199060031b1c19161790565b90555b60a08401519101805460c085015160e0860151949095015160109490941b62ff00001661ff0060089690961b9590951660ff90931663ffffffff1990911617919091179290921790151560181b63ff00000016179055565b90601f1983169184600052816000209260005b81811061195a57509361141297969361010096936001938360059810611941575b505050811b0190556118a8565b015160001960f88460031b161c19169055388080611934565b92936020600181928786015181550195019301611913565b90601f1983169184600052816000209260005b8181106119c157509084600195949392106119a8575b505050811b019055611841565b015160001960f88460031b161c1916905538808061199b565b92936020600181928786015181550195019301611985565b90601f1983169184600052816000209260005b818110611a285750908460019594939210611a0f575b505050811b0190556117e6565b015160001960f88460031b161c19169055388080611a02565b929360206001819287860151815501950193016119ec565b90601f1983169184600052816000209260005b818110611a8f5750908460019594939210611a76575b505050811b01905561178b565b015160001960f88460031b161c19169055388080611a69565b92936020600181928786015181550195019301611a53565b6001600160401b0381116104c757601f01601f191660200190565b929192611ace82611aa7565b91611adc60405193846113b8565b8294818452818301116100b657828160209384600096013701015256fea264697066735822122025ac8e4c821f43a0734f48de5a54a5e8131e45f9917ab5358909deb48827c05264736f6c634300081c0033",
          "opcodes": "PUSH1 0x80 DUP1 PUSH1 0x40 MSTORE CALLVALUE PUSH1 0x27 JUMPI PUSH1 0x0 DUP1 SLOAD PUSH1 0x1 PUSH1 0x1 PUSH1 0xA0 SHL SUB NOT AND CALLER OR SWAP1 SSTORE PUSH2 0x1B2F SWAP1 DUP2 PUSH2 0x2D DUP3 CODECOPY RETURN JUMPDEST PUSH1 0x0 DUP1 REVERT INVALID PUSH1 0x80 DUP1 PUSH1 0x40 MSTORE PUSH1 0x4 CALLDATASIZE LT ISZERO PUSH2 0x1D JUMPI JUMPDEST POP CALLDATASIZE ISZERO PUSH2 0x1B JUMPI PUSH1 0x0 DUP1 REVERT JUMPDEST STOP JUMPDEST PUSH1 0x0 CALLDATALOAD PUSH1 0xE0 SHR SWAP1 DUP2 PUSH4 0x9413A51 EQ PUSH2 0x11A5 JUMPI POP DUP1 PUSH4 0x39E64D26 EQ PUSH2 0x1054 JUMPI DUP1 PUSH4 0x43900E78 EQ PUSH2 0xFC1 JUMPI DUP1 PUSH4 0x58810C85 EQ PUSH2 0xB61 JUMPI DUP1 PUSH4 0x6FB7C14E EQ PUSH2 0x657 JUMPI DUP1 PUSH4 0x7DAF5774 EQ PUSH2 0x2DE JUMPI DUP1 PUSH4 0xA7539775 EQ PUSH2 0x1A8 JUMPI DUP1 PUSH4 0xDFEFADFF EQ PUSH2 0xBB JUMPI PUSH4 0xF851A440 EQ PUSH2 0x8D JUMPI CODESIZE PUSH2 0xF JUMP JUMPDEST CALLVALUE PUSH2 0xB6 JUMPI PUSH1 0x0 CALLDATASIZE PUSH1 0x3 NOT ADD SLT PUSH2 0xB6 JUMPI PUSH1 0x0 SLOAD PUSH1 0x40 MLOAD PUSH1 0x1 PUSH1 0x1 PUSH1 0xA0 SHL SUB SWAP1 SWAP2 AND DUP2 MSTORE PUSH1 0x20 SWAP1 RETURN JUMPDEST PUSH1 0x0 DUP1 REVERT JUMPDEST CALLVALUE PUSH2 0xB6 JUMPI PUSH1 0x20 CALLDATASIZE PUSH1 0x3 NOT ADD SLT PUSH2 0xB6 JUMPI PUSH1 0x4 CALLDATALOAD PUSH1 0x4 SLOAD DUP2 LT ISZERO PUSH2 0xB6 JUMPI PUSH2 0xE2 SWAP1 PUSH2 0x147D JUMP JUMPDEST POP DUP1 SLOAD PUSH1 0x1 PUSH1 0x1 PUSH1 0xA0 SHL SUB AND PUSH2 0xFA PUSH1 0x1 DUP4 ADD PUSH2 0x13D9 JUMP JUMPDEST SWAP2 PUSH1 0xFF PUSH2 0x179 PUSH2 0x10C PUSH1 0x2 DUP5 ADD PUSH2 0x13D9 JUMP JUMPDEST SWAP3 PUSH2 0x16B PUSH2 0x11C PUSH1 0x3 DUP4 ADD PUSH2 0x13D9 JUMP JUMPDEST PUSH2 0x15D PUSH1 0x5 PUSH2 0x12D PUSH1 0x4 DUP7 ADD PUSH2 0x13D9 JUMP JUMPDEST SWAP5 ADD SLOAD SWAP7 PUSH2 0x14F PUSH1 0x40 MLOAD SWAP11 DUP12 SWAP11 DUP12 MSTORE PUSH2 0x120 PUSH1 0x20 DUP13 ADD MSTORE PUSH2 0x120 DUP12 ADD SWAP1 PUSH2 0x11E5 JUMP JUMPDEST SWAP1 DUP10 DUP3 SUB PUSH1 0x40 DUP12 ADD MSTORE PUSH2 0x11E5 JUMP JUMPDEST SWAP1 DUP8 DUP3 SUB PUSH1 0x60 DUP10 ADD MSTORE PUSH2 0x11E5 JUMP JUMPDEST SWAP1 DUP6 DUP3 SUB PUSH1 0x80 DUP8 ADD MSTORE PUSH2 0x11E5 JUMP JUMPDEST SWAP2 DUP2 DUP2 AND PUSH1 0xA0 DUP6 ADD MSTORE DUP2 DUP2 PUSH1 0x8 SHR AND PUSH1 0xC0 DUP6 ADD MSTORE DUP2 DUP2 PUSH1 0x10 SHR AND PUSH1 0xE0 DUP6 ADD MSTORE PUSH1 0x18 SHR AND ISZERO ISZERO PUSH2 0x100 DUP4 ADD MSTORE SUB SWAP1 RETURN JUMPDEST CALLVALUE PUSH2 0xB6 JUMPI PUSH1 0x0 CALLDATASIZE PUSH1 0x3 NOT ADD SLT PUSH2 0xB6 JUMPI PUSH1 0x40 MLOAD PUSH1 0x0 PUSH1 0x1 SLOAD PUSH2 0x1CA DUP2 PUSH2 0x1362 JUMP JUMPDEST DUP1 DUP5 MSTORE SWAP1 PUSH1 0x1 DUP2 AND SWAP1 DUP2 ISZERO PUSH2 0x2BA JUMPI POP PUSH1 0x1 EQ PUSH2 0x25B JUMPI JUMPDEST PUSH2 0x210 DUP4 PUSH2 0x1F2 DUP2 DUP6 SUB DUP3 PUSH2 0x13B8 JUMP JUMPDEST PUSH1 0x2 SLOAD PUSH1 0xFF PUSH1 0x3 SLOAD PUSH1 0x40 MLOAD SWAP5 DUP6 SWAP5 PUSH2 0x100 DUP7 MSTORE PUSH2 0x100 DUP7 ADD SWAP1 PUSH2 0x11E5 JUMP JUMPDEST SWAP3 PUSH1 0x20 DUP6 ADD MSTORE DUP2 DUP2 AND PUSH1 0x40 DUP6 ADD MSTORE DUP2 DUP2 PUSH1 0x8 SHR AND PUSH1 0x60 DUP6 ADD MSTORE DUP2 DUP2 PUSH1 0x10 SHR AND PUSH1 0x80 DUP6 ADD MSTORE DUP2 DUP2 PUSH1 0x18 SHR AND PUSH1 0xA0 DUP6 ADD MSTORE DUP2 DUP2 PUSH1 0x20 SHR AND ISZERO ISZERO PUSH1 0xC0 DUP6 ADD MSTORE PUSH1 0x28 SHR AND ISZERO ISZERO PUSH1 0xE0 DUP4 ADD MSTORE SUB SWAP1 RETURN JUMPDEST PUSH1 0x1 PUSH1 0x0 SWAP1 DUP2 MSTORE PUSH32 0xB10E2D527612073B26EECDFD717E6A320CF44B4AFAC2B0732D9FCBE2B7FA0CF6 SWAP4 SWAP3 POP SWAP1 JUMPDEST DUP1 DUP3 LT PUSH2 0x2A0 JUMPI POP SWAP1 SWAP2 POP DUP2 ADD PUSH1 0x20 ADD PUSH2 0x1F2 PUSH2 0x1E2 JUMP JUMPDEST SWAP2 SWAP3 PUSH1 0x1 DUP2 PUSH1 0x20 SWAP3 SLOAD DUP4 DUP6 DUP9 ADD ADD MSTORE ADD SWAP2 ADD SWAP1 SWAP3 SWAP2 PUSH2 0x288 JUMP JUMPDEST PUSH1 0xFF NOT AND PUSH1 0x20 DUP1 DUP7 ADD SWAP2 SWAP1 SWAP2 MSTORE SWAP2 ISZERO ISZERO PUSH1 0x5 SHL DUP5 ADD SWAP1 SWAP2 ADD SWAP2 POP PUSH2 0x1F2 SWAP1 POP PUSH2 0x1E2 JUMP JUMPDEST CALLVALUE PUSH2 0xB6 JUMPI PUSH1 0xC0 CALLDATASIZE PUSH1 0x3 NOT ADD SLT PUSH2 0xB6 JUMPI PUSH1 0x4 CALLDATALOAD PUSH1 0x1 PUSH1 0x1 PUSH1 0x40 SHL SUB DUP2 GT PUSH2 0xB6 JUMPI PUSH2 0x30E SWAP1 CALLDATASIZE SWAP1 PUSH1 0x4 ADD PUSH2 0x1315 JUMP JUMPDEST SWAP1 PUSH1 0x24 CALLDATALOAD PUSH1 0x1 PUSH1 0x1 PUSH1 0x40 SHL SUB DUP2 GT PUSH2 0xB6 JUMPI PUSH2 0x32E SWAP1 CALLDATASIZE SWAP1 PUSH1 0x4 ADD PUSH2 0x1315 JUMP JUMPDEST PUSH1 0x44 CALLDATALOAD PUSH1 0x1 PUSH1 0x1 PUSH1 0x40 SHL SUB DUP2 GT PUSH2 0xB6 JUMPI PUSH2 0x34D SWAP1 CALLDATASIZE SWAP1 PUSH1 0x4 ADD PUSH2 0x1315 JUMP JUMPDEST SWAP1 PUSH1 0x64 CALLDATALOAD PUSH1 0x1 PUSH1 0x1 PUSH1 0x40 SHL SUB DUP2 GT PUSH2 0xB6 JUMPI PUSH2 0x36D SWAP1 CALLDATASIZE SWAP1 PUSH1 0x4 ADD PUSH2 0x1315 JUMP JUMPDEST SWAP2 SWAP1 SWAP3 PUSH2 0x378 PUSH2 0x1342 JUMP JUMPDEST SWAP6 PUSH2 0x381 PUSH2 0x1352 JUMP JUMPDEST SWAP6 PUSH1 0x3 SLOAD SWAP8 PUSH1 0xFF DUP10 PUSH1 0x20 SHR AND ISZERO PUSH2 0x61A JUMPI CALLER PUSH1 0x0 MSTORE PUSH1 0x5 PUSH1 0x20 MSTORE PUSH1 0xFF PUSH1 0x40 PUSH1 0x0 KECCAK256 SLOAD AND PUSH2 0x5E3 JUMPI PUSH1 0xFF AND SWAP7 PUSH1 0x64 DUP9 GT ISZERO DUP1 PUSH2 0x5D5 JUMPI JUMPDEST ISZERO PUSH2 0x599 JUMPI PUSH1 0xFF DUP10 PUSH1 0x10 SHR AND DUP9 LT PUSH2 0x548 JUMPI PUSH1 0xFF DUP1 SWAP2 AND SWAP9 PUSH1 0x18 SHR AND DUP9 LT PUSH2 0x4F3 JUMPI DUP8 DUP8 ADD SWAP9 PUSH1 0xFF DUP11 GT PUSH2 0x4DD JUMPI PUSH1 0x40 MLOAD SWAP11 PUSH2 0x3F2 DUP13 PUSH2 0x139C JUMP JUMPDEST CALLER DUP13 MSTORE CALLDATASIZE SWAP1 PUSH2 0x400 SWAP3 PUSH2 0x1AC2 JUMP JUMPDEST PUSH1 0x20 DUP12 ADD MSTORE CALLDATASIZE SWAP1 PUSH2 0x410 SWAP3 PUSH2 0x1AC2 JUMP JUMPDEST PUSH1 0x40 DUP10 ADD MSTORE CALLDATASIZE SWAP1 PUSH2 0x420 SWAP3 PUSH2 0x1AC2 JUMP JUMPDEST PUSH1 0x60 DUP8 ADD MSTORE CALLDATASIZE SWAP1 PUSH2 0x430 SWAP3 PUSH2 0x1AC2 JUMP JUMPDEST PUSH1 0x80 DUP6 ADD MSTORE PUSH1 0xA0 DUP5 ADD MSTORE PUSH1 0xC0 DUP4 ADD MSTORE PUSH1 0xFF AND SWAP1 DUP2 PUSH1 0xE0 DUP3 ADD MSTORE PUSH2 0x100 DUP2 ADD PUSH1 0x0 SWAP1 MSTORE PUSH1 0x4 SLOAD SWAP1 PUSH9 0x10000000000000000 DUP3 LT ISZERO PUSH2 0x4C7 JUMPI PUSH2 0x47A DUP3 PUSH1 0x1 PUSH2 0x480 SWAP5 ADD PUSH1 0x4 SSTORE PUSH2 0x147D JUMP JUMPDEST SWAP1 PUSH2 0x1708 JUMP JUMPDEST CALLER PUSH1 0x0 MSTORE PUSH1 0x5 PUSH1 0x20 MSTORE PUSH1 0x40 PUSH1 0x0 KECCAK256 PUSH1 0x1 PUSH1 0xFF NOT DUP3 SLOAD AND OR SWAP1 SSTORE PUSH1 0x40 MLOAD SWAP1 DUP2 MSTORE PUSH32 0x2A0D6D267B6BE30F45BE710C28B257A95B5728C95F8D76FF8220B4C502A59E9D PUSH1 0x20 CALLER SWAP3 LOG2 STOP JUMPDEST PUSH4 0x4E487B71 PUSH1 0xE0 SHL PUSH1 0x0 MSTORE PUSH1 0x41 PUSH1 0x4 MSTORE PUSH1 0x24 PUSH1 0x0 REVERT JUMPDEST PUSH4 0x4E487B71 PUSH1 0xE0 SHL PUSH1 0x0 MSTORE PUSH1 0x11 PUSH1 0x4 MSTORE PUSH1 0x24 PUSH1 0x0 REVERT JUMPDEST PUSH1 0x40 MLOAD PUSH3 0x461BCD PUSH1 0xE5 SHL DUP2 MSTORE PUSH1 0x20 PUSH1 0x4 DUP3 ADD MSTORE PUSH1 0x27 PUSH1 0x24 DUP3 ADD MSTORE PUSH32 0x41636164656D6963206D61726B732062656C6F77207265717569726564207468 PUSH1 0x44 DUP3 ADD MSTORE PUSH7 0x1C995CDA1BDB19 PUSH1 0xCA SHL PUSH1 0x64 DUP3 ADD MSTORE PUSH1 0x84 SWAP1 REVERT JUMPDEST PUSH1 0x40 MLOAD PUSH3 0x461BCD PUSH1 0xE5 SHL DUP2 MSTORE PUSH1 0x20 PUSH1 0x4 DUP3 ADD MSTORE PUSH1 0x23 PUSH1 0x24 DUP3 ADD MSTORE PUSH32 0x417474656E64616E63652062656C6F7720726571756972656420746872657368 PUSH1 0x44 DUP3 ADD MSTORE PUSH3 0x1BDB19 PUSH1 0xEA SHL PUSH1 0x64 DUP3 ADD MSTORE PUSH1 0x84 SWAP1 REVERT JUMPDEST PUSH1 0x40 MLOAD PUSH3 0x461BCD PUSH1 0xE5 SHL DUP2 MSTORE PUSH1 0x20 PUSH1 0x4 DUP3 ADD MSTORE PUSH1 0x14 PUSH1 0x24 DUP3 ADD MSTORE PUSH20 0x496E76616C696420696E7075742076616C756573 PUSH1 0x60 SHL PUSH1 0x44 DUP3 ADD MSTORE PUSH1 0x64 SWAP1 REVERT JUMPDEST POP PUSH1 0x64 PUSH1 0xFF DUP3 AND GT ISZERO PUSH2 0x3B7 JUMP JUMPDEST PUSH1 0x40 MLOAD PUSH3 0x461BCD PUSH1 0xE5 SHL DUP2 MSTORE PUSH1 0x20 PUSH1 0x4 DUP3 ADD MSTORE PUSH1 0xF PUSH1 0x24 DUP3 ADD MSTORE PUSH15 0x105B1C9958591E48185C1C1B1A5959 PUSH1 0x8A SHL PUSH1 0x44 DUP3 ADD MSTORE PUSH1 0x64 SWAP1 REVERT JUMPDEST PUSH1 0x40 MLOAD PUSH3 0x461BCD PUSH1 0xE5 SHL DUP2 MSTORE PUSH1 0x20 PUSH1 0x4 DUP3 ADD MSTORE PUSH1 0x15 PUSH1 0x24 DUP3 ADD MSTORE PUSH21 0x4E6F20616374697665207363686F6C61727368697 PUSH1 0x5C SHL PUSH1 0x44 DUP3 ADD MSTORE PUSH1 0x64 SWAP1 REVERT JUMPDEST CALLVALUE PUSH2 0xB6 JUMPI PUSH1 0xC0 CALLDATASIZE PUSH1 0x3 NOT ADD SLT PUSH2 0xB6 JUMPI PUSH1 0x4 CALLDATALOAD PUSH1 0x1 PUSH1 0x1 PUSH1 0x40 SHL SUB DUP2 GT PUSH2 0xB6 JUMPI PUSH2 0x687 SWAP1 CALLDATASIZE SWAP1 PUSH1 0x4 ADD PUSH2 0x1315 JUMP JUMPDEST PUSH1 0x44 CALLDATALOAD SWAP2 PUSH1 0xFF DUP4 AND DUP4 SUB PUSH2 0xB6 JUMPI PUSH1 0x64 CALLDATALOAD PUSH1 0xFF DUP2 AND DUP2 SUB PUSH2 0xB6 JUMPI PUSH2 0x6AA PUSH2 0x1342 JUMP JUMPDEST SWAP1 PUSH2 0x6B3 PUSH2 0x1352 JUMP JUMPDEST SWAP5 PUSH2 0x6C9 PUSH1 0x1 DUP1 PUSH1 0xA0 SHL SUB PUSH1 0x0 SLOAD AND CALLER EQ PUSH2 0x157D JUMP JUMPDEST PUSH1 0xFF PUSH1 0x3 SLOAD PUSH1 0x20 SHR AND PUSH2 0xB1C JUMPI PUSH1 0x24 CALLDATALOAD ISZERO PUSH2 0xAE2 JUMPI PUSH1 0xC8 PUSH1 0xFF DUP3 AND GT PUSH2 0xAA9 JUMPI PUSH1 0xFF DUP3 AND ISZERO PUSH2 0xA64 JUMPI PUSH1 0x64 PUSH1 0xFF DUP5 AND GT ISZERO DUP1 PUSH2 0xA56 JUMPI JUMPDEST ISZERO PUSH2 0xA11 JUMPI PUSH1 0x40 MLOAD PUSH2 0x100 DUP2 ADD DUP2 DUP2 LT PUSH1 0x1 PUSH1 0x1 PUSH1 0x40 SHL SUB DUP3 GT OR PUSH2 0x4C7 JUMPI PUSH1 0x40 MSTORE PUSH2 0x72D CALLDATASIZE DUP8 DUP8 PUSH2 0x1AC2 JUMP JUMPDEST DUP1 DUP3 MSTORE PUSH1 0x24 CALLDATALOAD PUSH1 0x20 DUP4 ADD MSTORE PUSH1 0xFF DUP4 AND PUSH1 0x40 DUP4 ADD MSTORE PUSH1 0xFF DUP5 AND PUSH1 0x60 DUP4 ADD MSTORE PUSH1 0xFF DUP6 AND PUSH1 0x80 DUP4 ADD MSTORE PUSH1 0xFF DUP9 AND PUSH1 0xA0 DUP4 ADD MSTORE PUSH1 0x1 PUSH1 0xC0 DUP4 ADD MSTORE PUSH1 0x0 PUSH1 0xE0 DUP4 ADD MSTORE DUP1 MLOAD SWAP1 PUSH1 0x1 PUSH1 0x1 PUSH1 0x40 SHL SUB DUP3 GT PUSH2 0x4C7 JUMPI PUSH2 0x786 PUSH1 0x1 SLOAD PUSH2 0x1362 JUMP JUMPDEST PUSH1 0x1F DUP2 GT PUSH2 0x9AC JUMPI JUMPDEST POP PUSH1 0x20 SWAP1 PUSH1 0x1F DUP4 GT PUSH1 0x1 EQ PUSH2 0x8F1 JUMPI DUP9 SWAP6 PUSH1 0xFF DUP1 SWAP7 PUSH1 0xE0 PUSH32 0x935EAE76D64694973EBC9667F9A70A4F2564736A35E131D459521610604D2D1E SWAP14 SWAP8 PUSH2 0x7F2 DUP9 DUP6 SWAP10 DUP5 SWAP16 SWAP15 SWAP10 DUP8 SWAP10 PUSH1 0x0 SWAP3 PUSH2 0x8E6 JUMPI JUMPDEST POP POP DUP2 PUSH1 0x1 SHL SWAP2 PUSH1 0x0 NOT SWAP1 PUSH1 0x3 SHL SHR NOT AND OR SWAP1 JUMP JUMPDEST PUSH1 0x1 SSTORE JUMPDEST PUSH1 0x20 DUP2 ADD MLOAD PUSH1 0x2 SSTORE DUP4 PUSH1 0x40 DUP3 ADD MLOAD AND DUP5 NOT PUSH1 0x3 SLOAD AND OR PUSH1 0x3 SSTORE PUSH1 0x60 DUP2 ADD MLOAD PUSH2 0xFF00 DUP1 PUSH1 0x3 SLOAD SWAP3 PUSH1 0x8 SHL AND AND SWAP1 PUSH2 0xFF00 NOT AND OR PUSH1 0x3 SSTORE PUSH1 0x80 DUP2 ADD MLOAD PUSH3 0xFF0000 DUP1 PUSH1 0x3 SLOAD SWAP3 PUSH1 0x10 SHL AND AND SWAP1 PUSH3 0xFF0000 NOT AND OR PUSH1 0x3 SSTORE PUSH1 0xA0 DUP2 ADD MLOAD PUSH1 0x3 SLOAD PUSH4 0xFF000000 PUSH5 0xFF00000000 PUSH1 0xC0 DUP6 ADD MLOAD ISZERO ISZERO PUSH1 0x20 SHL AND SWAP3 PUSH1 0x18 SHL AND SWAP1 PUSH5 0xFFFF000000 NOT AND OR OR PUSH1 0x3 SSTORE ADD MLOAD ISZERO ISZERO PUSH6 0xFF0000000000 PUSH1 0x3 SLOAD SWAP2 PUSH1 0x28 SHL AND SWAP1 PUSH6 0xFF0000000000 NOT AND OR PUSH1 0x3 SSTORE PUSH1 0x40 MLOAD SWAP12 DUP13 SWAP11 PUSH1 0xC0 DUP13 MSTORE DUP2 PUSH1 0xC0 DUP14 ADD MSTORE DUP13 DUP13 ADD CALLDATACOPY PUSH1 0x0 DUP11 DUP11 ADD DUP13 ADD MSTORE PUSH1 0x24 CALLDATALOAD PUSH1 0x20 DUP12 ADD MSTORE AND PUSH1 0x40 DUP10 ADD MSTORE AND PUSH1 0x60 DUP8 ADD MSTORE AND PUSH1 0x80 DUP6 ADD MSTORE AND PUSH1 0xA0 DUP4 ADD MSTORE PUSH1 0x1F ADD PUSH1 0x1F NOT AND DUP2 ADD SUB ADD SWAP1 LOG1 STOP JUMPDEST ADD MLOAD SWAP1 POP CODESIZE DUP1 PUSH2 0x7DD JUMP JUMPDEST SWAP1 PUSH1 0x1 PUSH1 0x0 MSTORE PUSH32 0xB10E2D527612073B26EECDFD717E6A320CF44B4AFAC2B0732D9FCBE2B7FA0CF6 SWAP2 PUSH1 0x0 JUMPDEST PUSH1 0x1F NOT DUP6 AND DUP2 LT PUSH2 0x994 JUMPI POP SWAP6 PUSH1 0xFF DUP1 SWAP7 PUSH1 0xE0 PUSH32 0x935EAE76D64694973EBC9667F9A70A4F2564736A35E131D459521610604D2D1E SWAP14 SWAP8 PUSH1 0x1 DUP9 DUP16 SWAP13 SWAP9 DUP5 SWAP16 SWAP15 SWAP10 SWAP9 DUP8 SWAP12 SWAP10 DUP9 SWAP11 PUSH1 0x1F NOT DUP2 AND LT PUSH2 0x97B JUMPI JUMPDEST POP POP POP DUP2 SHL ADD PUSH1 0x1 SSTORE PUSH2 0x7F6 JUMP JUMPDEST ADD MLOAD PUSH1 0x0 NOT PUSH1 0xF8 DUP5 PUSH1 0x3 SHL AND SHR NOT AND SWAP1 SSTORE CODESIZE DUP1 DUP1 PUSH2 0x96D JUMP JUMPDEST SWAP2 SWAP3 PUSH1 0x20 PUSH1 0x1 DUP2 SWAP3 DUP7 DUP6 ADD MLOAD DUP2 SSTORE ADD SWAP5 ADD SWAP3 ADD PUSH2 0x91C JUMP JUMPDEST PUSH1 0x1 PUSH1 0x0 MSTORE PUSH32 0xB10E2D527612073B26EECDFD717E6A320CF44B4AFAC2B0732D9FCBE2B7FA0CF6 PUSH1 0x1F DUP5 ADD PUSH1 0x5 SHR DUP2 ADD SWAP2 PUSH1 0x20 DUP6 LT PUSH2 0xA07 JUMPI JUMPDEST PUSH1 0x1F ADD PUSH1 0x5 SHR ADD SWAP1 JUMPDEST DUP2 DUP2 LT PUSH2 0x9FB JUMPI POP PUSH2 0x78F JUMP JUMPDEST PUSH1 0x0 DUP2 SSTORE PUSH1 0x1 ADD PUSH2 0x9EE JUMP JUMPDEST SWAP1 SWAP2 POP DUP2 SWAP1 PUSH2 0x9E5 JUMP JUMPDEST PUSH1 0x40 MLOAD PUSH3 0x461BCD PUSH1 0xE5 SHL DUP2 MSTORE PUSH1 0x20 PUSH1 0x4 DUP3 ADD MSTORE PUSH1 0x19 PUSH1 0x24 DUP3 ADD MSTORE PUSH32 0x496E76616C69642070657263656E7461676520696E7075747300000000000000 PUSH1 0x44 DUP3 ADD MSTORE PUSH1 0x64 SWAP1 REVERT JUMPDEST POP PUSH1 0x64 PUSH1 0xFF DUP8 AND GT ISZERO PUSH2 0x700 JUMP JUMPDEST PUSH1 0x40 MLOAD PUSH3 0x461BCD PUSH1 0xE5 SHL DUP2 MSTORE PUSH1 0x20 PUSH1 0x4 DUP3 ADD MSTORE PUSH1 0x17 PUSH1 0x24 DUP3 ADD MSTORE PUSH32 0x546F74616C207365617473206D757374206265203E2030000000000000000000 PUSH1 0x44 DUP3 ADD MSTORE PUSH1 0x64 SWAP1 REVERT JUMPDEST PUSH1 0x40 MLOAD PUSH3 0x461BCD PUSH1 0xE5 SHL DUP2 MSTORE PUSH1 0x20 PUSH1 0x4 DUP3 ADD MSTORE PUSH1 0x11 PUSH1 0x24 DUP3 ADD MSTORE PUSH17 0x496E76616C6964206D696E2073636F7265 PUSH1 0x78 SHL PUSH1 0x44 DUP3 ADD MSTORE PUSH1 0x64 SWAP1 REVERT JUMPDEST PUSH1 0x40 MLOAD PUSH3 0x461BCD PUSH1 0xE5 SHL DUP2 MSTORE PUSH1 0x20 PUSH1 0x4 DUP3 ADD MSTORE PUSH1 0x12 PUSH1 0x24 DUP3 ADD MSTORE PUSH18 0x416D6F756E74206D757374206265203E203 PUSH1 0x74 SHL PUSH1 0x44 DUP3 ADD MSTORE PUSH1 0x64 SWAP1 REVERT JUMPDEST PUSH1 0x40 MLOAD PUSH3 0x461BCD PUSH1 0xE5 SHL DUP2 MSTORE PUSH1 0x20 PUSH1 0x4 DUP3 ADD MSTORE PUSH1 0x1A PUSH1 0x24 DUP3 ADD MSTORE PUSH32 0x5363686F6C61727368697020616C726561647920657869737473000000000000 PUSH1 0x44 DUP3 ADD MSTORE PUSH1 0x64 SWAP1 REVERT JUMPDEST CALLVALUE PUSH2 0xB6 JUMPI PUSH1 0x0 CALLDATASIZE PUSH1 0x3 NOT ADD SLT PUSH2 0xB6 JUMPI PUSH2 0xB87 PUSH1 0x1 DUP1 PUSH1 0xA0 SHL SUB PUSH1 0x0 SLOAD AND CALLER EQ PUSH2 0x157D JUMP JUMPDEST PUSH1 0x3 SLOAD PUSH1 0xFF DUP2 PUSH1 0x20 SHR AND ISZERO PUSH2 0xF83 JUMPI PUSH1 0x28 SHR PUSH1 0xFF AND PUSH2 0xF4A JUMPI PUSH1 0x4 SLOAD ISZERO PUSH2 0xF13 JUMPI PUSH1 0x0 JUMPDEST PUSH1 0x4 SLOAD DUP2 LT ISZERO PUSH2 0xD50 JUMPI PUSH1 0x1 DUP2 ADD DUP1 DUP3 GT PUSH2 0x4DD JUMPI JUMPDEST PUSH1 0x4 SLOAD DUP2 LT ISZERO PUSH2 0xD47 JUMPI PUSH1 0xFF PUSH1 0x5 PUSH2 0xBD8 DUP4 PUSH2 0x147D JUMP JUMPDEST POP ADD SLOAD PUSH1 0x10 SHR AND PUSH1 0xFF PUSH1 0x5 PUSH2 0xBEC DUP6 PUSH2 0x147D JUMP JUMPDEST POP ADD SLOAD PUSH1 0x10 SHR AND LT PUSH2 0xC01 JUMPI JUMPDEST PUSH1 0x1 ADD PUSH2 0xBC1 JUMP JUMPDEST PUSH2 0xC13 PUSH2 0xC0D DUP4 PUSH2 0x147D JUMP JUMPDEST POP PUSH2 0x14EC JUMP JUMPDEST SWAP1 PUSH2 0xC1D DUP2 PUSH2 0x147D JUMP JUMPDEST POP PUSH2 0xC27 DUP5 PUSH2 0x147D JUMP JUMPDEST SWAP4 SWAP1 SWAP4 PUSH2 0xD31 JUMPI DUP4 DUP3 PUSH2 0xC48 SWAP4 PUSH1 0x1 SWAP7 SUB PUSH2 0xC4F JUMPI JUMPDEST POP POP PUSH2 0x47A DUP4 PUSH2 0x147D JUMP JUMPDEST SWAP1 POP PUSH2 0xBF9 JUMP JUMPDEST PUSH1 0xFF PUSH1 0x5 DUP1 PUSH2 0xD2A SWAP5 DUP10 DUP1 PUSH1 0xA0 SHL SUB DUP11 DUP1 PUSH1 0xA0 SHL SUB DUP7 SLOAD AND AND PUSH12 0xFFFFFFFFFFFFFFFFFFFFFFFF PUSH1 0xA0 SHL DUP3 SLOAD AND OR DUP2 SSTORE PUSH2 0xC8C DUP11 DUP7 ADD DUP12 DUP4 ADD PUSH2 0x1626 JUMP JUMPDEST PUSH2 0xC9C PUSH1 0x2 DUP7 ADD PUSH1 0x2 DUP4 ADD PUSH2 0x1626 JUMP JUMPDEST PUSH2 0xCAC PUSH1 0x3 DUP7 ADD PUSH1 0x3 DUP4 ADD PUSH2 0x1626 JUMP JUMPDEST PUSH2 0xCBC PUSH1 0x4 DUP7 ADD PUSH1 0x4 DUP4 ADD PUSH2 0x1626 JUMP JUMPDEST ADD SWAP3 ADD DUP2 DUP1 DUP3 SLOAD AND AND DUP3 NOT DUP5 SLOAD AND OR DUP4 SSTORE PUSH2 0xCEE DUP3 DUP3 SLOAD PUSH1 0x8 SHR AND DUP5 SWAP1 PUSH2 0xFF00 DUP3 SLOAD SWAP2 PUSH1 0x8 SHL AND SWAP1 PUSH2 0xFF00 NOT AND OR SWAP1 SSTORE JUMP JUMPDEST DUP1 SLOAD DUP4 SLOAD PUSH3 0xFF0000 NOT AND PUSH1 0x10 SWAP2 DUP3 SHR DUP5 AND SWAP1 SWAP2 SHL PUSH3 0xFF0000 AND OR DUP4 SSTORE SLOAD PUSH1 0x18 SHR AND PUSH4 0xFF000000 DUP3 SLOAD SWAP2 ISZERO ISZERO PUSH1 0x18 SHL AND SWAP1 PUSH4 0xFF000000 NOT AND OR SWAP1 SSTORE JUMP JUMPDEST DUP6 DUP1 PUSH2 0xC3D JUMP JUMPDEST PUSH4 0x4E487B71 PUSH1 0xE0 SHL PUSH1 0x0 MSTORE PUSH1 0x0 PUSH1 0x4 MSTORE PUSH1 0x24 PUSH1 0x0 REVERT JUMPDEST POP PUSH1 0x1 ADD PUSH2 0xBAB JUMP JUMPDEST PUSH1 0x0 DUP1 JUMPDEST PUSH1 0x4 SLOAD DUP2 LT DUP1 PUSH2 0xEFF JUMPI JUMPDEST ISZERO PUSH2 0xEE6 JUMPI PUSH1 0xFF PUSH1 0x5 PUSH2 0xD71 DUP4 PUSH2 0x147D JUMP JUMPDEST POP ADD SLOAD PUSH1 0x10 SHR AND PUSH1 0xFF PUSH1 0x3 SLOAD AND GT ISZERO DUP1 PUSH2 0xECB JUMPI JUMPDEST PUSH2 0xD99 JUMPI JUMPDEST PUSH2 0xD94 SWAP1 PUSH2 0x14B2 JUMP JUMPDEST PUSH2 0xD54 JUMP JUMPDEST SWAP1 PUSH2 0xDA3 DUP3 PUSH2 0x147D JUMP JUMPDEST POP SLOAD PUSH1 0x2 SLOAD PUSH1 0x1 PUSH1 0x1 PUSH1 0xA0 SHL SUB SWAP1 SWAP2 AND SWAP2 SWAP1 SELFBALANCE DUP2 GT PUSH2 0xE8F JUMPI PUSH1 0x0 DUP1 DUP1 DUP1 SWAP4 DUP7 GAS CALL RETURNDATASIZE ISZERO PUSH2 0xE8A JUMPI RETURNDATASIZE PUSH2 0xDD5 DUP2 PUSH2 0x1AA7 JUMP JUMPDEST SWAP1 PUSH2 0xDE3 PUSH1 0x40 MLOAD SWAP3 DUP4 PUSH2 0x13B8 JUMP JUMPDEST DUP2 MSTORE PUSH1 0x0 PUSH1 0x20 RETURNDATASIZE SWAP3 ADD RETURNDATACOPY JUMPDEST ISZERO PUSH2 0xE53 JUMPI PUSH1 0xFF SWAP2 PUSH32 0x5724630C7039B7451802C963E5285779EE0776995655E2FB2CC6215D909493D9 PUSH1 0x20 PUSH1 0x2 SLOAD PUSH1 0x40 MLOAD SWAP1 DUP2 MSTORE LOG2 PUSH1 0x5 PUSH2 0xE2E DUP5 PUSH2 0x147D JUMP JUMPDEST POP ADD DUP1 SLOAD PUSH4 0xFF000000 NOT AND PUSH4 0x1000000 OR SWAP1 SSTORE AND PUSH1 0xFF DUP2 EQ PUSH2 0x4DD JUMPI PUSH1 0x1 ADD SWAP1 PUSH2 0xD8B JUMP JUMPDEST PUSH1 0x40 MLOAD PUSH3 0x461BCD PUSH1 0xE5 SHL DUP2 MSTORE PUSH1 0x20 PUSH1 0x4 DUP3 ADD MSTORE PUSH1 0xF PUSH1 0x24 DUP3 ADD MSTORE PUSH15 0x151C985B9CD9995C8819985A5B1959 PUSH1 0x8A SHL PUSH1 0x44 DUP3 ADD MSTORE PUSH1 0x64 SWAP1 REVERT JUMPDEST PUSH2 0xDEE JUMP JUMPDEST PUSH1 0x40 MLOAD PUSH3 0x461BCD PUSH1 0xE5 SHL DUP2 MSTORE PUSH1 0x20 PUSH1 0x4 DUP3 ADD MSTORE PUSH1 0x14 PUSH1 0x24 DUP3 ADD MSTORE PUSH20 0x496E73756666696369656E742062616C616E6365 PUSH1 0x60 SHL PUSH1 0x44 DUP3 ADD MSTORE PUSH1 0x64 SWAP1 REVERT JUMPDEST POP PUSH1 0xFF PUSH1 0x5 PUSH2 0xED9 DUP4 PUSH2 0x147D JUMP JUMPDEST POP ADD SLOAD PUSH1 0x18 SHR AND ISZERO PUSH2 0xD86 JUMP JUMPDEST PUSH1 0x3 DUP1 SLOAD PUSH6 0xFF0000000000 NOT AND PUSH6 0x10000000000 OR SWAP1 SSTORE STOP JUMPDEST POP PUSH1 0xFF PUSH1 0x3 SLOAD PUSH1 0x8 SHR AND PUSH1 0xFF DUP4 AND LT PUSH2 0xD5F JUMP JUMPDEST PUSH1 0x40 MLOAD PUSH3 0x461BCD PUSH1 0xE5 SHL DUP2 MSTORE PUSH1 0x20 PUSH1 0x4 DUP3 ADD MSTORE PUSH1 0xF PUSH1 0x24 DUP3 ADD MSTORE PUSH15 0x4E6F206170706C69636174696F6E73 PUSH1 0x88 SHL PUSH1 0x44 DUP3 ADD MSTORE PUSH1 0x64 SWAP1 REVERT JUMPDEST PUSH1 0x40 MLOAD PUSH3 0x461BCD PUSH1 0xE5 SHL DUP2 MSTORE PUSH1 0x20 PUSH1 0x4 DUP3 ADD MSTORE PUSH1 0x11 PUSH1 0x24 DUP3 ADD MSTORE PUSH17 0x105B1C9958591E481C1C9BD8D95CDCD959 PUSH1 0x7A SHL PUSH1 0x44 DUP3 ADD MSTORE PUSH1 0x64 SWAP1 REVERT JUMPDEST PUSH1 0x40 MLOAD PUSH3 0x461BCD PUSH1 0xE5 SHL DUP2 MSTORE PUSH1 0x20 PUSH1 0x4 DUP3 ADD MSTORE PUSH1 0x16 PUSH1 0x24 DUP3 ADD MSTORE PUSH22 0x5363686F6C617273686970206E6F7420616374697665 PUSH1 0x50 SHL PUSH1 0x44 DUP3 ADD MSTORE PUSH1 0x64 SWAP1 REVERT JUMPDEST CALLVALUE PUSH2 0xB6 JUMPI PUSH1 0x0 CALLDATASIZE PUSH1 0x3 NOT ADD SLT PUSH2 0xB6 JUMPI PUSH1 0x4 SLOAD PUSH2 0xFDE DUP2 PUSH2 0x14C1 JUMP JUMPDEST SWAP1 PUSH2 0xFEC PUSH1 0x40 MLOAD SWAP3 DUP4 PUSH2 0x13B8 JUMP JUMPDEST DUP1 DUP3 MSTORE PUSH1 0x20 DUP3 ADD PUSH1 0x4 PUSH1 0x0 MSTORE PUSH32 0x8A35ACFBC15FF81A39AE7D344FD709F28E8600B4AA8C65C6B64BFE7FE36BD19B PUSH1 0x0 SWAP2 JUMPDEST DUP4 DUP4 LT PUSH2 0x1036 JUMPI PUSH1 0x40 MLOAD DUP1 PUSH2 0x1032 DUP8 DUP3 PUSH2 0x1226 JUMP JUMPDEST SUB SWAP1 RETURN JUMPDEST PUSH1 0x6 PUSH1 0x20 PUSH1 0x1 SWAP3 PUSH2 0x1046 DUP6 PUSH2 0x14EC JUMP JUMPDEST DUP2 MSTORE ADD SWAP3 ADD SWAP3 ADD SWAP2 SWAP1 PUSH2 0x101D JUMP JUMPDEST CALLVALUE PUSH2 0xB6 JUMPI PUSH1 0x0 CALLDATASIZE PUSH1 0x3 NOT ADD SLT PUSH2 0xB6 JUMPI PUSH1 0x0 DUP1 PUSH1 0x4 SLOAD SWAP1 JUMPDEST DUP2 DUP2 LT PUSH2 0x1170 JUMPI POP PUSH2 0x107E DUP3 PUSH2 0x14C1 JUMP JUMPDEST SWAP2 PUSH2 0x108C PUSH1 0x40 MLOAD SWAP4 DUP5 PUSH2 0x13B8 JUMP JUMPDEST DUP1 DUP4 MSTORE PUSH2 0x109B PUSH1 0x1F NOT SWAP2 PUSH2 0x14C1 JUMP JUMPDEST ADD PUSH1 0x0 JUMPDEST DUP2 DUP2 LT PUSH2 0x111A JUMPI POP POP PUSH1 0x0 DUP1 JUMPDEST DUP3 DUP2 LT PUSH2 0x10C1 JUMPI PUSH1 0x40 MLOAD DUP1 PUSH2 0x1032 DUP7 DUP3 PUSH2 0x1226 JUMP JUMPDEST DUP1 PUSH1 0xFF PUSH1 0x5 PUSH2 0x10D1 PUSH1 0x1 SWAP5 PUSH2 0x147D JUMP JUMPDEST POP ADD SLOAD PUSH1 0x18 SHR AND PUSH2 0x10E3 JUMPI JUMPDEST ADD PUSH2 0x10AC JUMP JUMPDEST PUSH2 0x1114 PUSH2 0x10EF DUP3 PUSH2 0x147D JUMP JUMPDEST POP SWAP4 PUSH2 0x1103 PUSH2 0x10FD DUP3 PUSH2 0x14B2 JUMP JUMPDEST SWAP6 PUSH2 0x14EC JUMP JUMPDEST PUSH2 0x110D DUP3 DUP10 PUSH2 0x14D8 JUMP JUMPDEST MSTORE DUP7 PUSH2 0x14D8 JUMP JUMPDEST POP PUSH2 0x10DD JUMP JUMPDEST PUSH1 0x20 SWAP1 PUSH1 0x40 MLOAD PUSH2 0x1129 DUP2 PUSH2 0x139C JUMP JUMPDEST PUSH1 0x0 DUP2 MSTORE PUSH1 0x60 DUP4 DUP3 ADD MSTORE PUSH1 0x60 PUSH1 0x40 DUP3 ADD MSTORE PUSH1 0x60 DUP1 DUP3 ADD MSTORE PUSH1 0x60 PUSH1 0x80 DUP3 ADD MSTORE PUSH1 0x0 PUSH1 0xA0 DUP3 ADD MSTORE PUSH1 0x0 PUSH1 0xC0 DUP3 ADD MSTORE PUSH1 0x0 PUSH1 0xE0 DUP3 ADD MSTORE PUSH1 0x0 PUSH2 0x100 DUP3 ADD MSTORE DUP3 DUP3 DUP8 ADD ADD MSTORE ADD PUSH2 0x109F JUMP JUMPDEST PUSH1 0xFF PUSH1 0x5 PUSH2 0x117D DUP4 PUSH2 0x147D JUMP JUMPDEST POP ADD SLOAD PUSH1 0x18 SHR AND PUSH2 0x1191 JUMPI JUMPDEST PUSH1 0x1 ADD PUSH2 0x106D JUMP JUMPDEST SWAP2 PUSH2 0x119D PUSH1 0x1 SWAP2 PUSH2 0x14B2 JUMP JUMPDEST SWAP3 SWAP1 POP PUSH2 0x1189 JUMP JUMPDEST CALLVALUE PUSH2 0xB6 JUMPI PUSH1 0x20 CALLDATASIZE PUSH1 0x3 NOT ADD SLT PUSH2 0xB6 JUMPI PUSH1 0x4 CALLDATALOAD PUSH1 0x1 PUSH1 0x1 PUSH1 0xA0 SHL SUB DUP2 AND SWAP2 SWAP1 DUP3 SWAP1 SUB PUSH2 0xB6 JUMPI PUSH1 0x20 SWAP2 PUSH1 0x0 MSTORE PUSH1 0x5 DUP3 MSTORE PUSH1 0xFF PUSH1 0x40 PUSH1 0x0 KECCAK256 SLOAD AND ISZERO ISZERO DUP2 MSTORE RETURN JUMPDEST SWAP2 SWAP1 DUP3 MLOAD SWAP3 DUP4 DUP3 MSTORE PUSH1 0x0 JUMPDEST DUP5 DUP2 LT PUSH2 0x1211 JUMPI POP POP DUP3 PUSH1 0x0 PUSH1 0x20 DUP1 SWAP5 SWAP6 DUP5 ADD ADD MSTORE PUSH1 0x1F DUP1 NOT SWAP2 ADD AND ADD ADD SWAP1 JUMP JUMPDEST DUP1 PUSH1 0x20 DUP1 SWAP3 DUP5 ADD ADD MLOAD DUP3 DUP3 DUP7 ADD ADD MSTORE ADD PUSH2 0x11F0 JUMP JUMPDEST PUSH1 0x20 DUP2 ADD PUSH1 0x20 DUP3 MSTORE DUP3 MLOAD DUP1 SWAP2 MSTORE PUSH1 0x40 DUP3 ADD SWAP2 PUSH1 0x20 PUSH1 0x40 DUP4 PUSH1 0x5 SHL DUP4 ADD ADD SWAP5 ADD SWAP3 PUSH1 0x0 SWAP2 JUMPDEST DUP4 DUP4 LT PUSH2 0x1259 JUMPI POP POP POP POP POP SWAP1 JUMP JUMPDEST SWAP1 SWAP2 SWAP3 SWAP4 SWAP5 PUSH1 0x20 DUP1 PUSH1 0x1 SWAP3 PUSH1 0x3F NOT DUP6 DUP3 SUB ADD DUP7 MSTORE DUP9 MLOAD SWAP1 DUP5 DUP1 PUSH1 0xA0 SHL SUB DUP3 MLOAD AND DUP2 MSTORE PUSH2 0x100 DUP1 PUSH2 0x12D7 PUSH2 0x12C5 PUSH2 0x12B3 PUSH2 0x12A1 DUP9 DUP9 ADD MLOAD PUSH2 0x120 DUP11 DUP10 ADD MSTORE PUSH2 0x120 DUP9 ADD SWAP1 PUSH2 0x11E5 JUMP JUMPDEST PUSH1 0x40 DUP9 ADD MLOAD DUP8 DUP3 SUB PUSH1 0x40 DUP10 ADD MSTORE PUSH2 0x11E5 JUMP JUMPDEST PUSH1 0x60 DUP8 ADD MLOAD DUP7 DUP3 SUB PUSH1 0x60 DUP9 ADD MSTORE PUSH2 0x11E5 JUMP JUMPDEST PUSH1 0x80 DUP7 ADD MLOAD DUP6 DUP3 SUB PUSH1 0x80 DUP8 ADD MSTORE PUSH2 0x11E5 JUMP JUMPDEST SWAP4 PUSH1 0xFF PUSH1 0xA0 DUP3 ADD MLOAD AND PUSH1 0xA0 DUP6 ADD MSTORE PUSH1 0xFF PUSH1 0xC0 DUP3 ADD MLOAD AND PUSH1 0xC0 DUP6 ADD MSTORE PUSH1 0xFF PUSH1 0xE0 DUP3 ADD MLOAD AND PUSH1 0xE0 DUP6 ADD MSTORE ADD MLOAD ISZERO ISZERO SWAP2 ADD MSTORE SWAP8 ADD SWAP4 ADD SWAP4 ADD SWAP2 SWAP4 SWAP3 SWAP1 PUSH2 0x124A JUMP JUMPDEST SWAP2 DUP2 PUSH1 0x1F DUP5 ADD SLT ISZERO PUSH2 0xB6 JUMPI DUP3 CALLDATALOAD SWAP2 PUSH1 0x1 PUSH1 0x1 PUSH1 0x40 SHL SUB DUP4 GT PUSH2 0xB6 JUMPI PUSH1 0x20 DUP4 DUP2 DUP7 ADD SWAP6 ADD ADD GT PUSH2 0xB6 JUMPI JUMP JUMPDEST PUSH1 0x84 CALLDATALOAD SWAP1 PUSH1 0xFF DUP3 AND DUP3 SUB PUSH2 0xB6 JUMPI JUMP JUMPDEST PUSH1 0xA4 CALLDATALOAD SWAP1 PUSH1 0xFF DUP3 AND DUP3 SUB PUSH2 0xB6 JUMPI JUMP JUMPDEST SWAP1 PUSH1 0x1 DUP3 DUP2 SHR SWAP3 AND DUP1 ISZERO PUSH2 0x1392 JUMPI JUMPDEST PUSH1 0x20 DUP4 LT EQ PUSH2 0x137C JUMPI JUMP JUMPDEST PUSH4 0x4E487B71 PUSH1 0xE0 SHL PUSH1 0x0 MSTORE PUSH1 0x22 PUSH1 0x4 MSTORE PUSH1 0x24 PUSH1 0x0 REVERT JUMPDEST SWAP2 PUSH1 0x7F AND SWAP2 PUSH2 0x1371 JUMP JUMPDEST PUSH2 0x120 DUP2 ADD SWAP1 DUP2 LT PUSH1 0x1 PUSH1 0x1 PUSH1 0x40 SHL SUB DUP3 GT OR PUSH2 0x4C7 JUMPI PUSH1 0x40 MSTORE JUMP JUMPDEST SWAP1 PUSH1 0x1F DUP1 NOT SWAP2 ADD AND DUP2 ADD SWAP1 DUP2 LT PUSH1 0x1 PUSH1 0x1 PUSH1 0x40 SHL SUB DUP3 GT OR PUSH2 0x4C7 JUMPI PUSH1 0x40 MSTORE JUMP JUMPDEST SWAP1 PUSH1 0x40 MLOAD SWAP2 DUP3 PUSH1 0x0 DUP3 SLOAD SWAP3 PUSH2 0x13ED DUP5 PUSH2 0x1362 JUMP JUMPDEST DUP1 DUP5 MSTORE SWAP4 PUSH1 0x1 DUP2 AND SWAP1 DUP2 ISZERO PUSH2 0x145B JUMPI POP PUSH1 0x1 EQ PUSH2 0x1414 JUMPI JUMPDEST POP PUSH2 0x1412 SWAP3 POP SUB DUP4 PUSH2 0x13B8 JUMP JUMPDEST JUMP JUMPDEST SWAP1 POP PUSH1 0x0 SWAP3 SWAP2 SWAP3 MSTORE PUSH1 0x20 PUSH1 0x0 KECCAK256 SWAP1 PUSH1 0x0 SWAP2 JUMPDEST DUP2 DUP4 LT PUSH2 0x143F JUMPI POP POP SWAP1 PUSH1 0x20 PUSH2 0x1412 SWAP3 DUP3 ADD ADD CODESIZE PUSH2 0x1405 JUMP JUMPDEST PUSH1 0x20 SWAP2 SWAP4 POP DUP1 PUSH1 0x1 SWAP2 SLOAD DUP4 DUP6 DUP10 ADD ADD MSTORE ADD SWAP2 ADD SWAP1 SWAP2 DUP5 SWAP3 PUSH2 0x1426 JUMP JUMPDEST SWAP1 POP PUSH1 0x20 SWAP3 POP PUSH2 0x1412 SWAP5 SWAP2 POP PUSH1 0xFF NOT AND DUP3 DUP5 ADD MSTORE ISZERO ISZERO PUSH1 0x5 SHL DUP3 ADD ADD CODESIZE PUSH2 0x1405 JUMP JUMPDEST PUSH1 0x4 SLOAD DUP2 LT ISZERO PUSH2 0x149C JUMPI PUSH1 0x4 PUSH1 0x0 MSTORE PUSH1 0x6 PUSH1 0x20 PUSH1 0x0 KECCAK256 SWAP2 MUL ADD SWAP1 PUSH1 0x0 SWAP1 JUMP JUMPDEST PUSH4 0x4E487B71 PUSH1 0xE0 SHL PUSH1 0x0 MSTORE PUSH1 0x32 PUSH1 0x4 MSTORE PUSH1 0x24 PUSH1 0x0 REVERT JUMPDEST PUSH1 0x0 NOT DUP2 EQ PUSH2 0x4DD JUMPI PUSH1 0x1 ADD SWAP1 JUMP JUMPDEST PUSH1 0x1 PUSH1 0x1 PUSH1 0x40 SHL SUB DUP2 GT PUSH2 0x4C7 JUMPI PUSH1 0x5 SHL PUSH1 0x20 ADD SWAP1 JUMP JUMPDEST DUP1 MLOAD DUP3 LT ISZERO PUSH2 0x149C JUMPI PUSH1 0x20 SWAP2 PUSH1 0x5 SHL ADD ADD SWAP1 JUMP JUMPDEST SWAP1 PUSH1 0x40 MLOAD PUSH2 0x14F9 DUP2 PUSH2 0x139C JUMP JUMPDEST PUSH2 0x100 PUSH1 0xFF PUSH1 0x5 DUP4 SWAP6 PUSH1 0x1 DUP1 PUSH1 0xA0 SHL SUB DUP2 SLOAD AND DUP6 MSTORE PUSH2 0x151A PUSH1 0x1 DUP3 ADD PUSH2 0x13D9 JUMP JUMPDEST PUSH1 0x20 DUP7 ADD MSTORE PUSH2 0x152B PUSH1 0x2 DUP3 ADD PUSH2 0x13D9 JUMP JUMPDEST PUSH1 0x40 DUP7 ADD MSTORE PUSH2 0x153C PUSH1 0x3 DUP3 ADD PUSH2 0x13D9 JUMP JUMPDEST PUSH1 0x60 DUP7 ADD MSTORE PUSH2 0x154D PUSH1 0x4 DUP3 ADD PUSH2 0x13D9 JUMP JUMPDEST PUSH1 0x80 DUP7 ADD MSTORE ADD SLOAD DUP2 DUP2 AND PUSH1 0xA0 DUP6 ADD MSTORE DUP2 DUP2 PUSH1 0x8 SHR AND PUSH1 0xC0 DUP6 ADD MSTORE DUP2 DUP2 PUSH1 0x10 SHR AND PUSH1 0xE0 DUP6 ADD MSTORE PUSH1 0x18 SHR AND ISZERO ISZERO SWAP2 ADD MSTORE JUMP JUMPDEST ISZERO PUSH2 0x1584 JUMPI JUMP JUMPDEST PUSH1 0x40 MLOAD PUSH3 0x461BCD PUSH1 0xE5 SHL DUP2 MSTORE PUSH1 0x20 PUSH1 0x4 DUP3 ADD MSTORE PUSH1 0x22 PUSH1 0x24 DUP3 ADD MSTORE PUSH32 0x4F6E6C792061646D696E2063616E20706572666F726D20746869732061637469 PUSH1 0x44 DUP3 ADD MSTORE PUSH2 0x37B7 PUSH1 0xF1 SHL PUSH1 0x64 DUP3 ADD MSTORE PUSH1 0x84 SWAP1 REVERT JUMPDEST PUSH1 0x1F DUP3 GT PUSH2 0x15E1 JUMPI POP POP POP JUMP JUMPDEST PUSH1 0x0 MSTORE PUSH1 0x20 PUSH1 0x0 KECCAK256 SWAP1 PUSH1 0x20 PUSH1 0x1F DUP5 ADD PUSH1 0x5 SHR DUP4 ADD SWAP4 LT PUSH2 0x161C JUMPI JUMPDEST PUSH1 0x1F ADD PUSH1 0x5 SHR ADD SWAP1 JUMPDEST DUP2 DUP2 LT PUSH2 0x1610 JUMPI POP POP JUMP JUMPDEST PUSH1 0x0 DUP2 SSTORE PUSH1 0x1 ADD PUSH2 0x1605 JUMP JUMPDEST SWAP1 SWAP2 POP DUP2 SWAP1 PUSH2 0x15FC JUMP JUMPDEST SWAP2 SWAP1 SWAP2 DUP3 DUP2 EQ PUSH2 0x1703 JUMPI PUSH2 0x163A DUP4 SLOAD PUSH2 0x1362 JUMP JUMPDEST PUSH1 0x1 PUSH1 0x1 PUSH1 0x40 SHL SUB DUP2 GT PUSH2 0x4C7 JUMPI PUSH2 0x165C DUP2 PUSH2 0x1656 DUP5 SLOAD PUSH2 0x1362 JUMP JUMPDEST DUP5 PUSH2 0x15D4 JUMP JUMPDEST PUSH1 0x0 SWAP4 PUSH1 0x1F DUP3 GT PUSH1 0x1 EQ PUSH2 0x169D JUMPI PUSH2 0x168E SWAP3 SWAP4 SWAP5 DUP3 SWAP2 PUSH1 0x0 SWAP3 PUSH2 0x1692 JUMPI POP POP DUP2 PUSH1 0x1 SHL SWAP2 PUSH1 0x0 NOT SWAP1 PUSH1 0x3 SHL SHR NOT AND OR SWAP1 JUMP JUMPDEST SWAP1 SSTORE JUMP JUMPDEST ADD SLOAD SWAP1 POP CODESIZE DUP1 PUSH2 0x7DD JUMP JUMPDEST DUP5 MSTORE PUSH1 0x20 DUP1 DUP6 KECCAK256 DUP4 DUP7 MSTORE SWAP1 DUP6 KECCAK256 SWAP1 SWAP5 PUSH1 0x1F NOT DUP4 AND DUP2 JUMPDEST DUP2 DUP2 LT PUSH2 0x16EB JUMPI POP SWAP6 DUP4 PUSH1 0x1 SWAP6 SWAP7 SWAP8 LT PUSH2 0x16D2 JUMPI JUMPDEST POP POP POP DUP2 SHL ADD SWAP1 SSTORE JUMP JUMPDEST ADD SLOAD PUSH1 0x0 NOT PUSH1 0xF8 DUP5 PUSH1 0x3 SHL AND SHR NOT AND SWAP1 SSTORE CODESIZE DUP1 DUP1 PUSH2 0x16C8 JUMP JUMPDEST SWAP2 SWAP3 PUSH1 0x1 DUP1 PUSH1 0x20 SWAP3 DUP7 DUP12 ADD SLOAD DUP2 SSTORE ADD SWAP5 ADD SWAP3 ADD PUSH2 0x16B3 JUMP JUMPDEST POP SWAP1 POP JUMP JUMPDEST SWAP1 PUSH2 0xD31 JUMPI DUP2 MLOAD DUP2 SLOAD PUSH1 0x1 PUSH1 0x1 PUSH1 0xA0 SHL SUB NOT AND PUSH1 0x1 PUSH1 0x1 PUSH1 0xA0 SHL SUB SWAP2 SWAP1 SWAP2 AND OR DUP2 SSTORE PUSH1 0x20 DUP3 ADD MLOAD DUP1 MLOAD PUSH1 0x1 DUP4 ADD SWAP2 PUSH1 0x1 PUSH1 0x1 PUSH1 0x40 SHL SUB DUP3 GT PUSH2 0x4C7 JUMPI PUSH2 0x1758 DUP3 PUSH2 0x1752 DUP6 SLOAD PUSH2 0x1362 JUMP JUMPDEST DUP6 PUSH2 0x15D4 JUMP JUMPDEST PUSH1 0x20 SWAP1 PUSH1 0x1F DUP4 GT PUSH1 0x1 EQ PUSH2 0x1A40 JUMPI PUSH2 0x1788 SWAP3 SWAP2 PUSH1 0x0 SWAP2 DUP4 PUSH2 0x8E6 JUMPI POP POP DUP2 PUSH1 0x1 SHL SWAP2 PUSH1 0x0 NOT SWAP1 PUSH1 0x3 SHL SHR NOT AND OR SWAP1 JUMP JUMPDEST SWAP1 SSTORE JUMPDEST PUSH1 0x2 DUP2 ADD PUSH1 0x40 DUP4 ADD MLOAD DUP1 MLOAD SWAP1 PUSH1 0x1 PUSH1 0x1 PUSH1 0x40 SHL SUB DUP3 GT PUSH2 0x4C7 JUMPI PUSH2 0x17B3 DUP3 PUSH2 0x1752 DUP6 SLOAD PUSH2 0x1362 JUMP JUMPDEST PUSH1 0x20 SWAP1 PUSH1 0x1F DUP4 GT PUSH1 0x1 EQ PUSH2 0x19D9 JUMPI PUSH2 0x17E3 SWAP3 SWAP2 PUSH1 0x0 SWAP2 DUP4 PUSH2 0x8E6 JUMPI POP POP DUP2 PUSH1 0x1 SHL SWAP2 PUSH1 0x0 NOT SWAP1 PUSH1 0x3 SHL SHR NOT AND OR SWAP1 JUMP JUMPDEST SWAP1 SSTORE JUMPDEST PUSH1 0x3 DUP2 ADD PUSH1 0x60 DUP4 ADD MLOAD DUP1 MLOAD SWAP1 PUSH1 0x1 PUSH1 0x1 PUSH1 0x40 SHL SUB DUP3 GT PUSH2 0x4C7 JUMPI PUSH2 0x180E DUP3 PUSH2 0x1752 DUP6 SLOAD PUSH2 0x1362 JUMP JUMPDEST PUSH1 0x20 SWAP1 PUSH1 0x1F DUP4 GT PUSH1 0x1 EQ PUSH2 0x1972 JUMPI PUSH2 0x183E SWAP3 SWAP2 PUSH1 0x0 SWAP2 DUP4 PUSH2 0x8E6 JUMPI POP POP DUP2 PUSH1 0x1 SHL SWAP2 PUSH1 0x0 NOT SWAP1 PUSH1 0x3 SHL SHR NOT AND OR SWAP1 JUMP JUMPDEST SWAP1 SSTORE JUMPDEST PUSH1 0x4 DUP2 ADD PUSH1 0x80 DUP4 ADD MLOAD DUP1 MLOAD SWAP1 PUSH1 0x1 PUSH1 0x1 PUSH1 0x40 SHL SUB DUP3 GT PUSH2 0x4C7 JUMPI PUSH2 0x1869 DUP3 PUSH2 0x1752 DUP6 SLOAD PUSH2 0x1362 JUMP JUMPDEST PUSH1 0x20 SWAP1 PUSH1 0x1F DUP4 GT PUSH1 0x1 EQ PUSH2 0x1900 JUMPI SWAP3 PUSH2 0x18A5 DUP4 PUSH1 0x5 SWAP5 PUSH2 0x1412 SWAP9 SWAP8 SWAP5 PUSH2 0x100 SWAP8 PUSH1 0x0 SWAP3 PUSH2 0x8E6 JUMPI POP POP DUP2 PUSH1 0x1 SHL SWAP2 PUSH1 0x0 NOT SWAP1 PUSH1 0x3 SHL SHR NOT AND OR SWAP1 JUMP JUMPDEST SWAP1 SSTORE JUMPDEST PUSH1 0xA0 DUP5 ADD MLOAD SWAP2 ADD DUP1 SLOAD PUSH1 0xC0 DUP6 ADD MLOAD PUSH1 0xE0 DUP7 ADD MLOAD SWAP5 SWAP1 SWAP6 ADD MLOAD PUSH1 0x10 SWAP5 SWAP1 SWAP5 SHL PUSH3 0xFF0000 AND PUSH2 0xFF00 PUSH1 0x8 SWAP7 SWAP1 SWAP7 SHL SWAP6 SWAP1 SWAP6 AND PUSH1 0xFF SWAP1 SWAP4 AND PUSH4 0xFFFFFFFF NOT SWAP1 SWAP2 AND OR SWAP2 SWAP1 SWAP2 OR SWAP3 SWAP1 SWAP3 OR SWAP1 ISZERO ISZERO PUSH1 0x18 SHL PUSH4 0xFF000000 AND OR SWAP1 SSTORE JUMP JUMPDEST SWAP1 PUSH1 0x1F NOT DUP4 AND SWAP2 DUP5 PUSH1 0x0 MSTORE DUP2 PUSH1 0x0 KECCAK256 SWAP3 PUSH1 0x0 JUMPDEST DUP2 DUP2 LT PUSH2 0x195A JUMPI POP SWAP4 PUSH2 0x1412 SWAP8 SWAP7 SWAP4 PUSH2 0x100 SWAP7 SWAP4 PUSH1 0x1 SWAP4 DUP4 PUSH1 0x5 SWAP9 LT PUSH2 0x1941 JUMPI JUMPDEST POP POP POP DUP2 SHL ADD SWAP1 SSTORE PUSH2 0x18A8 JUMP JUMPDEST ADD MLOAD PUSH1 0x0 NOT PUSH1 0xF8 DUP5 PUSH1 0x3 SHL AND SHR NOT AND SWAP1 SSTORE CODESIZE DUP1 DUP1 PUSH2 0x1934 JUMP JUMPDEST SWAP3 SWAP4 PUSH1 0x20 PUSH1 0x1 DUP2 SWAP3 DUP8 DUP7 ADD MLOAD DUP2 SSTORE ADD SWAP6 ADD SWAP4 ADD PUSH2 0x1913 JUMP JUMPDEST SWAP1 PUSH1 0x1F NOT DUP4 AND SWAP2 DUP5 PUSH1 0x0 MSTORE DUP2 PUSH1 0x0 KECCAK256 SWAP3 PUSH1 0x0 JUMPDEST DUP2 DUP2 LT PUSH2 0x19C1 JUMPI POP SWAP1 DUP5 PUSH1 0x1 SWAP6 SWAP5 SWAP4 SWAP3 LT PUSH2 0x19A8 JUMPI JUMPDEST POP POP POP DUP2 SHL ADD SWAP1 SSTORE PUSH2 0x1841 JUMP JUMPDEST ADD MLOAD PUSH1 0x0 NOT PUSH1 0xF8 DUP5 PUSH1 0x3 SHL AND SHR NOT AND SWAP1 SSTORE CODESIZE DUP1 DUP1 PUSH2 0x199B JUMP JUMPDEST SWAP3 SWAP4 PUSH1 0x20 PUSH1 0x1 DUP2 SWAP3 DUP8 DUP7 ADD MLOAD DUP2 SSTORE ADD SWAP6 ADD SWAP4 ADD PUSH2 0x1985 JUMP JUMPDEST SWAP1 PUSH1 0x1F NOT DUP4 AND SWAP2 DUP5 PUSH1 0x0 MSTORE DUP2 PUSH1 0x0 KECCAK256 SWAP3 PUSH1 0x0 JUMPDEST DUP2 DUP2 LT PUSH2 0x1A28 JUMPI POP SWAP1 DUP5 PUSH1 0x1 SWAP6 SWAP5 SWAP4 SWAP3 LT PUSH2 0x1A0F JUMPI JUMPDEST POP POP POP DUP2 SHL ADD SWAP1 SSTORE PUSH2 0x17E6 JUMP JUMPDEST ADD MLOAD PUSH1 0x0 NOT PUSH1 0xF8 DUP5 PUSH1 0x3 SHL AND SHR NOT AND SWAP1 SSTORE CODESIZE DUP1 DUP1 PUSH2 0x1A02 JUMP JUMPDEST SWAP3 SWAP4 PUSH1 0x20 PUSH1 0x1 DUP2 SWAP3 DUP8 DUP7 ADD MLOAD DUP2 SSTORE ADD SWAP6 ADD SWAP4 ADD PUSH2 0x19EC JUMP JUMPDEST SWAP1 PUSH1 0x1F NOT DUP4 AND SWAP2 DUP5 PUSH1 0x0 MSTORE DUP2 PUSH1 0x0 KECCAK256 SWAP3 PUSH1 0x0 JUMPDEST DUP2 DUP2 LT PUSH2 0x1A8F JUMPI POP SWAP1 DUP5 PUSH1 0x1 SWAP6 SWAP5 SWAP4 SWAP3 LT PUSH2 0x1A76 JUMPI JUMPDEST POP POP POP DUP2 SHL ADD SWAP1 SSTORE PUSH2 0x178B JUMP JUMPDEST ADD MLOAD PUSH1 0x0 NOT PUSH1 0xF8 DUP5 PUSH1 0x3 SHL AND SHR NOT AND SWAP1 SSTORE CODESIZE DUP1 DUP1 PUSH2 0x1A69 JUMP JUMPDEST SWAP3 SWAP4 PUSH1 0x20 PUSH1 0x1 DUP2 SWAP3 DUP8 DUP7 ADD MLOAD DUP2 SSTORE ADD SWAP6 ADD SWAP4 ADD PUSH2 0x1A53 JUMP JUMPDEST PUSH1 0x1 PUSH1 0x1 PUSH1 0x40 SHL SUB DUP2 GT PUSH2 0x4C7 JUMPI PUSH1 0x1F ADD PUSH1 0x1F NOT AND PUSH1 0x20 ADD SWAP1 JUMP JUMPDEST SWAP3 SWAP2 SWAP3 PUSH2 0x1ACE DUP3 PUSH2 0x1AA7 JUMP JUMPDEST SWAP2 PUSH2 0x1ADC PUSH1 0x40 MLOAD SWAP4 DUP5 PUSH2 0x13B8 JUMP JUMPDEST DUP3 SWAP5 DUP2 DUP5 MSTORE DUP2 DUP4 ADD GT PUSH2 0xB6 JUMPI DUP3 DUP2 PUSH1 0x20 SWAP4 DUP5 PUSH1 0x0 SWAP7 ADD CALLDATACOPY ADD ADD MSTORE JUMP INVALID LOG2 PUSH5 0x6970667358 0x22 SLT KECCAK256 0x25 0xAC DUP15 0x4C DUP3 0x1F NUMBER LOG0 PUSH20 0x4F48DE5A54A5E8131E45F9917AB5358909DEB488 0x27 0xC0 MSTORE PUSH5 0x736F6C6343 STOP ADDMOD SHR STOP CALLER "
        },
        "methodIdentifiers": {
          "addScholarship(string,uint256,uint8,uint8,uint8,uint8)": "6fb7c14e",
          "admin()": "f851a440",
          "applications(uint256)": "dfefadff",
          "applyForScholarship(string,string,string,string,uint8,uint8)": "7daf5774",
          "getApplications()": "43900e78",
          "getSelectedApplicants()": "39e64d26",
          "hasApplied(address)": "09413a51",
          "scholarship()": "a7539775",
          "selectTopApplicants()": "58810c85"
        }
      }
    }
  }
}