{
  "contracts/Scholarship.sol": {
    "ScholarDis": {
      "abi": [
        {
          "inputs": [],
          "stateMutability": "nonpayable",
          "type": "constructor"
        },
        {
          "anonymous": false,
          "inputs": [
            {
              "indexed": true,
              "internalType": "uint256",
              "name": "scholarshipId",
              "type": "uint256"
            },
            {
              "indexed": true,
              "internalType": "address",
              "name": "student",
              "type": "address"
            },
            {
              "indexed": false,
              "internalType": "uint8",
              "name": "score",
              "type": "uint8"
            }
          ],
          "name": "Applied",
          "type": "event"
        },
        {
          "anonymous": false,
          "inputs": [
            {
              "indexed": true,
              "internalType": "uint256",
              "name": "scholarshipId",
              "type": "uint256"
            },
            {
              "indexed": true,
              "internalType": "address",
              "name": "student",
              "type": "address"
            },
            {
              "indexed": false,
              "internalType": "uint256",
              "name": "amount",
              "type": "uint256"
            }
          ],
          "name": "Disbursed",
          "type": "event"
        },
        {
          "anonymous": false,
          "inputs": [
            {
              "indexed": false,
              "internalType": "uint256",
              "name": "id",
              "type": "uint256"
            },
            {
              "indexed": false,
              "internalType": "string",
              "name": "name",
              "type": "string"
            },
            {
              "indexed": false,
              "internalType": "uint256",
              "name": "amount",
              "type": "uint256"
            }
          ],
          "name": "ScholarshipCreated",
          "type": "event"
        },
        {
          "inputs": [
            {
              "internalType": "string",
              "name": "_name",
              "type": "string"
            },
            {
              "internalType": "uint256",
              "name": "_amount",
              "type": "uint256"
            },
            {
              "internalType": "uint8",
              "name": "_minScore",
              "type": "uint8"
            },
            {
              "internalType": "uint8",
              "name": "_totalSeats",
              "type": "uint8"
            },
            {
              "internalType": "uint8",
              "name": "_requiredAttendance",
              "type": "uint8"
            },
            {
              "internalType": "uint8",
              "name": "_requiredAcademic",
              "type": "uint8"
            }
          ],
          "name": "addScholarship",
          "outputs": [],
          "stateMutability": "nonpayable",
          "type": "function"
        },
        {
          "inputs": [],
          "name": "admin",
          "outputs": [
            {
              "internalType": "address",
              "name": "",
              "type": "address"
            }
          ],
          "stateMutability": "view",
          "type": "function"
        },
        {
          "inputs": [
            {
              "internalType": "uint256",
              "name": "_scholarshipId",
              "type": "uint256"
            },
            {
              "internalType": "string",
              "name": "_studentName",
              "type": "string"
            },
            {
              "internalType": "string",
              "name": "_regNumber",
              "type": "string"
            },
            {
              "internalType": "string",
              "name": "_college",
              "type": "string"
            },
            {
              "internalType": "string",
              "name": "_course",
              "type": "string"
            },
            {
              "internalType": "uint8",
              "name": "_attendancePercent",
              "type": "uint8"
            },
            {
              "internalType": "uint8",
              "name": "_academicMark",
              "type": "uint8"
            }
          ],
          "name": "applyForScholarship",
          "outputs": [],
          "stateMutability": "nonpayable",
          "type": "function"
        },
        {
          "inputs": [
            {
              "internalType": "uint256",
              "name": "_scholarshipId",
              "type": "uint256"
            }
          ],
          "name": "getApplications",
          "outputs": [
            {
              "components": [
                {
                  "internalType": "address",
                  "name": "applicant",
                  "type": "address"
                },
                {
                  "internalType": "string",
                  "name": "studentName",
                  "type": "string"
                },
                {
                  "internalType": "string",
                  "name": "regNumber",
                  "type": "string"
                },
                {
                  "internalType": "string",
                  "name": "college",
                  "type": "string"
                },
                {
                  "internalType": "string",
                  "name": "course",
                  "type": "string"
                },
                {
                  "internalType": "uint8",
                  "name": "attendancePercent",
                  "type": "uint8"
                },
                {
                  "internalType": "uint8",
                  "name": "academicMark",
                  "type": "uint8"
                },
                {
                  "internalType": "uint8",
                  "name": "score",
                  "type": "uint8"
                },
                {
                  "internalType": "bool",
                  "name": "received",
                  "type": "bool"
                }
              ],
              "internalType": "struct ScholarDis.Application[]",
              "name": "",
              "type": "tuple[]"
            }
          ],
          "stateMutability": "view",
          "type": "function"
        },
        {
          "inputs": [
            {
              "internalType": "uint256",
              "name": "_scholarshipId",
              "type": "uint256"
            }
          ],
          "name": "getSelectedApplicants",
          "outputs": [
            {
              "components": [
                {
                  "internalType": "address",
                  "name": "applicant",
                  "type": "address"
                },
                {
                  "internalType": "string",
                  "name": "studentName",
                  "type": "string"
                },
                {
                  "internalType": "string",
                  "name": "regNumber",
                  "type": "string"
                },
                {
                  "internalType": "string",
                  "name": "college",
                  "type": "string"
                },
                {
                  "internalType": "string",
                  "name": "course",
                  "type": "string"
                },
                {
                  "internalType": "uint8",
                  "name": "attendancePercent",
                  "type": "uint8"
                },
                {
                  "internalType": "uint8",
                  "name": "academicMark",
                  "type": "uint8"
                },
                {
                  "internalType": "uint8",
                  "name": "score",
                  "type": "uint8"
                },
                {
                  "internalType": "bool",
                  "name": "received",
                  "type": "bool"
                }
              ],
              "internalType": "struct ScholarDis.Application[]",
              "name": "",
              "type": "tuple[]"
            }
          ],
          "stateMutability": "view",
          "type": "function"
        },
        {
          "inputs": [
            {
              "internalType": "uint256",
              "name": "",
              "type": "uint256"
            },
            {
              "internalType": "address",
              "name": "",
              "type": "address"
            }
          ],
          "name": "hasApplied",
          "outputs": [
            {
              "internalType": "bool",
              "name": "",
              "type": "bool"
            }
          ],
          "stateMutability": "view",
          "type": "function"
        },
        {
          "inputs": [
            {
              "internalType": "uint256",
              "name": "",
              "type": "uint256"
            },
            {
              "internalType": "uint256",
              "name": "",
              "type": "uint256"
            }
          ],
          "name": "scholarshipApplications",
          "outputs": [
            {
              "internalType": "address",
              "name": "applicant",
              "type": "address"
            },
            {
              "internalType": "string",
              "name": "studentName",
              "type": "string"
            },
            {
              "internalType": "string",
              "name": "regNumber",
              "type": "string"
            },
            {
              "internalType": "string",
              "name": "college",
              "type": "string"
            },
            {
              "internalType": "string",
              "name": "course",
              "type": "string"
            },
            {
              "internalType": "uint8",
              "name": "attendancePercent",
              "type": "uint8"
            },
            {
              "internalType": "uint8",
              "name": "academicMark",
              "type": "uint8"
            },
            {
              "internalType": "uint8",
              "name": "score",
              "type": "uint8"
            },
            {
              "internalType": "bool",
              "name": "received",
              "type": "bool"
            }
          ],
          "stateMutability": "view",
          "type": "function"
        },
        {
          "inputs": [],
          "name": "scholarshipCounter",
          "outputs": [
            {
              "internalType": "uint256",
              "name": "",
              "type": "uint256"
            }
          ],
          "stateMutability": "view",
          "type": "function"
        },
        {
          "inputs": [
            {
              "internalType": "uint256",
              "name": "",
              "type": "uint256"
            }
          ],
          "name": "scholarships",
          "outputs": [
            {
              "internalType": "uint256",
              "name": "id",
              "type": "uint256"
            },
            {
              "internalType": "string",
              "name": "name",
              "type": "string"
            },
            {
              "internalType": "uint256",
              "name": "amount",
              "type": "uint256"
            },
            {
              "internalType": "uint8",
              "name": "minScore",
              "type": "uint8"
            },
            {
              "internalType": "uint8",
              "name": "totalSeats",
              "type": "uint8"
            },
            {
              "internalType": "uint8",
              "name": "requiredAttendance",
              "type": "uint8"
            },
            {
              "internalType": "uint8",
              "name": "requiredAcademic",
              "type": "uint8"
            },
            {
              "internalType": "bool",
              "name": "isActive",
              "type": "bool"
            },
            {
              "internalType": "bool",
              "name": "isProcessed",
              "type": "bool"
            }
          ],
          "stateMutability": "view",
          "type": "function"
        },
        {
          "inputs": [
            {
              "internalType": "uint256",
              "name": "_scholarshipId",
              "type": "uint256"
            }
          ],
          "name": "selectTopApplicants",
          "outputs": [],
          "stateMutability": "nonpayable",
          "type": "function"
        },
        {
          "stateMutability": "payable",
          "type": "receive"
        }
      ],
      "evm": {
        "bytecode": {
          "linkReferences": {},
          "object": "60808060405234602757600080546001600160a01b03191633179055611a52908161002d8239f35b600080fdfe6080604052600436101561001b575b361561001957600080fd5b005b60003560e01c80632863ab6914610dad57806339dc58c614610d0757806354613f3014610ba55780636fb7c14e1461074a57806384031d081461072c578063a39bf544146106d4578063b629dc1f1461023e578063bc8c937d146101b9578063e6e43ac3146100bc5763f851a4400361000e57346100b75760003660031901126100b7576000546040516001600160a01b039091168152602090f35b600080fd5b346100b75760403660031901126100b757602435600435600052600360205260406000209081548110156100b7576100f39161135e565b5080546001600160a01b031661010b6001830161118a565b9160ff61018a61011d6002840161118a565b9261017c61012d6003830161118a565b61016e600561013e6004860161118a565b940154966101606040519a8b9a8b5261012060208c01526101208b019061122e565b9089820360408b015261122e565b90878203606089015261122e565b90858203608087015261122e565b9181811660a0850152818160081c1660c0850152818160101c1660e085015260181c1615156101008301520390f35b346100b75760203660031901126100b7576004356000526003602052604060002080546101e581611827565b916101f36040519384611169565b818352602083019060005260206000206000915b838310610220576040518061021c878261126f565b0390f35b6006602060019261023085611852565b815201920192019190610207565b346100b75760203660031901126100b75760043561026760018060a01b036000541633146118e3565b80600052600260205260406000206003810160ff815461028b828260201c16611390565b60281c1661069b578260005260036020526040600020918254156106645790926000935b83548510156104775760018501808611610461575b84548110156104555760ff60056102db838861135e565b50015460101c1660ff60056102f0898961135e565b50015460101c1610610305575b6001016102c4565b610318610312878761135e565b50611852565b90610323818761135e565b5061032e888861135e565b93909361043f578382610356936001960361035d575b5050610350838961135e565b90611479565b90506102fd565b60ff60058061043894898060a01b038a8060a01b03865416166bffffffffffffffffffffffff60a01b82541617815561039a8a86018b830161193a565b6103aa600286016002830161193a565b6103ba600386016003830161193a565b6103ca600486016004830161193a565b01920181808254161682198454161783556103fc82825460081c16849061ff0082549160081b169061ff001916179055565b8054835462ff00001916601091821c841690911b62ff0000161783555460181c1663ff000000825491151560181b169063ff0000001916179055565b8980610344565b634e487b7160e01b600052600060045260246000fd5b506001909401936102af565b634e487b7160e01b600052601160045260246000fd5b91906000805b8554811080610651575b1561063a5760ff600561049a838961135e565b50015460101c1660ff86541611158061061e575b6104c1575b6104bc90611818565b61047d565b6104cb818761135e565b50546002850180549093916001600160a01b03164782116105d957600080809381935af13d156105d4573d6104ff816113d5565b9061050d6040519283611169565b8152600060203d92013e5b1561059d5760ff90600561052c848a61135e565b5001805463ff00000019166301000000179055169060ff82146104615760016104bc920192847f8c4905f8a17a430223b23d54ea01f7ebb8c6cc6417d7eae96dfa0010949f0fa0602061057f858c61135e565b505493546040519081526001600160a01b0390941693a390506104b3565b60405162461bcd60e51b815260206004820152600f60248201526e151c985b9cd9995c8819985a5b1959608a1b6044820152606490fd5b610518565b60405162461bcd60e51b815260206004820152601d60248201527f496e73756666696369656e7420636f6e74726163742062616c616e63650000006044820152606490fd5b5060ff600561062d838961135e565b50015460181c16156104ae565b845465ff0000000000191665010000000000178555005b5060ff855460081c1660ff831610610487565b60405162461bcd60e51b815260206004820152600f60248201526e4e6f206170706c69636174696f6e7360881b6044820152606490fd5b60405162461bcd60e51b8152602060048201526011602482015270105b1c9958591e481c1c9bd8d95cdcd959607a1b6044820152606490fd5b346100b75760403660031901126100b7576024356001600160a01b03811681036100b757600435600052600460205260406000209060018060a01b0316600052602052602060ff604060002054166040519015158152f35b346100b75760003660031901126100b7576020600154604051908152f35b346100b75760c03660031901126100b7576004356001600160401b0381116100b75761077a9036906004016110d6565b906044359160ff83168093036100b75760643560ff81168091036100b75760843560ff81168091036100b7576107ae611103565b6107c360018060a01b036000541633146118e3565b60243515610b6b5760c88611610b32578215610aed57606482111580610adf575b15610a9a576107f4600154611818565b9081600155604051926108068461114d565b8284526108143687896113f0565b97602085019889526040850190602435825260608601526080850195865260a0850191825260ff60c086019316835260e0850193600185526000610100870152600052600260205260406000209885518a55518051906001600160401b038211610a8457610892828c600161088b81830154611113565b9101611427565b602090601f83116001146109dd579361093560ff60037fcd613ed337e0507220dae4ee9a4abc53280c43016d259a8ea66bf5e8bfe57b879e60809d9c9b99976108fd8861094d9986996101009f9d6000926109d2575b50508160011b916000199060031b1c19161790565b60018301555b5160028201550199818060608b0151161682198c5416178b555116899061ff0082549160081b169061ff001916179055565b51875462ff00001916911660101b62ff000016178655565b519063ff00000064ff0000000086549251151560201b169260181b169064ffff0000001916171783550151151565ff000000000082549160281b169065ff0000000000191617905560015490806040519485938452606060208501528160608501528484013760008282018401526024356040830152601f01601f19168101030190a1005b0151905038806108e8565b9060018c01600052806000209160005b601f1985168110610a6c575060ff60037fcd613ed337e0507220dae4ee9a4abc53280c43016d259a8ea66bf5e8bfe57b879e60809d9c9b999760018885986101009e9c986109359861094d9c601f19811610610a54575b505050811b016001830155610903565b015160001983881b60f8161c19169055388080610a44565b919260206001819286850151815501940192016109ed565b634e487b7160e01b600052604160045260246000fd5b60405162461bcd60e51b815260206004820152601960248201527f496e76616c69642070657263656e7461676520696e70757473000000000000006044820152606490fd5b50606460ff821611156107e4565b60405162461bcd60e51b815260206004820152601760248201527f546f74616c207365617473206d757374206265203e20300000000000000000006044820152606490fd5b60405162461bcd60e51b8152602060048201526011602482015270496e76616c6964206d696e2073636f726560781b6044820152606490fd5b60405162461bcd60e51b81526020600482015260126024820152710416d6f756e74206d757374206265203e20360741b6044820152606490fd5b346100b75760203660031901126100b7576004356000908152600360205260408120805490825b828110610cd15750610bdd83611827565b92610beb6040519485611169565b808452610bfa601f1991611827565b0160005b818110610c7b5750506000805b838110610c20576040518061021c878261126f565b8060ff6005610c316001948761135e565b50015460181c16610c43575b01610c0b565b610c75610c50828661135e565b5093610c64610c5e82611818565b95611852565b610c6e828a61183e565b528761183e565b50610c3d565b602090604051610c8a8161114d565b600081526060838201526060604082015260608082015260606080820152600060a0820152600060c0820152600060e0820152600061010082015282828801015201610bfe565b60ff6005610cdf838561135e565b50015460181c16610cf3575b600101610bcc565b92610cff600191611818565b939050610ceb565b346100b75760203660031901126100b757600435600052600260205260406000208054610d366001830161118a565b9160ff60036002830154920154610d616040519586958652610120602087015261012086019061122e565b9260408501528181166060850152818160081c166080850152818160101c1660a0850152818160181c1660c0850152818160201c16151560e085015260281c1615156101008301520390f35b346100b75760e03660031901126100b7576004356024356001600160401b0381116100b757610de09036906004016110d6565b91906044356001600160401b0381116100b757610e019036906004016110d6565b906064356001600160401b0381116100b757610e219036906004016110d6565b906084356001600160401b0381116100b757610e419036906004016110d6565b9091610e4b611103565b9360c4359560ff87168097036100b75789600052600260205260036040600020015495610e7d60ff8860201c16611390565b60008b815260046020908152604080832033845290915290205460ff1661109f5760ff1695606487111580611094575b156110585760ff8160101c1687106110135760181c60ff168710610fd6578686019760ff8911610461578a60005260036020526040600020996040519c610ef38e61114d565b8d3390523690610f02926113f0565b60208d01523690610f12926113f0565b60408b01523690610f22926113f0565b60608901523690610f32926113f0565b608087015260a086015260c085015260ff16928360e082015261010081016000905281549168010000000000000000831015610a845782610350916001610f7b9501815561135e565b806000526004602052604060002060018060a01b0333166000526020526040600020600160ff198254161790556040519182527fe16892d79bf1bda42d2f7448597e39c3c9575cfa509f0ba25f6ea6d9e66b6d7960203393a3005b60405162461bcd60e51b815260206004820152601560248201527413585c9adcc818995b1bddc81d1a1c995cda1bdb19605a1b6044820152606490fd5b60405162461bcd60e51b815260206004820152601a60248201527f417474656e64616e63652062656c6f77207468726573686f6c640000000000006044820152606490fd5b60405162461bcd60e51b8152602060048201526014602482015273496e76616c696420696e7075742076616c75657360601b6044820152606490fd5b506064881115610ead565b60405162461bcd60e51b815260206004820152600f60248201526e105b1c9958591e48185c1c1b1a5959608a1b6044820152606490fd5b9181601f840112156100b7578235916001600160401b0383116100b757602083818601950101116100b757565b60a4359060ff821682036100b757565b90600182811c92168015611143575b602083101461112d57565b634e487b7160e01b600052602260045260246000fd5b91607f1691611122565b61012081019081106001600160401b03821117610a8457604052565b90601f801991011681019081106001600160401b03821117610a8457604052565b906040519182600082549261119e84611113565b808452936001811690811561120c57506001146111c5575b506111c392500383611169565b565b90506000929192526020600020906000915b8183106111f05750509060206111c392820101386111b6565b60209193508060019154838589010152019101909184926111d7565b9050602092506111c394915060ff191682840152151560051b820101386111b6565b919082519283825260005b84811061125a575050826000602080949584010152601f8019910116010190565b80602080928401015182828601015201611239565b602081016020825282518091526040820191602060408360051b8301019401926000915b8383106112a257505050505090565b9091929394602080600192603f19858203018652885190848060a01b0382511681526101008061132061130e6112fc6112ea888801516101208a89015261012088019061122e565b6040880151878203604089015261122e565b6060870151868203606088015261122e565b6080860151858203608087015261122e565b9360ff60a08201511660a085015260ff60c08201511660c085015260ff60e08201511660e08501520151151591015297019301930191939290611293565b805482101561137a576000526006602060002091020190600090565b634e487b7160e01b600052603260045260246000fd5b1561139757565b60405162461bcd60e51b81526020600482015260166024820152755363686f6c617273686970206e6f742061637469766560501b6044820152606490fd5b6001600160401b038111610a8457601f01601f191660200190565b9291926113fc826113d5565b9161140a6040519384611169565b8294818452818301116100b7578281602093846000960137010152565b601f821161143457505050565b6000526020600020906020601f840160051c8301931061146f575b601f0160051c01905b818110611463575050565b60008155600101611458565b909150819061144f565b9061043f57815181546001600160a01b0319166001600160a01b03919091161781556020820151805160018301916001600160401b038211610a84576114c9826114c38554611113565b85611427565b602090601f83116001146117b1576114f99291600091836109d25750508160011b916000199060031b1c19161790565b90555b6002810160408301518051906001600160401b038211610a8457611524826114c38554611113565b602090601f831160011461174a576115549291600091836109d25750508160011b916000199060031b1c19161790565b90555b6003810160608301518051906001600160401b038211610a845761157f826114c38554611113565b602090601f83116001146116e3576115af9291600091836109d25750508160011b916000199060031b1c19161790565b90555b6004810160808301518051906001600160401b038211610a84576115da826114c38554611113565b602090601f83116001146116715792611616836005946111c3989794610100976000926109d25750508160011b916000199060031b1c19161790565b90555b60a08401519101805460c085015160e0860151949095015160109490941b62ff00001661ff0060089690961b9590951660ff90931663ffffffff1990911617919091179290921790151560181b63ff00000016179055565b90601f1983169184600052816000209260005b8181106116cb5750936111c3979693610100969360019383600598106116b2575b505050811b019055611619565b015160001960f88460031b161c191690553880806116a5565b92936020600181928786015181550195019301611684565b90601f1983169184600052816000209260005b8181106117325750908460019594939210611719575b505050811b0190556115b2565b015160001960f88460031b161c1916905538808061170c565b929360206001819287860151815501950193016116f6565b90601f1983169184600052816000209260005b8181106117995750908460019594939210611780575b505050811b019055611557565b015160001960f88460031b161c19169055388080611773565b9293602060018192878601518155019501930161175d565b90601f1983169184600052816000209260005b81811061180057509084600195949392106117e7575b505050811b0190556114fc565b015160001960f88460031b161c191690553880806117da565b929360206001819287860151815501950193016117c4565b60001981146104615760010190565b6001600160401b038111610a845760051b60200190565b805182101561137a5760209160051b010190565b9060405161185f8161114d565b61010060ff6005839560018060a01b0381541685526118806001820161118a565b60208601526118916002820161118a565b60408601526118a26003820161118a565b60608601526118b36004820161118a565b6080860152015481811660a0850152818160081c1660c0850152818160101c1660e085015260181c161515910152565b156118ea57565b60405162461bcd60e51b815260206004820152602260248201527f4f6e6c792061646d696e2063616e20706572666f726d2074686973206163746960448201526137b760f11b6064820152608490fd5b919091828114611a175761194e8354611113565b6001600160401b038111610a84576119708161196a8454611113565b84611427565b600093601f82116001146119b1576119a292939482916000926119a65750508160011b916000199060031b1c19161790565b9055565b0154905038806108e8565b845260208085208386529085209094601f198316815b8181106119ff575095836001959697106119e6575b505050811b019055565b015460001960f88460031b161c191690553880806119dc565b9192600180602092868b0154815501940192016119c7565b50905056fea2646970667358221220f8f2c669c2afc6c6300c852862abf7f6a45ffefaf6b26ce4491b11c5a68a92e164736f6c634300081c0033",
          "opcodes": "PUSH1 0x80 DUP1 PUSH1 0x40 MSTORE CALLVALUE PUSH1 0x27 JUMPI PUSH1 0x0 DUP1 SLOAD PUSH1 0x1 PUSH1 0x1 PUSH1 0xA0 SHL SUB NOT AND CALLER OR SWAP1 SSTORE PUSH2 0x1A52 SWAP1 DUP2 PUSH2 0x2D DUP3 CODECOPY RETURN JUMPDEST PUSH1 0x0 DUP1 REVERT INVALID PUSH1 0x80 PUSH1 0x40 MSTORE PUSH1 0x4 CALLDATASIZE LT ISZERO PUSH2 0x1B JUMPI JUMPDEST CALLDATASIZE ISZERO PUSH2 0x19 JUMPI PUSH1 0x0 DUP1 REVERT JUMPDEST STOP JUMPDEST PUSH1 0x0 CALLDATALOAD PUSH1 0xE0 SHR DUP1 PUSH4 0x2863AB69 EQ PUSH2 0xDAD JUMPI DUP1 PUSH4 0x39DC58C6 EQ PUSH2 0xD07 JUMPI DUP1 PUSH4 0x54613F30 EQ PUSH2 0xBA5 JUMPI DUP1 PUSH4 0x6FB7C14E EQ PUSH2 0x74A JUMPI DUP1 PUSH4 0x84031D08 EQ PUSH2 0x72C JUMPI DUP1 PUSH4 0xA39BF544 EQ PUSH2 0x6D4 JUMPI DUP1 PUSH4 0xB629DC1F EQ PUSH2 0x23E JUMPI DUP1 PUSH4 0xBC8C937D EQ PUSH2 0x1B9 JUMPI DUP1 PUSH4 0xE6E43AC3 EQ PUSH2 0xBC JUMPI PUSH4 0xF851A440 SUB PUSH2 0xE JUMPI CALLVALUE PUSH2 0xB7 JUMPI PUSH1 0x0 CALLDATASIZE PUSH1 0x3 NOT ADD SLT PUSH2 0xB7 JUMPI PUSH1 0x0 SLOAD PUSH1 0x40 MLOAD PUSH1 0x1 PUSH1 0x1 PUSH1 0xA0 SHL SUB SWAP1 SWAP2 AND DUP2 MSTORE PUSH1 0x20 SWAP1 RETURN JUMPDEST PUSH1 0x0 DUP1 REVERT JUMPDEST CALLVALUE PUSH2 0xB7 JUMPI PUSH1 0x40 CALLDATASIZE PUSH1 0x3 NOT ADD SLT PUSH2 0xB7 JUMPI PUSH1 0x24 CALLDATALOAD PUSH1 0x4 CALLDATALOAD PUSH1 0x0 MSTORE PUSH1 0x3 PUSH1 0x20 MSTORE PUSH1 0x40 PUSH1 0x0 KECCAK256 SWAP1 DUP2 SLOAD DUP2 LT ISZERO PUSH2 0xB7 JUMPI PUSH2 0xF3 SWAP2 PUSH2 0x135E JUMP JUMPDEST POP DUP1 SLOAD PUSH1 0x1 PUSH1 0x1 PUSH1 0xA0 SHL SUB AND PUSH2 0x10B PUSH1 0x1 DUP4 ADD PUSH2 0x118A JUMP JUMPDEST SWAP2 PUSH1 0xFF PUSH2 0x18A PUSH2 0x11D PUSH1 0x2 DUP5 ADD PUSH2 0x118A JUMP JUMPDEST SWAP3 PUSH2 0x17C PUSH2 0x12D PUSH1 0x3 DUP4 ADD PUSH2 0x118A JUMP JUMPDEST PUSH2 0x16E PUSH1 0x5 PUSH2 0x13E PUSH1 0x4 DUP7 ADD PUSH2 0x118A JUMP JUMPDEST SWAP5 ADD SLOAD SWAP7 PUSH2 0x160 PUSH1 0x40 MLOAD SWAP11 DUP12 SWAP11 DUP12 MSTORE PUSH2 0x120 PUSH1 0x20 DUP13 ADD MSTORE PUSH2 0x120 DUP12 ADD SWAP1 PUSH2 0x122E JUMP JUMPDEST SWAP1 DUP10 DUP3 SUB PUSH1 0x40 DUP12 ADD MSTORE PUSH2 0x122E JUMP JUMPDEST SWAP1 DUP8 DUP3 SUB PUSH1 0x60 DUP10 ADD MSTORE PUSH2 0x122E JUMP JUMPDEST SWAP1 DUP6 DUP3 SUB PUSH1 0x80 DUP8 ADD MSTORE PUSH2 0x122E JUMP JUMPDEST SWAP2 DUP2 DUP2 AND PUSH1 0xA0 DUP6 ADD MSTORE DUP2 DUP2 PUSH1 0x8 SHR AND PUSH1 0xC0 DUP6 ADD MSTORE DUP2 DUP2 PUSH1 0x10 SHR AND PUSH1 0xE0 DUP6 ADD MSTORE PUSH1 0x18 SHR AND ISZERO ISZERO PUSH2 0x100 DUP4 ADD MSTORE SUB SWAP1 RETURN JUMPDEST CALLVALUE PUSH2 0xB7 JUMPI PUSH1 0x20 CALLDATASIZE PUSH1 0x3 NOT ADD SLT PUSH2 0xB7 JUMPI PUSH1 0x4 CALLDATALOAD PUSH1 0x0 MSTORE PUSH1 0x3 PUSH1 0x20 MSTORE PUSH1 0x40 PUSH1 0x0 KECCAK256 DUP1 SLOAD PUSH2 0x1E5 DUP2 PUSH2 0x1827 JUMP JUMPDEST SWAP2 PUSH2 0x1F3 PUSH1 0x40 MLOAD SWAP4 DUP5 PUSH2 0x1169 JUMP JUMPDEST DUP2 DUP4 MSTORE PUSH1 0x20 DUP4 ADD SWAP1 PUSH1 0x0 MSTORE PUSH1 0x20 PUSH1 0x0 KECCAK256 PUSH1 0x0 SWAP2 JUMPDEST DUP4 DUP4 LT PUSH2 0x220 JUMPI PUSH1 0x40 MLOAD DUP1 PUSH2 0x21C DUP8 DUP3 PUSH2 0x126F JUMP JUMPDEST SUB SWAP1 RETURN JUMPDEST PUSH1 0x6 PUSH1 0x20 PUSH1 0x1 SWAP3 PUSH2 0x230 DUP6 PUSH2 0x1852 JUMP JUMPDEST DUP2 MSTORE ADD SWAP3 ADD SWAP3 ADD SWAP2 SWAP1 PUSH2 0x207 JUMP JUMPDEST CALLVALUE PUSH2 0xB7 JUMPI PUSH1 0x20 CALLDATASIZE PUSH1 0x3 NOT ADD SLT PUSH2 0xB7 JUMPI PUSH1 0x4 CALLDATALOAD PUSH2 0x267 PUSH1 0x1 DUP1 PUSH1 0xA0 SHL SUB PUSH1 0x0 SLOAD AND CALLER EQ PUSH2 0x18E3 JUMP JUMPDEST DUP1 PUSH1 0x0 MSTORE PUSH1 0x2 PUSH1 0x20 MSTORE PUSH1 0x40 PUSH1 0x0 KECCAK256 PUSH1 0x3 DUP2 ADD PUSH1 0xFF DUP2 SLOAD PUSH2 0x28B DUP3 DUP3 PUSH1 0x20 SHR AND PUSH2 0x1390 JUMP JUMPDEST PUSH1 0x28 SHR AND PUSH2 0x69B JUMPI DUP3 PUSH1 0x0 MSTORE PUSH1 0x3 PUSH1 0x20 MSTORE PUSH1 0x40 PUSH1 0x0 KECCAK256 SWAP2 DUP3 SLOAD ISZERO PUSH2 0x664 JUMPI SWAP1 SWAP3 PUSH1 0x0 SWAP4 JUMPDEST DUP4 SLOAD DUP6 LT ISZERO PUSH2 0x477 JUMPI PUSH1 0x1 DUP6 ADD DUP1 DUP7 GT PUSH2 0x461 JUMPI JUMPDEST DUP5 SLOAD DUP2 LT ISZERO PUSH2 0x455 JUMPI PUSH1 0xFF PUSH1 0x5 PUSH2 0x2DB DUP4 DUP9 PUSH2 0x135E JUMP JUMPDEST POP ADD SLOAD PUSH1 0x10 SHR AND PUSH1 0xFF PUSH1 0x5 PUSH2 0x2F0 DUP10 DUP10 PUSH2 0x135E JUMP JUMPDEST POP ADD SLOAD PUSH1 0x10 SHR AND LT PUSH2 0x305 JUMPI JUMPDEST PUSH1 0x1 ADD PUSH2 0x2C4 JUMP JUMPDEST PUSH2 0x318 PUSH2 0x312 DUP8 DUP8 PUSH2 0x135E JUMP JUMPDEST POP PUSH2 0x1852 JUMP JUMPDEST SWAP1 PUSH2 0x323 DUP2 DUP8 PUSH2 0x135E JUMP JUMPDEST POP PUSH2 0x32E DUP9 DUP9 PUSH2 0x135E JUMP JUMPDEST SWAP4 SWAP1 SWAP4 PUSH2 0x43F JUMPI DUP4 DUP3 PUSH2 0x356 SWAP4 PUSH1 0x1 SWAP7 SUB PUSH2 0x35D JUMPI JUMPDEST POP POP PUSH2 0x350 DUP4 DUP10 PUSH2 0x135E JUMP JUMPDEST SWAP1 PUSH2 0x1479 JUMP JUMPDEST SWAP1 POP PUSH2 0x2FD JUMP JUMPDEST PUSH1 0xFF PUSH1 0x5 DUP1 PUSH2 0x438 SWAP5 DUP10 DUP1 PUSH1 0xA0 SHL SUB DUP11 DUP1 PUSH1 0xA0 SHL SUB DUP7 SLOAD AND AND PUSH12 0xFFFFFFFFFFFFFFFFFFFFFFFF PUSH1 0xA0 SHL DUP3 SLOAD AND OR DUP2 SSTORE PUSH2 0x39A DUP11 DUP7 ADD DUP12 DUP4 ADD PUSH2 0x193A JUMP JUMPDEST PUSH2 0x3AA PUSH1 0x2 DUP7 ADD PUSH1 0x2 DUP4 ADD PUSH2 0x193A JUMP JUMPDEST PUSH2 0x3BA PUSH1 0x3 DUP7 ADD PUSH1 0x3 DUP4 ADD PUSH2 0x193A JUMP JUMPDEST PUSH2 0x3CA PUSH1 0x4 DUP7 ADD PUSH1 0x4 DUP4 ADD PUSH2 0x193A JUMP JUMPDEST ADD SWAP3 ADD DUP2 DUP1 DUP3 SLOAD AND AND DUP3 NOT DUP5 SLOAD AND OR DUP4 SSTORE PUSH2 0x3FC DUP3 DUP3 SLOAD PUSH1 0x8 SHR AND DUP5 SWAP1 PUSH2 0xFF00 DUP3 SLOAD SWAP2 PUSH1 0x8 SHL AND SWAP1 PUSH2 0xFF00 NOT AND OR SWAP1 SSTORE JUMP JUMPDEST DUP1 SLOAD DUP4 SLOAD PUSH3 0xFF0000 NOT AND PUSH1 0x10 SWAP2 DUP3 SHR DUP5 AND SWAP1 SWAP2 SHL PUSH3 0xFF0000 AND OR DUP4 SSTORE SLOAD PUSH1 0x18 SHR AND PUSH4 0xFF000000 DUP3 SLOAD SWAP2 ISZERO ISZERO PUSH1 0x18 SHL AND SWAP1 PUSH4 0xFF000000 NOT AND OR SWAP1 SSTORE JUMP JUMPDEST DUP10 DUP1 PUSH2 0x344 JUMP JUMPDEST PUSH4 0x4E487B71 PUSH1 0xE0 SHL PUSH1 0x0 MSTORE PUSH1 0x0 PUSH1 0x4 MSTORE PUSH1 0x24 PUSH1 0x0 REVERT JUMPDEST POP PUSH1 0x1 SWAP1 SWAP5 ADD SWAP4 PUSH2 0x2AF JUMP JUMPDEST PUSH4 0x4E487B71 PUSH1 0xE0 SHL PUSH1 0x0 MSTORE PUSH1 0x11 PUSH1 0x4 MSTORE PUSH1 0x24 PUSH1 0x0 REVERT JUMPDEST SWAP2 SWAP1 PUSH1 0x0 DUP1 JUMPDEST DUP6 SLOAD DUP2 LT DUP1 PUSH2 0x651 JUMPI JUMPDEST ISZERO PUSH2 0x63A JUMPI PUSH1 0xFF PUSH1 0x5 PUSH2 0x49A DUP4 DUP10 PUSH2 0x135E JUMP JUMPDEST POP ADD SLOAD PUSH1 0x10 SHR AND PUSH1 0xFF DUP7 SLOAD AND GT ISZERO DUP1 PUSH2 0x61E JUMPI JUMPDEST PUSH2 0x4C1 JUMPI JUMPDEST PUSH2 0x4BC SWAP1 PUSH2 0x1818 JUMP JUMPDEST PUSH2 0x47D JUMP JUMPDEST PUSH2 0x4CB DUP2 DUP8 PUSH2 0x135E JUMP JUMPDEST POP SLOAD PUSH1 0x2 DUP6 ADD DUP1 SLOAD SWAP1 SWAP4 SWAP2 PUSH1 0x1 PUSH1 0x1 PUSH1 0xA0 SHL SUB AND SELFBALANCE DUP3 GT PUSH2 0x5D9 JUMPI PUSH1 0x0 DUP1 DUP1 SWAP4 DUP2 SWAP4 GAS CALL RETURNDATASIZE ISZERO PUSH2 0x5D4 JUMPI RETURNDATASIZE PUSH2 0x4FF DUP2 PUSH2 0x13D5 JUMP JUMPDEST SWAP1 PUSH2 0x50D PUSH1 0x40 MLOAD SWAP3 DUP4 PUSH2 0x1169 JUMP JUMPDEST DUP2 MSTORE PUSH1 0x0 PUSH1 0x20 RETURNDATASIZE SWAP3 ADD RETURNDATACOPY JUMPDEST ISZERO PUSH2 0x59D JUMPI PUSH1 0xFF SWAP1 PUSH1 0x5 PUSH2 0x52C DUP5 DUP11 PUSH2 0x135E JUMP JUMPDEST POP ADD DUP1 SLOAD PUSH4 0xFF000000 NOT AND PUSH4 0x1000000 OR SWAP1 SSTORE AND SWAP1 PUSH1 0xFF DUP3 EQ PUSH2 0x461 JUMPI PUSH1 0x1 PUSH2 0x4BC SWAP3 ADD SWAP3 DUP5 PUSH32 0x8C4905F8A17A430223B23D54EA01F7EBB8C6CC6417D7EAE96DFA0010949F0FA0 PUSH1 0x20 PUSH2 0x57F DUP6 DUP13 PUSH2 0x135E JUMP JUMPDEST POP SLOAD SWAP4 SLOAD PUSH1 0x40 MLOAD SWAP1 DUP2 MSTORE PUSH1 0x1 PUSH1 0x1 PUSH1 0xA0 SHL SUB SWAP1 SWAP5 AND SWAP4 LOG3 SWAP1 POP PUSH2 0x4B3 JUMP JUMPDEST PUSH1 0x40 MLOAD PUSH3 0x461BCD PUSH1 0xE5 SHL DUP2 MSTORE PUSH1 0x20 PUSH1 0x4 DUP3 ADD MSTORE PUSH1 0xF PUSH1 0x24 DUP3 ADD MSTORE PUSH15 0x151C985B9CD9995C8819985A5B1959 PUSH1 0x8A SHL PUSH1 0x44 DUP3 ADD MSTORE PUSH1 0x64 SWAP1 REVERT JUMPDEST PUSH2 0x518 JUMP JUMPDEST PUSH1 0x40 MLOAD PUSH3 0x461BCD PUSH1 0xE5 SHL DUP2 MSTORE PUSH1 0x20 PUSH1 0x4 DUP3 ADD MSTORE PUSH1 0x1D PUSH1 0x24 DUP3 ADD MSTORE PUSH32 0x496E73756666696369656E7420636F6E74726163742062616C616E6365000000 PUSH1 0x44 DUP3 ADD MSTORE PUSH1 0x64 SWAP1 REVERT JUMPDEST POP PUSH1 0xFF PUSH1 0x5 PUSH2 0x62D DUP4 DUP10 PUSH2 0x135E JUMP JUMPDEST POP ADD SLOAD PUSH1 0x18 SHR AND ISZERO PUSH2 0x4AE JUMP JUMPDEST DUP5 SLOAD PUSH6 0xFF0000000000 NOT AND PUSH6 0x10000000000 OR DUP6 SSTORE STOP JUMPDEST POP PUSH1 0xFF DUP6 SLOAD PUSH1 0x8 SHR AND PUSH1 0xFF DUP4 AND LT PUSH2 0x487 JUMP JUMPDEST PUSH1 0x40 MLOAD PUSH3 0x461BCD PUSH1 0xE5 SHL DUP2 MSTORE PUSH1 0x20 PUSH1 0x4 DUP3 ADD MSTORE PUSH1 0xF PUSH1 0x24 DUP3 ADD MSTORE PUSH15 0x4E6F206170706C69636174696F6E73 PUSH1 0x88 SHL PUSH1 0x44 DUP3 ADD MSTORE PUSH1 0x64 SWAP1 REVERT JUMPDEST PUSH1 0x40 MLOAD PUSH3 0x461BCD PUSH1 0xE5 SHL DUP2 MSTORE PUSH1 0x20 PUSH1 0x4 DUP3 ADD MSTORE PUSH1 0x11 PUSH1 0x24 DUP3 ADD MSTORE PUSH17 0x105B1C9958591E481C1C9BD8D95CDCD959 PUSH1 0x7A SHL PUSH1 0x44 DUP3 ADD MSTORE PUSH1 0x64 SWAP1 REVERT JUMPDEST CALLVALUE PUSH2 0xB7 JUMPI PUSH1 0x40 CALLDATASIZE PUSH1 0x3 NOT ADD SLT PUSH2 0xB7 JUMPI PUSH1 0x24 CALLDATALOAD PUSH1 0x1 PUSH1 0x1 PUSH1 0xA0 SHL SUB DUP2 AND DUP2 SUB PUSH2 0xB7 JUMPI PUSH1 0x4 CALLDATALOAD PUSH1 0x0 MSTORE PUSH1 0x4 PUSH1 0x20 MSTORE PUSH1 0x40 PUSH1 0x0 KECCAK256 SWAP1 PUSH1 0x1 DUP1 PUSH1 0xA0 SHL SUB AND PUSH1 0x0 MSTORE PUSH1 0x20 MSTORE PUSH1 0x20 PUSH1 0xFF PUSH1 0x40 PUSH1 0x0 KECCAK256 SLOAD AND PUSH1 0x40 MLOAD SWAP1 ISZERO ISZERO DUP2 MSTORE RETURN JUMPDEST CALLVALUE PUSH2 0xB7 JUMPI PUSH1 0x0 CALLDATASIZE PUSH1 0x3 NOT ADD SLT PUSH2 0xB7 JUMPI PUSH1 0x20 PUSH1 0x1 SLOAD PUSH1 0x40 MLOAD SWAP1 DUP2 MSTORE RETURN JUMPDEST CALLVALUE PUSH2 0xB7 JUMPI PUSH1 0xC0 CALLDATASIZE PUSH1 0x3 NOT ADD SLT PUSH2 0xB7 JUMPI PUSH1 0x4 CALLDATALOAD PUSH1 0x1 PUSH1 0x1 PUSH1 0x40 SHL SUB DUP2 GT PUSH2 0xB7 JUMPI PUSH2 0x77A SWAP1 CALLDATASIZE SWAP1 PUSH1 0x4 ADD PUSH2 0x10D6 JUMP JUMPDEST SWAP1 PUSH1 0x44 CALLDATALOAD SWAP2 PUSH1 0xFF DUP4 AND DUP1 SWAP4 SUB PUSH2 0xB7 JUMPI PUSH1 0x64 CALLDATALOAD PUSH1 0xFF DUP2 AND DUP1 SWAP2 SUB PUSH2 0xB7 JUMPI PUSH1 0x84 CALLDATALOAD PUSH1 0xFF DUP2 AND DUP1 SWAP2 SUB PUSH2 0xB7 JUMPI PUSH2 0x7AE PUSH2 0x1103 JUMP JUMPDEST PUSH2 0x7C3 PUSH1 0x1 DUP1 PUSH1 0xA0 SHL SUB PUSH1 0x0 SLOAD AND CALLER EQ PUSH2 0x18E3 JUMP JUMPDEST PUSH1 0x24 CALLDATALOAD ISZERO PUSH2 0xB6B JUMPI PUSH1 0xC8 DUP7 GT PUSH2 0xB32 JUMPI DUP3 ISZERO PUSH2 0xAED JUMPI PUSH1 0x64 DUP3 GT ISZERO DUP1 PUSH2 0xADF JUMPI JUMPDEST ISZERO PUSH2 0xA9A JUMPI PUSH2 0x7F4 PUSH1 0x1 SLOAD PUSH2 0x1818 JUMP JUMPDEST SWAP1 DUP2 PUSH1 0x1 SSTORE PUSH1 0x40 MLOAD SWAP3 PUSH2 0x806 DUP5 PUSH2 0x114D JUMP JUMPDEST DUP3 DUP5 MSTORE PUSH2 0x814 CALLDATASIZE DUP8 DUP10 PUSH2 0x13F0 JUMP JUMPDEST SWAP8 PUSH1 0x20 DUP6 ADD SWAP9 DUP10 MSTORE PUSH1 0x40 DUP6 ADD SWAP1 PUSH1 0x24 CALLDATALOAD DUP3 MSTORE PUSH1 0x60 DUP7 ADD MSTORE PUSH1 0x80 DUP6 ADD SWAP6 DUP7 MSTORE PUSH1 0xA0 DUP6 ADD SWAP2 DUP3 MSTORE PUSH1 0xFF PUSH1 0xC0 DUP7 ADD SWAP4 AND DUP4 MSTORE PUSH1 0xE0 DUP6 ADD SWAP4 PUSH1 0x1 DUP6 MSTORE PUSH1 0x0 PUSH2 0x100 DUP8 ADD MSTORE PUSH1 0x0 MSTORE PUSH1 0x2 PUSH1 0x20 MSTORE PUSH1 0x40 PUSH1 0x0 KECCAK256 SWAP9 DUP6 MLOAD DUP11 SSTORE MLOAD DUP1 MLOAD SWAP1 PUSH1 0x1 PUSH1 0x1 PUSH1 0x40 SHL SUB DUP3 GT PUSH2 0xA84 JUMPI PUSH2 0x892 DUP3 DUP13 PUSH1 0x1 PUSH2 0x88B DUP2 DUP4 ADD SLOAD PUSH2 0x1113 JUMP JUMPDEST SWAP2 ADD PUSH2 0x1427 JUMP JUMPDEST PUSH1 0x20 SWAP1 PUSH1 0x1F DUP4 GT PUSH1 0x1 EQ PUSH2 0x9DD JUMPI SWAP4 PUSH2 0x935 PUSH1 0xFF PUSH1 0x3 PUSH32 0xCD613ED337E0507220DAE4EE9A4ABC53280C43016D259A8EA66BF5E8BFE57B87 SWAP15 PUSH1 0x80 SWAP14 SWAP13 SWAP12 SWAP10 SWAP8 PUSH2 0x8FD DUP9 PUSH2 0x94D SWAP10 DUP7 SWAP10 PUSH2 0x100 SWAP16 SWAP14 PUSH1 0x0 SWAP3 PUSH2 0x9D2 JUMPI JUMPDEST POP POP DUP2 PUSH1 0x1 SHL SWAP2 PUSH1 0x0 NOT SWAP1 PUSH1 0x3 SHL SHR NOT AND OR SWAP1 JUMP JUMPDEST PUSH1 0x1 DUP4 ADD SSTORE JUMPDEST MLOAD PUSH1 0x2 DUP3 ADD SSTORE ADD SWAP10 DUP2 DUP1 PUSH1 0x60 DUP12 ADD MLOAD AND AND DUP3 NOT DUP13 SLOAD AND OR DUP12 SSTORE MLOAD AND DUP10 SWAP1 PUSH2 0xFF00 DUP3 SLOAD SWAP2 PUSH1 0x8 SHL AND SWAP1 PUSH2 0xFF00 NOT AND OR SWAP1 SSTORE JUMP JUMPDEST MLOAD DUP8 SLOAD PUSH3 0xFF0000 NOT AND SWAP2 AND PUSH1 0x10 SHL PUSH3 0xFF0000 AND OR DUP7 SSTORE JUMP JUMPDEST MLOAD SWAP1 PUSH4 0xFF000000 PUSH5 0xFF00000000 DUP7 SLOAD SWAP3 MLOAD ISZERO ISZERO PUSH1 0x20 SHL AND SWAP3 PUSH1 0x18 SHL AND SWAP1 PUSH5 0xFFFF000000 NOT AND OR OR DUP4 SSTORE ADD MLOAD ISZERO ISZERO PUSH6 0xFF0000000000 DUP3 SLOAD SWAP2 PUSH1 0x28 SHL AND SWAP1 PUSH6 0xFF0000000000 NOT AND OR SWAP1 SSTORE PUSH1 0x1 SLOAD SWAP1 DUP1 PUSH1 0x40 MLOAD SWAP5 DUP6 SWAP4 DUP5 MSTORE PUSH1 0x60 PUSH1 0x20 DUP6 ADD MSTORE DUP2 PUSH1 0x60 DUP6 ADD MSTORE DUP5 DUP5 ADD CALLDATACOPY PUSH1 0x0 DUP3 DUP3 ADD DUP5 ADD MSTORE PUSH1 0x24 CALLDATALOAD PUSH1 0x40 DUP4 ADD MSTORE PUSH1 0x1F ADD PUSH1 0x1F NOT AND DUP2 ADD SUB ADD SWAP1 LOG1 STOP JUMPDEST ADD MLOAD SWAP1 POP CODESIZE DUP1 PUSH2 0x8E8 JUMP JUMPDEST SWAP1 PUSH1 0x1 DUP13 ADD PUSH1 0x0 MSTORE DUP1 PUSH1 0x0 KECCAK256 SWAP2 PUSH1 0x0 JUMPDEST PUSH1 0x1F NOT DUP6 AND DUP2 LT PUSH2 0xA6C JUMPI POP PUSH1 0xFF PUSH1 0x3 PUSH32 0xCD613ED337E0507220DAE4EE9A4ABC53280C43016D259A8EA66BF5E8BFE57B87 SWAP15 PUSH1 0x80 SWAP14 SWAP13 SWAP12 SWAP10 SWAP8 PUSH1 0x1 DUP9 DUP6 SWAP9 PUSH2 0x100 SWAP15 SWAP13 SWAP9 PUSH2 0x935 SWAP9 PUSH2 0x94D SWAP13 PUSH1 0x1F NOT DUP2 AND LT PUSH2 0xA54 JUMPI JUMPDEST POP POP POP DUP2 SHL ADD PUSH1 0x1 DUP4 ADD SSTORE PUSH2 0x903 JUMP JUMPDEST ADD MLOAD PUSH1 0x0 NOT DUP4 DUP9 SHL PUSH1 0xF8 AND SHR NOT AND SWAP1 SSTORE CODESIZE DUP1 DUP1 PUSH2 0xA44 JUMP JUMPDEST SWAP2 SWAP3 PUSH1 0x20 PUSH1 0x1 DUP2 SWAP3 DUP7 DUP6 ADD MLOAD DUP2 SSTORE ADD SWAP5 ADD SWAP3 ADD PUSH2 0x9ED JUMP JUMPDEST PUSH4 0x4E487B71 PUSH1 0xE0 SHL PUSH1 0x0 MSTORE PUSH1 0x41 PUSH1 0x4 MSTORE PUSH1 0x24 PUSH1 0x0 REVERT JUMPDEST PUSH1 0x40 MLOAD PUSH3 0x461BCD PUSH1 0xE5 SHL DUP2 MSTORE PUSH1 0x20 PUSH1 0x4 DUP3 ADD MSTORE PUSH1 0x19 PUSH1 0x24 DUP3 ADD MSTORE PUSH32 0x496E76616C69642070657263656E7461676520696E7075747300000000000000 PUSH1 0x44 DUP3 ADD MSTORE PUSH1 0x64 SWAP1 REVERT JUMPDEST POP PUSH1 0x64 PUSH1 0xFF DUP3 AND GT ISZERO PUSH2 0x7E4 JUMP JUMPDEST PUSH1 0x40 MLOAD PUSH3 0x461BCD PUSH1 0xE5 SHL DUP2 MSTORE PUSH1 0x20 PUSH1 0x4 DUP3 ADD MSTORE PUSH1 0x17 PUSH1 0x24 DUP3 ADD MSTORE PUSH32 0x546F74616C207365617473206D757374206265203E2030000000000000000000 PUSH1 0x44 DUP3 ADD MSTORE PUSH1 0x64 SWAP1 REVERT JUMPDEST PUSH1 0x40 MLOAD PUSH3 0x461BCD PUSH1 0xE5 SHL DUP2 MSTORE PUSH1 0x20 PUSH1 0x4 DUP3 ADD MSTORE PUSH1 0x11 PUSH1 0x24 DUP3 ADD MSTORE PUSH17 0x496E76616C6964206D696E2073636F7265 PUSH1 0x78 SHL PUSH1 0x44 DUP3 ADD MSTORE PUSH1 0x64 SWAP1 REVERT JUMPDEST PUSH1 0x40 MLOAD PUSH3 0x461BCD PUSH1 0xE5 SHL DUP2 MSTORE PUSH1 0x20 PUSH1 0x4 DUP3 ADD MSTORE PUSH1 0x12 PUSH1 0x24 DUP3 ADD MSTORE PUSH18 0x416D6F756E74206D757374206265203E203 PUSH1 0x74 SHL PUSH1 0x44 DUP3 ADD MSTORE PUSH1 0x64 SWAP1 REVERT JUMPDEST CALLVALUE PUSH2 0xB7 JUMPI PUSH1 0x20 CALLDATASIZE PUSH1 0x3 NOT ADD SLT PUSH2 0xB7 JUMPI PUSH1 0x4 CALLDATALOAD PUSH1 0x0 SWAP1 DUP2 MSTORE PUSH1 0x3 PUSH1 0x20 MSTORE PUSH1 0x40 DUP2 KECCAK256 DUP1 SLOAD SWAP1 DUP3 JUMPDEST DUP3 DUP2 LT PUSH2 0xCD1 JUMPI POP PUSH2 0xBDD DUP4 PUSH2 0x1827 JUMP JUMPDEST SWAP3 PUSH2 0xBEB PUSH1 0x40 MLOAD SWAP5 DUP6 PUSH2 0x1169 JUMP JUMPDEST DUP1 DUP5 MSTORE PUSH2 0xBFA PUSH1 0x1F NOT SWAP2 PUSH2 0x1827 JUMP JUMPDEST ADD PUSH1 0x0 JUMPDEST DUP2 DUP2 LT PUSH2 0xC7B JUMPI POP POP PUSH1 0x0 DUP1 JUMPDEST DUP4 DUP2 LT PUSH2 0xC20 JUMPI PUSH1 0x40 MLOAD DUP1 PUSH2 0x21C DUP8 DUP3 PUSH2 0x126F JUMP JUMPDEST DUP1 PUSH1 0xFF PUSH1 0x5 PUSH2 0xC31 PUSH1 0x1 SWAP5 DUP8 PUSH2 0x135E JUMP JUMPDEST POP ADD SLOAD PUSH1 0x18 SHR AND PUSH2 0xC43 JUMPI JUMPDEST ADD PUSH2 0xC0B JUMP JUMPDEST PUSH2 0xC75 PUSH2 0xC50 DUP3 DUP7 PUSH2 0x135E JUMP JUMPDEST POP SWAP4 PUSH2 0xC64 PUSH2 0xC5E DUP3 PUSH2 0x1818 JUMP JUMPDEST SWAP6 PUSH2 0x1852 JUMP JUMPDEST PUSH2 0xC6E DUP3 DUP11 PUSH2 0x183E JUMP JUMPDEST MSTORE DUP8 PUSH2 0x183E JUMP JUMPDEST POP PUSH2 0xC3D JUMP JUMPDEST PUSH1 0x20 SWAP1 PUSH1 0x40 MLOAD PUSH2 0xC8A DUP2 PUSH2 0x114D JUMP JUMPDEST PUSH1 0x0 DUP2 MSTORE PUSH1 0x60 DUP4 DUP3 ADD MSTORE PUSH1 0x60 PUSH1 0x40 DUP3 ADD MSTORE PUSH1 0x60 DUP1 DUP3 ADD MSTORE PUSH1 0x60 PUSH1 0x80 DUP3 ADD MSTORE PUSH1 0x0 PUSH1 0xA0 DUP3 ADD MSTORE PUSH1 0x0 PUSH1 0xC0 DUP3 ADD MSTORE PUSH1 0x0 PUSH1 0xE0 DUP3 ADD MSTORE PUSH1 0x0 PUSH2 0x100 DUP3 ADD MSTORE DUP3 DUP3 DUP9 ADD ADD MSTORE ADD PUSH2 0xBFE JUMP JUMPDEST PUSH1 0xFF PUSH1 0x5 PUSH2 0xCDF DUP4 DUP6 PUSH2 0x135E JUMP JUMPDEST POP ADD SLOAD PUSH1 0x18 SHR AND PUSH2 0xCF3 JUMPI JUMPDEST PUSH1 0x1 ADD PUSH2 0xBCC JUMP JUMPDEST SWAP3 PUSH2 0xCFF PUSH1 0x1 SWAP2 PUSH2 0x1818 JUMP JUMPDEST SWAP4 SWAP1 POP PUSH2 0xCEB JUMP JUMPDEST CALLVALUE PUSH2 0xB7 JUMPI PUSH1 0x20 CALLDATASIZE PUSH1 0x3 NOT ADD SLT PUSH2 0xB7 JUMPI PUSH1 0x4 CALLDATALOAD PUSH1 0x0 MSTORE PUSH1 0x2 PUSH1 0x20 MSTORE PUSH1 0x40 PUSH1 0x0 KECCAK256 DUP1 SLOAD PUSH2 0xD36 PUSH1 0x1 DUP4 ADD PUSH2 0x118A JUMP JUMPDEST SWAP2 PUSH1 0xFF PUSH1 0x3 PUSH1 0x2 DUP4 ADD SLOAD SWAP3 ADD SLOAD PUSH2 0xD61 PUSH1 0x40 MLOAD SWAP6 DUP7 SWAP6 DUP7 MSTORE PUSH2 0x120 PUSH1 0x20 DUP8 ADD MSTORE PUSH2 0x120 DUP7 ADD SWAP1 PUSH2 0x122E JUMP JUMPDEST SWAP3 PUSH1 0x40 DUP6 ADD MSTORE DUP2 DUP2 AND PUSH1 0x60 DUP6 ADD MSTORE DUP2 DUP2 PUSH1 0x8 SHR AND PUSH1 0x80 DUP6 ADD MSTORE DUP2 DUP2 PUSH1 0x10 SHR AND PUSH1 0xA0 DUP6 ADD MSTORE DUP2 DUP2 PUSH1 0x18 SHR AND PUSH1 0xC0 DUP6 ADD MSTORE DUP2 DUP2 PUSH1 0x20 SHR AND ISZERO ISZERO PUSH1 0xE0 DUP6 ADD MSTORE PUSH1 0x28 SHR AND ISZERO ISZERO PUSH2 0x100 DUP4 ADD MSTORE SUB SWAP1 RETURN JUMPDEST CALLVALUE PUSH2 0xB7 JUMPI PUSH1 0xE0 CALLDATASIZE PUSH1 0x3 NOT ADD SLT PUSH2 0xB7 JUMPI PUSH1 0x4 CALLDATALOAD PUSH1 0x24 CALLDATALOAD PUSH1 0x1 PUSH1 0x1 PUSH1 0x40 SHL SUB DUP2 GT PUSH2 0xB7 JUMPI PUSH2 0xDE0 SWAP1 CALLDATASIZE SWAP1 PUSH1 0x4 ADD PUSH2 0x10D6 JUMP JUMPDEST SWAP2 SWAP1 PUSH1 0x44 CALLDATALOAD PUSH1 0x1 PUSH1 0x1 PUSH1 0x40 SHL SUB DUP2 GT PUSH2 0xB7 JUMPI PUSH2 0xE01 SWAP1 CALLDATASIZE SWAP1 PUSH1 0x4 ADD PUSH2 0x10D6 JUMP JUMPDEST SWAP1 PUSH1 0x64 CALLDATALOAD PUSH1 0x1 PUSH1 0x1 PUSH1 0x40 SHL SUB DUP2 GT PUSH2 0xB7 JUMPI PUSH2 0xE21 SWAP1 CALLDATASIZE SWAP1 PUSH1 0x4 ADD PUSH2 0x10D6 JUMP JUMPDEST SWAP1 PUSH1 0x84 CALLDATALOAD PUSH1 0x1 PUSH1 0x1 PUSH1 0x40 SHL SUB DUP2 GT PUSH2 0xB7 JUMPI PUSH2 0xE41 SWAP1 CALLDATASIZE SWAP1 PUSH1 0x4 ADD PUSH2 0x10D6 JUMP JUMPDEST SWAP1 SWAP2 PUSH2 0xE4B PUSH2 0x1103 JUMP JUMPDEST SWAP4 PUSH1 0xC4 CALLDATALOAD SWAP6 PUSH1 0xFF DUP8 AND DUP1 SWAP8 SUB PUSH2 0xB7 JUMPI DUP10 PUSH1 0x0 MSTORE PUSH1 0x2 PUSH1 0x20 MSTORE PUSH1 0x3 PUSH1 0x40 PUSH1 0x0 KECCAK256 ADD SLOAD SWAP6 PUSH2 0xE7D PUSH1 0xFF DUP9 PUSH1 0x20 SHR AND PUSH2 0x1390 JUMP JUMPDEST PUSH1 0x0 DUP12 DUP2 MSTORE PUSH1 0x4 PUSH1 0x20 SWAP1 DUP2 MSTORE PUSH1 0x40 DUP1 DUP4 KECCAK256 CALLER DUP5 MSTORE SWAP1 SWAP2 MSTORE SWAP1 KECCAK256 SLOAD PUSH1 0xFF AND PUSH2 0x109F JUMPI PUSH1 0xFF AND SWAP6 PUSH1 0x64 DUP8 GT ISZERO DUP1 PUSH2 0x1094 JUMPI JUMPDEST ISZERO PUSH2 0x1058 JUMPI PUSH1 0xFF DUP2 PUSH1 0x10 SHR AND DUP8 LT PUSH2 0x1013 JUMPI PUSH1 0x18 SHR PUSH1 0xFF AND DUP8 LT PUSH2 0xFD6 JUMPI DUP7 DUP7 ADD SWAP8 PUSH1 0xFF DUP10 GT PUSH2 0x461 JUMPI DUP11 PUSH1 0x0 MSTORE PUSH1 0x3 PUSH1 0x20 MSTORE PUSH1 0x40 PUSH1 0x0 KECCAK256 SWAP10 PUSH1 0x40 MLOAD SWAP13 PUSH2 0xEF3 DUP15 PUSH2 0x114D JUMP JUMPDEST DUP14 CALLER SWAP1 MSTORE CALLDATASIZE SWAP1 PUSH2 0xF02 SWAP3 PUSH2 0x13F0 JUMP JUMPDEST PUSH1 0x20 DUP14 ADD MSTORE CALLDATASIZE SWAP1 PUSH2 0xF12 SWAP3 PUSH2 0x13F0 JUMP JUMPDEST PUSH1 0x40 DUP12 ADD MSTORE CALLDATASIZE SWAP1 PUSH2 0xF22 SWAP3 PUSH2 0x13F0 JUMP JUMPDEST PUSH1 0x60 DUP10 ADD MSTORE CALLDATASIZE SWAP1 PUSH2 0xF32 SWAP3 PUSH2 0x13F0 JUMP JUMPDEST PUSH1 0x80 DUP8 ADD MSTORE PUSH1 0xA0 DUP7 ADD MSTORE PUSH1 0xC0 DUP6 ADD MSTORE PUSH1 0xFF AND SWAP3 DUP4 PUSH1 0xE0 DUP3 ADD MSTORE PUSH2 0x100 DUP2 ADD PUSH1 0x0 SWAP1 MSTORE DUP2 SLOAD SWAP2 PUSH9 0x10000000000000000 DUP4 LT ISZERO PUSH2 0xA84 JUMPI DUP3 PUSH2 0x350 SWAP2 PUSH1 0x1 PUSH2 0xF7B SWAP6 ADD DUP2 SSTORE PUSH2 0x135E JUMP JUMPDEST DUP1 PUSH1 0x0 MSTORE PUSH1 0x4 PUSH1 0x20 MSTORE PUSH1 0x40 PUSH1 0x0 KECCAK256 PUSH1 0x1 DUP1 PUSH1 0xA0 SHL SUB CALLER AND PUSH1 0x0 MSTORE PUSH1 0x20 MSTORE PUSH1 0x40 PUSH1 0x0 KECCAK256 PUSH1 0x1 PUSH1 0xFF NOT DUP3 SLOAD AND OR SWAP1 SSTORE PUSH1 0x40 MLOAD SWAP2 DUP3 MSTORE PUSH32 0xE16892D79BF1BDA42D2F7448597E39C3C9575CFA509F0BA25F6EA6D9E66B6D79 PUSH1 0x20 CALLER SWAP4 LOG3 STOP JUMPDEST PUSH1 0x40 MLOAD PUSH3 0x461BCD PUSH1 0xE5 SHL DUP2 MSTORE PUSH1 0x20 PUSH1 0x4 DUP3 ADD MSTORE PUSH1 0x15 PUSH1 0x24 DUP3 ADD MSTORE PUSH21 0x13585C9ADCC818995B1BDDC81D1A1C995CDA1BDB19 PUSH1 0x5A SHL PUSH1 0x44 DUP3 ADD MSTORE PUSH1 0x64 SWAP1 REVERT JUMPDEST PUSH1 0x40 MLOAD PUSH3 0x461BCD PUSH1 0xE5 SHL DUP2 MSTORE PUSH1 0x20 PUSH1 0x4 DUP3 ADD MSTORE PUSH1 0x1A PUSH1 0x24 DUP3 ADD MSTORE PUSH32 0x417474656E64616E63652062656C6F77207468726573686F6C64000000000000 PUSH1 0x44 DUP3 ADD MSTORE PUSH1 0x64 SWAP1 REVERT JUMPDEST PUSH1 0x40 MLOAD PUSH3 0x461BCD PUSH1 0xE5 SHL DUP2 MSTORE PUSH1 0x20 PUSH1 0x4 DUP3 ADD MSTORE PUSH1 0x14 PUSH1 0x24 DUP3 ADD MSTORE PUSH20 0x496E76616C696420696E7075742076616C756573 PUSH1 0x60 SHL PUSH1 0x44 DUP3 ADD MSTORE PUSH1 0x64 SWAP1 REVERT JUMPDEST POP PUSH1 0x64 DUP9 GT ISZERO PUSH2 0xEAD JUMP JUMPDEST PUSH1 0x40 MLOAD PUSH3 0x461BCD PUSH1 0xE5 SHL DUP2 MSTORE PUSH1 0x20 PUSH1 0x4 DUP3 ADD MSTORE PUSH1 0xF PUSH1 0x24 DUP3 ADD MSTORE PUSH15 0x105B1C9958591E48185C1C1B1A5959 PUSH1 0x8A SHL PUSH1 0x44 DUP3 ADD MSTORE PUSH1 0x64 SWAP1 REVERT JUMPDEST SWAP2 DUP2 PUSH1 0x1F DUP5 ADD SLT ISZERO PUSH2 0xB7 JUMPI DUP3 CALLDATALOAD SWAP2 PUSH1 0x1 PUSH1 0x1 PUSH1 0x40 SHL SUB DUP4 GT PUSH2 0xB7 JUMPI PUSH1 0x20 DUP4 DUP2 DUP7 ADD SWAP6 ADD ADD GT PUSH2 0xB7 JUMPI JUMP JUMPDEST PUSH1 0xA4 CALLDATALOAD SWAP1 PUSH1 0xFF DUP3 AND DUP3 SUB PUSH2 0xB7 JUMPI JUMP JUMPDEST SWAP1 PUSH1 0x1 DUP3 DUP2 SHR SWAP3 AND DUP1 ISZERO PUSH2 0x1143 JUMPI JUMPDEST PUSH1 0x20 DUP4 LT EQ PUSH2 0x112D JUMPI JUMP JUMPDEST PUSH4 0x4E487B71 PUSH1 0xE0 SHL PUSH1 0x0 MSTORE PUSH1 0x22 PUSH1 0x4 MSTORE PUSH1 0x24 PUSH1 0x0 REVERT JUMPDEST SWAP2 PUSH1 0x7F AND SWAP2 PUSH2 0x1122 JUMP JUMPDEST PUSH2 0x120 DUP2 ADD SWAP1 DUP2 LT PUSH1 0x1 PUSH1 0x1 PUSH1 0x40 SHL SUB DUP3 GT OR PUSH2 0xA84 JUMPI PUSH1 0x40 MSTORE JUMP JUMPDEST SWAP1 PUSH1 0x1F DUP1 NOT SWAP2 ADD AND DUP2 ADD SWAP1 DUP2 LT PUSH1 0x1 PUSH1 0x1 PUSH1 0x40 SHL SUB DUP3 GT OR PUSH2 0xA84 JUMPI PUSH1 0x40 MSTORE JUMP JUMPDEST SWAP1 PUSH1 0x40 MLOAD SWAP2 DUP3 PUSH1 0x0 DUP3 SLOAD SWAP3 PUSH2 0x119E DUP5 PUSH2 0x1113 JUMP JUMPDEST DUP1 DUP5 MSTORE SWAP4 PUSH1 0x1 DUP2 AND SWAP1 DUP2 ISZERO PUSH2 0x120C JUMPI POP PUSH1 0x1 EQ PUSH2 0x11C5 JUMPI JUMPDEST POP PUSH2 0x11C3 SWAP3 POP SUB DUP4 PUSH2 0x1169 JUMP JUMPDEST JUMP JUMPDEST SWAP1 POP PUSH1 0x0 SWAP3 SWAP2 SWAP3 MSTORE PUSH1 0x20 PUSH1 0x0 KECCAK256 SWAP1 PUSH1 0x0 SWAP2 JUMPDEST DUP2 DUP4 LT PUSH2 0x11F0 JUMPI POP POP SWAP1 PUSH1 0x20 PUSH2 0x11C3 SWAP3 DUP3 ADD ADD CODESIZE PUSH2 0x11B6 JUMP JUMPDEST PUSH1 0x20 SWAP2 SWAP4 POP DUP1 PUSH1 0x1 SWAP2 SLOAD DUP4 DUP6 DUP10 ADD ADD MSTORE ADD SWAP2 ADD SWAP1 SWAP2 DUP5 SWAP3 PUSH2 0x11D7 JUMP JUMPDEST SWAP1 POP PUSH1 0x20 SWAP3 POP PUSH2 0x11C3 SWAP5 SWAP2 POP PUSH1 0xFF NOT AND DUP3 DUP5 ADD MSTORE ISZERO ISZERO PUSH1 0x5 SHL DUP3 ADD ADD CODESIZE PUSH2 0x11B6 JUMP JUMPDEST SWAP2 SWAP1 DUP3 MLOAD SWAP3 DUP4 DUP3 MSTORE PUSH1 0x0 JUMPDEST DUP5 DUP2 LT PUSH2 0x125A JUMPI POP POP DUP3 PUSH1 0x0 PUSH1 0x20 DUP1 SWAP5 SWAP6 DUP5 ADD ADD MSTORE PUSH1 0x1F DUP1 NOT SWAP2 ADD AND ADD ADD SWAP1 JUMP JUMPDEST DUP1 PUSH1 0x20 DUP1 SWAP3 DUP5 ADD ADD MLOAD DUP3 DUP3 DUP7 ADD ADD MSTORE ADD PUSH2 0x1239 JUMP JUMPDEST PUSH1 0x20 DUP2 ADD PUSH1 0x20 DUP3 MSTORE DUP3 MLOAD DUP1 SWAP2 MSTORE PUSH1 0x40 DUP3 ADD SWAP2 PUSH1 0x20 PUSH1 0x40 DUP4 PUSH1 0x5 SHL DUP4 ADD ADD SWAP5 ADD SWAP3 PUSH1 0x0 SWAP2 JUMPDEST DUP4 DUP4 LT PUSH2 0x12A2 JUMPI POP POP POP POP POP SWAP1 JUMP JUMPDEST SWAP1 SWAP2 SWAP3 SWAP4 SWAP5 PUSH1 0x20 DUP1 PUSH1 0x1 SWAP3 PUSH1 0x3F NOT DUP6 DUP3 SUB ADD DUP7 MSTORE DUP9 MLOAD SWAP1 DUP5 DUP1 PUSH1 0xA0 SHL SUB DUP3 MLOAD AND DUP2 MSTORE PUSH2 0x100 DUP1 PUSH2 0x1320 PUSH2 0x130E PUSH2 0x12FC PUSH2 0x12EA DUP9 DUP9 ADD MLOAD PUSH2 0x120 DUP11 DUP10 ADD MSTORE PUSH2 0x120 DUP9 ADD SWAP1 PUSH2 0x122E JUMP JUMPDEST PUSH1 0x40 DUP9 ADD MLOAD DUP8 DUP3 SUB PUSH1 0x40 DUP10 ADD MSTORE PUSH2 0x122E JUMP JUMPDEST PUSH1 0x60 DUP8 ADD MLOAD DUP7 DUP3 SUB PUSH1 0x60 DUP9 ADD MSTORE PUSH2 0x122E JUMP JUMPDEST PUSH1 0x80 DUP7 ADD MLOAD DUP6 DUP3 SUB PUSH1 0x80 DUP8 ADD MSTORE PUSH2 0x122E JUMP JUMPDEST SWAP4 PUSH1 0xFF PUSH1 0xA0 DUP3 ADD MLOAD AND PUSH1 0xA0 DUP6 ADD MSTORE PUSH1 0xFF PUSH1 0xC0 DUP3 ADD MLOAD AND PUSH1 0xC0 DUP6 ADD MSTORE PUSH1 0xFF PUSH1 0xE0 DUP3 ADD MLOAD AND PUSH1 0xE0 DUP6 ADD MSTORE ADD MLOAD ISZERO ISZERO SWAP2 ADD MSTORE SWAP8 ADD SWAP4 ADD SWAP4 ADD SWAP2 SWAP4 SWAP3 SWAP1 PUSH2 0x1293 JUMP JUMPDEST DUP1 SLOAD DUP3 LT ISZERO PUSH2 0x137A JUMPI PUSH1 0x0 MSTORE PUSH1 0x6 PUSH1 0x20 PUSH1 0x0 KECCAK256 SWAP2 MUL ADD SWAP1 PUSH1 0x0 SWAP1 JUMP JUMPDEST PUSH4 0x4E487B71 PUSH1 0xE0 SHL PUSH1 0x0 MSTORE PUSH1 0x32 PUSH1 0x4 MSTORE PUSH1 0x24 PUSH1 0x0 REVERT JUMPDEST ISZERO PUSH2 0x1397 JUMPI JUMP JUMPDEST PUSH1 0x40 MLOAD PUSH3 0x461BCD PUSH1 0xE5 SHL DUP2 MSTORE PUSH1 0x20 PUSH1 0x4 DUP3 ADD MSTORE PUSH1 0x16 PUSH1 0x24 DUP3 ADD MSTORE PUSH22 0x5363686F6C617273686970206E6F7420616374697665 PUSH1 0x50 SHL PUSH1 0x44 DUP3 ADD MSTORE PUSH1 0x64 SWAP1 REVERT JUMPDEST PUSH1 0x1 PUSH1 0x1 PUSH1 0x40 SHL SUB DUP2 GT PUSH2 0xA84 JUMPI PUSH1 0x1F ADD PUSH1 0x1F NOT AND PUSH1 0x20 ADD SWAP1 JUMP JUMPDEST SWAP3 SWAP2 SWAP3 PUSH2 0x13FC DUP3 PUSH2 0x13D5 JUMP JUMPDEST SWAP2 PUSH2 0x140A PUSH1 0x40 MLOAD SWAP4 DUP5 PUSH2 0x1169 JUMP JUMPDEST DUP3 SWAP5 DUP2 DUP5 MSTORE DUP2 DUP4 ADD GT PUSH2 0xB7 JUMPI DUP3 DUP2 PUSH1 0x20 SWAP4 DUP5 PUSH1 0x0 SWAP7 ADD CALLDATACOPY ADD ADD MSTORE JUMP JUMPDEST PUSH1 0x1F DUP3 GT PUSH2 0x1434 JUMPI POP POP POP JUMP JUMPDEST PUSH1 0x0 MSTORE PUSH1 0x20 PUSH1 0x0 KECCAK256 SWAP1 PUSH1 0x20 PUSH1 0x1F DUP5 ADD PUSH1 0x5 SHR DUP4 ADD SWAP4 LT PUSH2 0x146F JUMPI JUMPDEST PUSH1 0x1F ADD PUSH1 0x5 SHR ADD SWAP1 JUMPDEST DUP2 DUP2 LT PUSH2 0x1463 JUMPI POP POP JUMP JUMPDEST PUSH1 0x0 DUP2 SSTORE PUSH1 0x1 ADD PUSH2 0x1458 JUMP JUMPDEST SWAP1 SWAP2 POP DUP2 SWAP1 PUSH2 0x144F JUMP JUMPDEST SWAP1 PUSH2 0x43F JUMPI DUP2 MLOAD DUP2 SLOAD PUSH1 0x1 PUSH1 0x1 PUSH1 0xA0 SHL SUB NOT AND PUSH1 0x1 PUSH1 0x1 PUSH1 0xA0 SHL SUB SWAP2 SWAP1 SWAP2 AND OR DUP2 SSTORE PUSH1 0x20 DUP3 ADD MLOAD DUP1 MLOAD PUSH1 0x1 DUP4 ADD SWAP2 PUSH1 0x1 PUSH1 0x1 PUSH1 0x40 SHL SUB DUP3 GT PUSH2 0xA84 JUMPI PUSH2 0x14C9 DUP3 PUSH2 0x14C3 DUP6 SLOAD PUSH2 0x1113 JUMP JUMPDEST DUP6 PUSH2 0x1427 JUMP JUMPDEST PUSH1 0x20 SWAP1 PUSH1 0x1F DUP4 GT PUSH1 0x1 EQ PUSH2 0x17B1 JUMPI PUSH2 0x14F9 SWAP3 SWAP2 PUSH1 0x0 SWAP2 DUP4 PUSH2 0x9D2 JUMPI POP POP DUP2 PUSH1 0x1 SHL SWAP2 PUSH1 0x0 NOT SWAP1 PUSH1 0x3 SHL SHR NOT AND OR SWAP1 JUMP JUMPDEST SWAP1 SSTORE JUMPDEST PUSH1 0x2 DUP2 ADD PUSH1 0x40 DUP4 ADD MLOAD DUP1 MLOAD SWAP1 PUSH1 0x1 PUSH1 0x1 PUSH1 0x40 SHL SUB DUP3 GT PUSH2 0xA84 JUMPI PUSH2 0x1524 DUP3 PUSH2 0x14C3 DUP6 SLOAD PUSH2 0x1113 JUMP JUMPDEST PUSH1 0x20 SWAP1 PUSH1 0x1F DUP4 GT PUSH1 0x1 EQ PUSH2 0x174A JUMPI PUSH2 0x1554 SWAP3 SWAP2 PUSH1 0x0 SWAP2 DUP4 PUSH2 0x9D2 JUMPI POP POP DUP2 PUSH1 0x1 SHL SWAP2 PUSH1 0x0 NOT SWAP1 PUSH1 0x3 SHL SHR NOT AND OR SWAP1 JUMP JUMPDEST SWAP1 SSTORE JUMPDEST PUSH1 0x3 DUP2 ADD PUSH1 0x60 DUP4 ADD MLOAD DUP1 MLOAD SWAP1 PUSH1 0x1 PUSH1 0x1 PUSH1 0x40 SHL SUB DUP3 GT PUSH2 0xA84 JUMPI PUSH2 0x157F DUP3 PUSH2 0x14C3 DUP6 SLOAD PUSH2 0x1113 JUMP JUMPDEST PUSH1 0x20 SWAP1 PUSH1 0x1F DUP4 GT PUSH1 0x1 EQ PUSH2 0x16E3 JUMPI PUSH2 0x15AF SWAP3 SWAP2 PUSH1 0x0 SWAP2 DUP4 PUSH2 0x9D2 JUMPI POP POP DUP2 PUSH1 0x1 SHL SWAP2 PUSH1 0x0 NOT SWAP1 PUSH1 0x3 SHL SHR NOT AND OR SWAP1 JUMP JUMPDEST SWAP1 SSTORE JUMPDEST PUSH1 0x4 DUP2 ADD PUSH1 0x80 DUP4 ADD MLOAD DUP1 MLOAD SWAP1 PUSH1 0x1 PUSH1 0x1 PUSH1 0x40 SHL SUB DUP3 GT PUSH2 0xA84 JUMPI PUSH2 0x15DA DUP3 PUSH2 0x14C3 DUP6 SLOAD PUSH2 0x1113 JUMP JUMPDEST PUSH1 0x20 SWAP1 PUSH1 0x1F DUP4 GT PUSH1 0x1 EQ PUSH2 0x1671 JUMPI SWAP3 PUSH2 0x1616 DUP4 PUSH1 0x5 SWAP5 PUSH2 0x11C3 SWAP9 SWAP8 SWAP5 PUSH2 0x100 SWAP8 PUSH1 0x0 SWAP3 PUSH2 0x9D2 JUMPI POP POP DUP2 PUSH1 0x1 SHL SWAP2 PUSH1 0x0 NOT SWAP1 PUSH1 0x3 SHL SHR NOT AND OR SWAP1 JUMP JUMPDEST SWAP1 SSTORE JUMPDEST PUSH1 0xA0 DUP5 ADD MLOAD SWAP2 ADD DUP1 SLOAD PUSH1 0xC0 DUP6 ADD MLOAD PUSH1 0xE0 DUP7 ADD MLOAD SWAP5 SWAP1 SWAP6 ADD MLOAD PUSH1 0x10 SWAP5 SWAP1 SWAP5 SHL PUSH3 0xFF0000 AND PUSH2 0xFF00 PUSH1 0x8 SWAP7 SWAP1 SWAP7 SHL SWAP6 SWAP1 SWAP6 AND PUSH1 0xFF SWAP1 SWAP4 AND PUSH4 0xFFFFFFFF NOT SWAP1 SWAP2 AND OR SWAP2 SWAP1 SWAP2 OR SWAP3 SWAP1 SWAP3 OR SWAP1 ISZERO ISZERO PUSH1 0x18 SHL PUSH4 0xFF000000 AND OR SWAP1 SSTORE JUMP JUMPDEST SWAP1 PUSH1 0x1F NOT DUP4 AND SWAP2 DUP5 PUSH1 0x0 MSTORE DUP2 PUSH1 0x0 KECCAK256 SWAP3 PUSH1 0x0 JUMPDEST DUP2 DUP2 LT PUSH2 0x16CB JUMPI POP SWAP4 PUSH2 0x11C3 SWAP8 SWAP7 SWAP4 PUSH2 0x100 SWAP7 SWAP4 PUSH1 0x1 SWAP4 DUP4 PUSH1 0x5 SWAP9 LT PUSH2 0x16B2 JUMPI JUMPDEST POP POP POP DUP2 SHL ADD SWAP1 SSTORE PUSH2 0x1619 JUMP JUMPDEST ADD MLOAD PUSH1 0x0 NOT PUSH1 0xF8 DUP5 PUSH1 0x3 SHL AND SHR NOT AND SWAP1 SSTORE CODESIZE DUP1 DUP1 PUSH2 0x16A5 JUMP JUMPDEST SWAP3 SWAP4 PUSH1 0x20 PUSH1 0x1 DUP2 SWAP3 DUP8 DUP7 ADD MLOAD DUP2 SSTORE ADD SWAP6 ADD SWAP4 ADD PUSH2 0x1684 JUMP JUMPDEST SWAP1 PUSH1 0x1F NOT DUP4 AND SWAP2 DUP5 PUSH1 0x0 MSTORE DUP2 PUSH1 0x0 KECCAK256 SWAP3 PUSH1 0x0 JUMPDEST DUP2 DUP2 LT PUSH2 0x1732 JUMPI POP SWAP1 DUP5 PUSH1 0x1 SWAP6 SWAP5 SWAP4 SWAP3 LT PUSH2 0x1719 JUMPI JUMPDEST POP POP POP DUP2 SHL ADD SWAP1 SSTORE PUSH2 0x15B2 JUMP JUMPDEST ADD MLOAD PUSH1 0x0 NOT PUSH1 0xF8 DUP5 PUSH1 0x3 SHL AND SHR NOT AND SWAP1 SSTORE CODESIZE DUP1 DUP1 PUSH2 0x170C JUMP JUMPDEST SWAP3 SWAP4 PUSH1 0x20 PUSH1 0x1 DUP2 SWAP3 DUP8 DUP7 ADD MLOAD DUP2 SSTORE ADD SWAP6 ADD SWAP4 ADD PUSH2 0x16F6 JUMP JUMPDEST SWAP1 PUSH1 0x1F NOT DUP4 AND SWAP2 DUP5 PUSH1 0x0 MSTORE DUP2 PUSH1 0x0 KECCAK256 SWAP3 PUSH1 0x0 JUMPDEST DUP2 DUP2 LT PUSH2 0x1799 JUMPI POP SWAP1 DUP5 PUSH1 0x1 SWAP6 SWAP5 SWAP4 SWAP3 LT PUSH2 0x1780 JUMPI JUMPDEST POP POP POP DUP2 SHL ADD SWAP1 SSTORE PUSH2 0x1557 JUMP JUMPDEST ADD MLOAD PUSH1 0x0 NOT PUSH1 0xF8 DUP5 PUSH1 0x3 SHL AND SHR NOT AND SWAP1 SSTORE CODESIZE DUP1 DUP1 PUSH2 0x1773 JUMP JUMPDEST SWAP3 SWAP4 PUSH1 0x20 PUSH1 0x1 DUP2 SWAP3 DUP8 DUP7 ADD MLOAD DUP2 SSTORE ADD SWAP6 ADD SWAP4 ADD PUSH2 0x175D JUMP JUMPDEST SWAP1 PUSH1 0x1F NOT DUP4 AND SWAP2 DUP5 PUSH1 0x0 MSTORE DUP2 PUSH1 0x0 KECCAK256 SWAP3 PUSH1 0x0 JUMPDEST DUP2 DUP2 LT PUSH2 0x1800 JUMPI POP SWAP1 DUP5 PUSH1 0x1 SWAP6 SWAP5 SWAP4 SWAP3 LT PUSH2 0x17E7 JUMPI JUMPDEST POP POP POP DUP2 SHL ADD SWAP1 SSTORE PUSH2 0x14FC JUMP JUMPDEST ADD MLOAD PUSH1 0x0 NOT PUSH1 0xF8 DUP5 PUSH1 0x3 SHL AND SHR NOT AND SWAP1 SSTORE CODESIZE DUP1 DUP1 PUSH2 0x17DA JUMP JUMPDEST SWAP3 SWAP4 PUSH1 0x20 PUSH1 0x1 DUP2 SWAP3 DUP8 DUP7 ADD MLOAD DUP2 SSTORE ADD SWAP6 ADD SWAP4 ADD PUSH2 0x17C4 JUMP JUMPDEST PUSH1 0x0 NOT DUP2 EQ PUSH2 0x461 JUMPI PUSH1 0x1 ADD SWAP1 JUMP JUMPDEST PUSH1 0x1 PUSH1 0x1 PUSH1 0x40 SHL SUB DUP2 GT PUSH2 0xA84 JUMPI PUSH1 0x5 SHL PUSH1 0x20 ADD SWAP1 JUMP JUMPDEST DUP1 MLOAD DUP3 LT ISZERO PUSH2 0x137A JUMPI PUSH1 0x20 SWAP2 PUSH1 0x5 SHL ADD ADD SWAP1 JUMP JUMPDEST SWAP1 PUSH1 0x40 MLOAD PUSH2 0x185F DUP2 PUSH2 0x114D JUMP JUMPDEST PUSH2 0x100 PUSH1 0xFF PUSH1 0x5 DUP4 SWAP6 PUSH1 0x1 DUP1 PUSH1 0xA0 SHL SUB DUP2 SLOAD AND DUP6 MSTORE PUSH2 0x1880 PUSH1 0x1 DUP3 ADD PUSH2 0x118A JUMP JUMPDEST PUSH1 0x20 DUP7 ADD MSTORE PUSH2 0x1891 PUSH1 0x2 DUP3 ADD PUSH2 0x118A JUMP JUMPDEST PUSH1 0x40 DUP7 ADD MSTORE PUSH2 0x18A2 PUSH1 0x3 DUP3 ADD PUSH2 0x118A JUMP JUMPDEST PUSH1 0x60 DUP7 ADD MSTORE PUSH2 0x18B3 PUSH1 0x4 DUP3 ADD PUSH2 0x118A JUMP JUMPDEST PUSH1 0x80 DUP7 ADD MSTORE ADD SLOAD DUP2 DUP2 AND PUSH1 0xA0 DUP6 ADD MSTORE DUP2 DUP2 PUSH1 0x8 SHR AND PUSH1 0xC0 DUP6 ADD MSTORE DUP2 DUP2 PUSH1 0x10 SHR AND PUSH1 0xE0 DUP6 ADD MSTORE PUSH1 0x18 SHR AND ISZERO ISZERO SWAP2 ADD MSTORE JUMP JUMPDEST ISZERO PUSH2 0x18EA JUMPI JUMP JUMPDEST PUSH1 0x40 MLOAD PUSH3 0x461BCD PUSH1 0xE5 SHL DUP2 MSTORE PUSH1 0x20 PUSH1 0x4 DUP3 ADD MSTORE PUSH1 0x22 PUSH1 0x24 DUP3 ADD MSTORE PUSH32 0x4F6E6C792061646D696E2063616E20706572666F726D20746869732061637469 PUSH1 0x44 DUP3 ADD MSTORE PUSH2 0x37B7 PUSH1 0xF1 SHL PUSH1 0x64 DUP3 ADD MSTORE PUSH1 0x84 SWAP1 REVERT JUMPDEST SWAP2 SWAP1 SWAP2 DUP3 DUP2 EQ PUSH2 0x1A17 JUMPI PUSH2 0x194E DUP4 SLOAD PUSH2 0x1113 JUMP JUMPDEST PUSH1 0x1 PUSH1 0x1 PUSH1 0x40 SHL SUB DUP2 GT PUSH2 0xA84 JUMPI PUSH2 0x1970 DUP2 PUSH2 0x196A DUP5 SLOAD PUSH2 0x1113 JUMP JUMPDEST DUP5 PUSH2 0x1427 JUMP JUMPDEST PUSH1 0x0 SWAP4 PUSH1 0x1F DUP3 GT PUSH1 0x1 EQ PUSH2 0x19B1 JUMPI PUSH2 0x19A2 SWAP3 SWAP4 SWAP5 DUP3 SWAP2 PUSH1 0x0 SWAP3 PUSH2 0x19A6 JUMPI POP POP DUP2 PUSH1 0x1 SHL SWAP2 PUSH1 0x0 NOT SWAP1 PUSH1 0x3 SHL SHR NOT AND OR SWAP1 JUMP JUMPDEST SWAP1 SSTORE JUMP JUMPDEST ADD SLOAD SWAP1 POP CODESIZE DUP1 PUSH2 0x8E8 JUMP JUMPDEST DUP5 MSTORE PUSH1 0x20 DUP1 DUP6 KECCAK256 DUP4 DUP7 MSTORE SWAP1 DUP6 KECCAK256 SWAP1 SWAP5 PUSH1 0x1F NOT DUP4 AND DUP2 JUMPDEST DUP2 DUP2 LT PUSH2 0x19FF JUMPI POP SWAP6 DUP4 PUSH1 0x1 SWAP6 SWAP7 SWAP8 LT PUSH2 0x19E6 JUMPI JUMPDEST POP POP POP DUP2 SHL ADD SWAP1 SSTORE JUMP JUMPDEST ADD SLOAD PUSH1 0x0 NOT PUSH1 0xF8 DUP5 PUSH1 0x3 SHL AND SHR NOT AND SWAP1 SSTORE CODESIZE DUP1 DUP1 PUSH2 0x19DC JUMP JUMPDEST SWAP2 SWAP3 PUSH1 0x1 DUP1 PUSH1 0x20 SWAP3 DUP7 DUP12 ADD SLOAD DUP2 SSTORE ADD SWAP5 ADD SWAP3 ADD PUSH2 0x19C7 JUMP JUMPDEST POP SWAP1 POP JUMP INVALID LOG2 PUSH5 0x6970667358 0x22 SLT KECCAK256 0xF8 CALLCODE 0xC6 PUSH10 0xC2AFC6C6300C852862AB 0xF7 0xF6 LOG4 PUSH0 INVALID STATICCALL 0xF6 0xB2 PUSH13 0xE4491B11C5A68A92E164736F6C PUSH4 0x4300081C STOP CALLER "
        },
        "methodIdentifiers": {
          "addScholarship(string,uint256,uint8,uint8,uint8,uint8)": "6fb7c14e",
          "admin()": "f851a440",
          "applyForScholarship(uint256,string,string,string,string,uint8,uint8)": "2863ab69",
          "getApplications(uint256)": "bc8c937d",
          "getSelectedApplicants(uint256)": "54613f30",
          "hasApplied(uint256,address)": "a39bf544",
          "scholarshipApplications(uint256,uint256)": "e6e43ac3",
          "scholarshipCounter()": "84031d08",
          "scholarships(uint256)": "39dc58c6",
          "selectTopApplicants(uint256)": "b629dc1f"
        }
      }
    }
  }
}