{
  "_format": "hh-sol-artifact-1",
  "contractName": "ScholarDist",
  "sourceName": "contracts/Scholarship.sol",
  "abi": [
    {
      "inputs": [],
      "stateMutability": "nonpayable",
      "type": "constructor"
    },
    {
      "anonymous": false,
      "inputs": [
        {
          "indexed": true,
          "internalType": "address",
          "name": "student",
          "type": "address"
        },
        {
          "indexed": false,
          "internalType": "uint8",
          "name": "score",
          "type": "uint8"
        }
      ],
      "name": "Applied",
      "type": "event"
    },
    {
      "anonymous": false,
      "inputs": [
        {
          "indexed": true,
          "internalType": "address",
          "name": "student",
          "type": "address"
        },
        {
          "indexed": false,
          "internalType": "uint256",
          "name": "amount",
          "type": "uint256"
        }
      ],
      "name": "Disbursed",
      "type": "event"
    },
    {
      "anonymous": false,
      "inputs": [
        {
          "indexed": false,
          "internalType": "string",
          "name": "name",
          "type": "string"
        },
        {
          "indexed": false,
          "internalType": "uint256",
          "name": "amount",
          "type": "uint256"
        },
        {
          "indexed": false,
          "internalType": "uint8",
          "name": "minScore",
          "type": "uint8"
        },
        {
          "indexed": false,
          "internalType": "uint8",
          "name": "totalSeats",
          "type": "uint8"
        },
        {
          "indexed": false,
          "internalType": "uint8",
          "name": "requiredAttendance",
          "type": "uint8"
        },
        {
          "indexed": false,
          "internalType": "uint8",
          "name": "requiredAcademic",
          "type": "uint8"
        }
      ],
      "name": "ScholarshipCreated",
      "type": "event"
    },
    {
      "inputs": [
        {
          "internalType": "string",
          "name": "_name",
          "type": "string"
        },
        {
          "internalType": "uint256",
          "name": "_amount",
          "type": "uint256"
        },
        {
          "internalType": "uint8",
          "name": "_minScore",
          "type": "uint8"
        },
        {
          "internalType": "uint8",
          "name": "_totalSeats",
          "type": "uint8"
        },
        {
          "internalType": "uint8",
          "name": "_requiredAttendance",
          "type": "uint8"
        },
        {
          "internalType": "uint8",
          "name": "_requiredAcademic",
          "type": "uint8"
        }
      ],
      "name": "addScholarship",
      "outputs": [],
      "stateMutability": "nonpayable",
      "type": "function"
    },
    {
      "inputs": [],
      "name": "admin",
      "outputs": [
        {
          "internalType": "address",
          "name": "",
          "type": "address"
        }
      ],
      "stateMutability": "view",
      "type": "function"
    },
    {
      "inputs": [
        {
          "internalType": "uint256",
          "name": "",
          "type": "uint256"
        }
      ],
      "name": "applications",
      "outputs": [
        {
          "internalType": "address",
          "name": "applicant",
          "type": "address"
        },
        {
          "internalType": "string",
          "name": "studentName",
          "type": "string"
        },
        {
          "internalType": "string",
          "name": "regNumber",
          "type": "string"
        },
        {
          "internalType": "string",
          "name": "college",
          "type": "string"
        },
        {
          "internalType": "string",
          "name": "course",
          "type": "string"
        },
        {
          "internalType": "uint8",
          "name": "attendancePercent",
          "type": "uint8"
        },
        {
          "internalType": "uint8",
          "name": "academicMark",
          "type": "uint8"
        },
        {
          "internalType": "uint8",
          "name": "score",
          "type": "uint8"
        },
        {
          "internalType": "bool",
          "name": "received",
          "type": "bool"
        }
      ],
      "stateMutability": "view",
      "type": "function"
    },
    {
      "inputs": [
        {
          "internalType": "string",
          "name": "_studentName",
          "type": "string"
        },
        {
          "internalType": "string",
          "name": "_regNumber",
          "type": "string"
        },
        {
          "internalType": "string",
          "name": "_college",
          "type": "string"
        },
        {
          "internalType": "string",
          "name": "_course",
          "type": "string"
        },
        {
          "internalType": "uint8",
          "name": "_attendancePercent",
          "type": "uint8"
        },
        {
          "internalType": "uint8",
          "name": "_academicMark",
          "type": "uint8"
        }
      ],
      "name": "applyForScholarship",
      "outputs": [],
      "stateMutability": "nonpayable",
      "type": "function"
    },
    {
      "inputs": [],
      "name": "getApplications",
      "outputs": [
        {
          "components": [
            {
              "internalType": "address",
              "name": "applicant",
              "type": "address"
            },
            {
              "internalType": "string",
              "name": "studentName",
              "type": "string"
            },
            {
              "internalType": "string",
              "name": "regNumber",
              "type": "string"
            },
            {
              "internalType": "string",
              "name": "college",
              "type": "string"
            },
            {
              "internalType": "string",
              "name": "course",
              "type": "string"
            },
            {
              "internalType": "uint8",
              "name": "attendancePercent",
              "type": "uint8"
            },
            {
              "internalType": "uint8",
              "name": "academicMark",
              "type": "uint8"
            },
            {
              "internalType": "uint8",
              "name": "score",
              "type": "uint8"
            },
            {
              "internalType": "bool",
              "name": "received",
              "type": "bool"
            }
          ],
          "internalType": "struct ScholarDist.Application[]",
          "name": "",
          "type": "tuple[]"
        }
      ],
      "stateMutability": "view",
      "type": "function"
    },
    {
      "inputs": [],
      "name": "getSelectedApplicants",
      "outputs": [
        {
          "components": [
            {
              "internalType": "address",
              "name": "applicant",
              "type": "address"
            },
            {
              "internalType": "string",
              "name": "studentName",
              "type": "string"
            },
            {
              "internalType": "string",
              "name": "regNumber",
              "type": "string"
            },
            {
              "internalType": "string",
              "name": "college",
              "type": "string"
            },
            {
              "internalType": "string",
              "name": "course",
              "type": "string"
            },
            {
              "internalType": "uint8",
              "name": "attendancePercent",
              "type": "uint8"
            },
            {
              "internalType": "uint8",
              "name": "academicMark",
              "type": "uint8"
            },
            {
              "internalType": "uint8",
              "name": "score",
              "type": "uint8"
            },
            {
              "internalType": "bool",
              "name": "received",
              "type": "bool"
            }
          ],
          "internalType": "struct ScholarDist.Application[]",
          "name": "",
          "type": "tuple[]"
        }
      ],
      "stateMutability": "view",
      "type": "function"
    },
    {
      "inputs": [
        {
          "internalType": "address",
          "name": "",
          "type": "address"
        }
      ],
      "name": "hasApplied",
      "outputs": [
        {
          "internalType": "bool",
          "name": "",
          "type": "bool"
        }
      ],
      "stateMutability": "view",
      "type": "function"
    },
    {
      "inputs": [],
      "name": "scholarship",
      "outputs": [
        {
          "internalType": "string",
          "name": "name",
          "type": "string"
        },
        {
          "internalType": "uint256",
          "name": "amount",
          "type": "uint256"
        },
        {
          "internalType": "uint8",
          "name": "minScore",
          "type": "uint8"
        },
        {
          "internalType": "uint8",
          "name": "totalSeats",
          "type": "uint8"
        },
        {
          "internalType": "uint8",
          "name": "requiredAttendance",
          "type": "uint8"
        },
        {
          "internalType": "uint8",
          "name": "requiredAcademic",
          "type": "uint8"
        },
        {
          "internalType": "bool",
          "name": "isActive",
          "type": "bool"
        },
        {
          "internalType": "bool",
          "name": "isProcessed",
          "type": "bool"
        }
      ],
      "stateMutability": "view",
      "type": "function"
    },
    {
      "inputs": [],
      "name": "selectTopApplicants",
      "outputs": [],
      "stateMutability": "nonpayable",
      "type": "function"
    },
    {
      "stateMutability": "payable",
      "type": "receive"
    }
  ],
  "bytecode": "0x60808060405234602757600080546001600160a01b03191633179055611b2f908161002d8239f35b600080fdfe608080604052600436101561001d575b50361561001b57600080fd5b005b60003560e01c90816309413a51146111a55750806339e64d261461105457806343900e7814610fc157806358810c8514610b615780636fb7c14e146106575780637daf5774146102de578063a7539775146101a8578063dfefadff146100bb5763f851a4401461008d573861000f565b346100b65760003660031901126100b6576000546040516001600160a01b039091168152602090f35b600080fd5b346100b65760203660031901126100b6576004356004548110156100b6576100e29061147d565b5080546001600160a01b03166100fa600183016113d9565b9160ff61017961010c600284016113d9565b9261016b61011c600383016113d9565b61015d600561012d600486016113d9565b9401549661014f6040519a8b9a8b5261012060208c01526101208b01906111e5565b9089820360408b01526111e5565b9087820360608901526111e5565b9085820360808701526111e5565b9181811660a0850152818160081c1660c0850152818160101c1660e085015260181c1615156101008301520390f35b346100b65760003660031901126100b65760405160006001546101ca81611362565b80845290600181169081156102ba575060011461025b575b610210836101f2818503826113b8565b60025460ff60035460405194859461010086526101008601906111e5565b9260208501528181166040850152818160081c166060850152818160101c166080850152818160181c1660a0850152818160201c16151560c085015260281c16151560e08301520390f35b600160009081527fb10e2d527612073b26eecdfd717e6a320cf44b4afac2b0732d9fcbe2b7fa0cf6939250905b8082106102a0575090915081016020016101f26101e2565b919260018160209254838588010152019101909291610288565b60ff191660208086019190915291151560051b840190910191506101f290506101e2565b346100b65760c03660031901126100b6576004356001600160401b0381116100b65761030e903690600401611315565b906024356001600160401b0381116100b65761032e903690600401611315565b6044356001600160401b0381116100b65761034d903690600401611315565b906064356001600160401b0381116100b65761036d903690600401611315565b919092610378611342565b95610381611352565b956003549760ff8960201c161561061a5733600052600560205260ff604060002054166105e35760ff16966064881115806105d5575b156105995760ff8960101c1688106105485760ff8091169860181c1688106104f3578787019860ff8a116104dd576040519a6103f28c61139c565b338c52369061040092611ac2565b60208b0152369061041092611ac2565b6040890152369061042092611ac2565b6060870152369061043092611ac2565b608085015260a084015260c083015260ff16908160e082015261010081016000905260045490680100000000000000008210156104c75761047a826001610480940160045561147d565b90611708565b3360005260056020526040600020600160ff198254161790556040519081527f2a0d6d267b6be30f45be710c28b257a95b5728c95f8d76ff8220b4c502a59e9d60203392a2005b634e487b7160e01b600052604160045260246000fd5b634e487b7160e01b600052601160045260246000fd5b60405162461bcd60e51b815260206004820152602760248201527f41636164656d6963206d61726b732062656c6f772072657175697265642074686044820152661c995cda1bdb1960ca1b6064820152608490fd5b60405162461bcd60e51b815260206004820152602360248201527f417474656e64616e63652062656c6f77207265717569726564207468726573686044820152621bdb1960ea1b6064820152608490fd5b60405162461bcd60e51b8152602060048201526014602482015273496e76616c696420696e7075742076616c75657360601b6044820152606490fd5b50606460ff821611156103b7565b60405162461bcd60e51b815260206004820152600f60248201526e105b1c9958591e48185c1c1b1a5959608a1b6044820152606490fd5b60405162461bcd60e51b815260206004820152601560248201527404e6f20616374697665207363686f6c61727368697605c1b6044820152606490fd5b346100b65760c03660031901126100b6576004356001600160401b0381116100b657610687903690600401611315565b6044359160ff831683036100b65760643560ff811681036100b6576106aa611342565b906106b3611352565b946106c960018060a01b0360005416331461157d565b60ff60035460201c16610b1c5760243515610ae25760c860ff821611610aa95760ff821615610a6457606460ff8416111580610a56575b15610a115760405161010081018181106001600160401b038211176104c75760405261072d368787611ac2565b808252602435602083015260ff8316604083015260ff8416606083015260ff8516608083015260ff881660a0830152600160c0830152600060e08301528051906001600160401b0382116104c757610786600154611362565b601f81116109ac575b50602090601f83116001146108f157889560ff809660e07f935eae76d64694973ebc9667f9a70a4f2564736a35e131d459521610604d2d1e9d976107f2888599849f9e9987996000926108e6575b50508160011b916000199060031b1c19161790565b6001555b60208101516002558360408201511684196003541617600355606081015161ff00806003549260081b16169061ff00191617600355608081015162ff0000806003549260101b16169062ff000019161760035560a081015160035463ff00000064ff0000000060c0850151151560201b169260181b169064ffff000000191617176003550151151565ff00000000006003549160281b169065ff00000000001916176003556040519b8c9a60c08c528160c08d01528c8c013760008a8a018c015260243560208b01521660408901521660608701521660808501521660a0830152601f01601f19168101030190a1005b0151905038806107dd565b9060016000527fb10e2d527612073b26eecdfd717e6a320cf44b4afac2b0732d9fcbe2b7fa0cf69160005b601f198516811061099457509560ff809660e07f935eae76d64694973ebc9667f9a70a4f2564736a35e131d459521610604d2d1e9d976001888f9c98849f9e9998879b99889a601f1981161061097b575b505050811b016001556107f6565b015160001960f88460031b161c1916905538808061096d565b9192602060018192868501518155019401920161091c565b60016000527fb10e2d527612073b26eecdfd717e6a320cf44b4afac2b0732d9fcbe2b7fa0cf6601f840160051c81019160208510610a07575b601f0160051c01905b8181106109fb575061078f565b600081556001016109ee565b90915081906109e5565b60405162461bcd60e51b815260206004820152601960248201527f496e76616c69642070657263656e7461676520696e70757473000000000000006044820152606490fd5b50606460ff87161115610700565b60405162461bcd60e51b815260206004820152601760248201527f546f74616c207365617473206d757374206265203e20300000000000000000006044820152606490fd5b60405162461bcd60e51b8152602060048201526011602482015270496e76616c6964206d696e2073636f726560781b6044820152606490fd5b60405162461bcd60e51b81526020600482015260126024820152710416d6f756e74206d757374206265203e20360741b6044820152606490fd5b60405162461bcd60e51b815260206004820152601a60248201527f5363686f6c61727368697020616c7265616479206578697374730000000000006044820152606490fd5b346100b65760003660031901126100b657610b8760018060a01b0360005416331461157d565b60035460ff8160201c1615610f835760281c60ff16610f4a5760045415610f135760005b600454811015610d5057600181018082116104dd575b600454811015610d475760ff6005610bd88361147d565b50015460101c1660ff6005610bec8561147d565b50015460101c1610610c01575b600101610bc1565b610c13610c0d8361147d565b506114ec565b90610c1d8161147d565b50610c278461147d565b939093610d31578382610c489360019603610c4f575b505061047a8361147d565b9050610bf9565b60ff600580610d2a94898060a01b038a8060a01b03865416166bffffffffffffffffffffffff60a01b825416178155610c8c8a86018b8301611626565b610c9c6002860160028301611626565b610cac6003860160038301611626565b610cbc6004860160048301611626565b0192018180825416168219845416178355610cee82825460081c16849061ff0082549160081b169061ff001916179055565b8054835462ff00001916601091821c841690911b62ff0000161783555460181c1663ff000000825491151560181b169063ff0000001916179055565b8580610c3d565b634e487b7160e01b600052600060045260246000fd5b50600101610bab565b6000805b600454811080610eff575b15610ee65760ff6005610d718361147d565b50015460101c1660ff60035416111580610ecb575b610d99575b610d94906114b2565b610d54565b90610da38261147d565b50546002546001600160a01b039091169190478111610e8f57600080808093865af13d15610e8a573d610dd581611aa7565b90610de360405192836113b8565b8152600060203d92013e5b15610e535760ff917f5724630c7039b7451802c963e5285779ee0776995655e2fb2cc6215d909493d96020600254604051908152a26005610e2e8461147d565b5001805463ff000000191663010000001790551660ff81146104dd5760010190610d8b565b60405162461bcd60e51b815260206004820152600f60248201526e151c985b9cd9995c8819985a5b1959608a1b6044820152606490fd5b610dee565b60405162461bcd60e51b8152602060048201526014602482015273496e73756666696369656e742062616c616e636560601b6044820152606490fd5b5060ff6005610ed98361147d565b50015460181c1615610d86565b6003805465ff0000000000191665010000000000179055005b5060ff60035460081c1660ff831610610d5f565b60405162461bcd60e51b815260206004820152600f60248201526e4e6f206170706c69636174696f6e7360881b6044820152606490fd5b60405162461bcd60e51b8152602060048201526011602482015270105b1c9958591e481c1c9bd8d95cdcd959607a1b6044820152606490fd5b60405162461bcd60e51b81526020600482015260166024820152755363686f6c617273686970206e6f742061637469766560501b6044820152606490fd5b346100b65760003660031901126100b657600454610fde816114c1565b90610fec60405192836113b8565b8082526020820160046000527f8a35acfbc15ff81a39ae7d344fd709f28e8600b4aa8c65c6b64bfe7fe36bd19b6000915b83831061103657604051806110328782611226565b0390f35b60066020600192611046856114ec565b81520192019201919061101d565b346100b65760003660031901126100b657600080600454905b818110611170575061107e826114c1565b9161108c60405193846113b8565b80835261109b601f19916114c1565b0160005b81811061111a5750506000805b8281106110c157604051806110328682611226565b8060ff60056110d160019461147d565b50015460181c166110e3575b016110ac565b6111146110ef8261147d565b50936111036110fd826114b2565b956114ec565b61110d82896114d8565b52866114d8565b506110dd565b6020906040516111298161139c565b600081526060838201526060604082015260608082015260606080820152600060a0820152600060c0820152600060e082015260006101008201528282870101520161109f565b60ff600561117d8361147d565b50015460181c16611191575b60010161106d565b9161119d6001916114b2565b929050611189565b346100b65760203660031901126100b6576004356001600160a01b03811691908290036100b6576020916000526005825260ff6040600020541615158152f35b919082519283825260005b848110611211575050826000602080949584010152601f8019910116010190565b806020809284010151828286010152016111f0565b602081016020825282518091526040820191602060408360051b8301019401926000915b83831061125957505050505090565b9091929394602080600192603f19858203018652885190848060a01b038251168152610100806112d76112c56112b36112a1888801516101208a8901526101208801906111e5565b604088015187820360408901526111e5565b606087015186820360608801526111e5565b608086015185820360808701526111e5565b9360ff60a08201511660a085015260ff60c08201511660c085015260ff60e08201511660e0850152015115159101529701930193019193929061124a565b9181601f840112156100b6578235916001600160401b0383116100b657602083818601950101116100b657565b6084359060ff821682036100b657565b60a4359060ff821682036100b657565b90600182811c92168015611392575b602083101461137c57565b634e487b7160e01b600052602260045260246000fd5b91607f1691611371565b61012081019081106001600160401b038211176104c757604052565b90601f801991011681019081106001600160401b038211176104c757604052565b90604051918260008254926113ed84611362565b808452936001811690811561145b5750600114611414575b50611412925003836113b8565b565b90506000929192526020600020906000915b81831061143f5750509060206114129282010138611405565b6020919350806001915483858901015201910190918492611426565b90506020925061141294915060ff191682840152151560051b82010138611405565b60045481101561149c5760046000526006602060002091020190600090565b634e487b7160e01b600052603260045260246000fd5b60001981146104dd5760010190565b6001600160401b0381116104c75760051b60200190565b805182101561149c5760209160051b010190565b906040516114f98161139c565b61010060ff6005839560018060a01b03815416855261151a600182016113d9565b602086015261152b600282016113d9565b604086015261153c600382016113d9565b606086015261154d600482016113d9565b6080860152015481811660a0850152818160081c1660c0850152818160101c1660e085015260181c161515910152565b1561158457565b60405162461bcd60e51b815260206004820152602260248201527f4f6e6c792061646d696e2063616e20706572666f726d2074686973206163746960448201526137b760f11b6064820152608490fd5b601f82116115e157505050565b6000526020600020906020601f840160051c8301931061161c575b601f0160051c01905b818110611610575050565b60008155600101611605565b90915081906115fc565b9190918281146117035761163a8354611362565b6001600160401b0381116104c75761165c816116568454611362565b846115d4565b600093601f821160011461169d5761168e92939482916000926116925750508160011b916000199060031b1c19161790565b9055565b0154905038806107dd565b845260208085208386529085209094601f198316815b8181106116eb575095836001959697106116d2575b505050811b019055565b015460001960f88460031b161c191690553880806116c8565b9192600180602092868b0154815501940192016116b3565b509050565b90610d3157815181546001600160a01b0319166001600160a01b03919091161781556020820151805160018301916001600160401b0382116104c757611758826117528554611362565b856115d4565b602090601f8311600114611a40576117889291600091836108e65750508160011b916000199060031b1c19161790565b90555b6002810160408301518051906001600160401b0382116104c7576117b3826117528554611362565b602090601f83116001146119d9576117e39291600091836108e65750508160011b916000199060031b1c19161790565b90555b6003810160608301518051906001600160401b0382116104c75761180e826117528554611362565b602090601f83116001146119725761183e9291600091836108e65750508160011b916000199060031b1c19161790565b90555b6004810160808301518051906001600160401b0382116104c757611869826117528554611362565b602090601f831160011461190057926118a583600594611412989794610100976000926108e65750508160011b916000199060031b1c19161790565b90555b60a08401519101805460c085015160e0860151949095015160109490941b62ff00001661ff0060089690961b9590951660ff90931663ffffffff1990911617919091179290921790151560181b63ff00000016179055565b90601f1983169184600052816000209260005b81811061195a57509361141297969361010096936001938360059810611941575b505050811b0190556118a8565b015160001960f88460031b161c19169055388080611934565b92936020600181928786015181550195019301611913565b90601f1983169184600052816000209260005b8181106119c157509084600195949392106119a8575b505050811b019055611841565b015160001960f88460031b161c1916905538808061199b565b92936020600181928786015181550195019301611985565b90601f1983169184600052816000209260005b818110611a285750908460019594939210611a0f575b505050811b0190556117e6565b015160001960f88460031b161c19169055388080611a02565b929360206001819287860151815501950193016119ec565b90601f1983169184600052816000209260005b818110611a8f5750908460019594939210611a76575b505050811b01905561178b565b015160001960f88460031b161c19169055388080611a69565b92936020600181928786015181550195019301611a53565b6001600160401b0381116104c757601f01601f191660200190565b929192611ace82611aa7565b91611adc60405193846113b8565b8294818452818301116100b657828160209384600096013701015256fea264697066735822122025ac8e4c821f43a0734f48de5a54a5e8131e45f9917ab5358909deb48827c05264736f6c634300081c0033",
  "linkReferences": {},
  "deployedLinkReferences": {}
}