{
  "_format": "hh-sol-artifact-1",
  "contractName": "ScholarDis",
  "sourceName": "contracts/Scholarship.sol",
  "abi": [
    {
      "inputs": [],
      "stateMutability": "nonpayable",
      "type": "constructor"
    },
    {
      "anonymous": false,
      "inputs": [
        {
          "indexed": true,
          "internalType": "uint256",
          "name": "scholarshipId",
          "type": "uint256"
        },
        {
          "indexed": true,
          "internalType": "address",
          "name": "student",
          "type": "address"
        },
        {
          "indexed": false,
          "internalType": "uint8",
          "name": "score",
          "type": "uint8"
        }
      ],
      "name": "Applied",
      "type": "event"
    },
    {
      "anonymous": false,
      "inputs": [
        {
          "indexed": true,
          "internalType": "uint256",
          "name": "scholarshipId",
          "type": "uint256"
        },
        {
          "indexed": true,
          "internalType": "address",
          "name": "student",
          "type": "address"
        },
        {
          "indexed": false,
          "internalType": "uint256",
          "name": "amount",
          "type": "uint256"
        }
      ],
      "name": "Disbursed",
      "type": "event"
    },
    {
      "anonymous": false,
      "inputs": [
        {
          "indexed": false,
          "internalType": "uint256",
          "name": "id",
          "type": "uint256"
        },
        {
          "indexed": false,
          "internalType": "string",
          "name": "name",
          "type": "string"
        },
        {
          "indexed": false,
          "internalType": "uint256",
          "name": "amount",
          "type": "uint256"
        }
      ],
      "name": "ScholarshipCreated",
      "type": "event"
    },
    {
      "inputs": [
        {
          "internalType": "string",
          "name": "_name",
          "type": "string"
        },
        {
          "internalType": "uint256",
          "name": "_amount",
          "type": "uint256"
        },
        {
          "internalType": "uint8",
          "name": "_minScore",
          "type": "uint8"
        },
        {
          "internalType": "uint8",
          "name": "_totalSeats",
          "type": "uint8"
        },
        {
          "internalType": "uint8",
          "name": "_requiredAttendance",
          "type": "uint8"
        },
        {
          "internalType": "uint8",
          "name": "_requiredAcademic",
          "type": "uint8"
        }
      ],
      "name": "addScholarship",
      "outputs": [],
      "stateMutability": "nonpayable",
      "type": "function"
    },
    {
      "inputs": [],
      "name": "admin",
      "outputs": [
        {
          "internalType": "address",
          "name": "",
          "type": "address"
        }
      ],
      "stateMutability": "view",
      "type": "function"
    },
    {
      "inputs": [
        {
          "internalType": "uint256",
          "name": "_scholarshipId",
          "type": "uint256"
        },
        {
          "internalType": "string",
          "name": "_studentName",
          "type": "string"
        },
        {
          "internalType": "string",
          "name": "_regNumber",
          "type": "string"
        },
        {
          "internalType": "string",
          "name": "_college",
          "type": "string"
        },
        {
          "internalType": "string",
          "name": "_course",
          "type": "string"
        },
        {
          "internalType": "uint8",
          "name": "_attendancePercent",
          "type": "uint8"
        },
        {
          "internalType": "uint8",
          "name": "_academicMark",
          "type": "uint8"
        }
      ],
      "name": "applyForScholarship",
      "outputs": [],
      "stateMutability": "nonpayable",
      "type": "function"
    },
    {
      "inputs": [
        {
          "internalType": "uint256",
          "name": "_scholarshipId",
          "type": "uint256"
        }
      ],
      "name": "getApplications",
      "outputs": [
        {
          "components": [
            {
              "internalType": "address",
              "name": "applicant",
              "type": "address"
            },
            {
              "internalType": "string",
              "name": "studentName",
              "type": "string"
            },
            {
              "internalType": "string",
              "name": "regNumber",
              "type": "string"
            },
            {
              "internalType": "string",
              "name": "college",
              "type": "string"
            },
            {
              "internalType": "string",
              "name": "course",
              "type": "string"
            },
            {
              "internalType": "uint8",
              "name": "attendancePercent",
              "type": "uint8"
            },
            {
              "internalType": "uint8",
              "name": "academicMark",
              "type": "uint8"
            },
            {
              "internalType": "uint8",
              "name": "score",
              "type": "uint8"
            },
            {
              "internalType": "bool",
              "name": "received",
              "type": "bool"
            }
          ],
          "internalType": "struct ScholarDis.Application[]",
          "name": "",
          "type": "tuple[]"
        }
      ],
      "stateMutability": "view",
      "type": "function"
    },
    {
      "inputs": [
        {
          "internalType": "uint256",
          "name": "_scholarshipId",
          "type": "uint256"
        }
      ],
      "name": "getSelectedApplicants",
      "outputs": [
        {
          "components": [
            {
              "internalType": "address",
              "name": "applicant",
              "type": "address"
            },
            {
              "internalType": "string",
              "name": "studentName",
              "type": "string"
            },
            {
              "internalType": "string",
              "name": "regNumber",
              "type": "string"
            },
            {
              "internalType": "string",
              "name": "college",
              "type": "string"
            },
            {
              "internalType": "string",
              "name": "course",
              "type": "string"
            },
            {
              "internalType": "uint8",
              "name": "attendancePercent",
              "type": "uint8"
            },
            {
              "internalType": "uint8",
              "name": "academicMark",
              "type": "uint8"
            },
            {
              "internalType": "uint8",
              "name": "score",
              "type": "uint8"
            },
            {
              "internalType": "bool",
              "name": "received",
              "type": "bool"
            }
          ],
          "internalType": "struct ScholarDis.Application[]",
          "name": "",
          "type": "tuple[]"
        }
      ],
      "stateMutability": "view",
      "type": "function"
    },
    {
      "inputs": [
        {
          "internalType": "uint256",
          "name": "",
          "type": "uint256"
        },
        {
          "internalType": "address",
          "name": "",
          "type": "address"
        }
      ],
      "name": "hasApplied",
      "outputs": [
        {
          "internalType": "bool",
          "name": "",
          "type": "bool"
        }
      ],
      "stateMutability": "view",
      "type": "function"
    },
    {
      "inputs": [
        {
          "internalType": "uint256",
          "name": "",
          "type": "uint256"
        },
        {
          "internalType": "uint256",
          "name": "",
          "type": "uint256"
        }
      ],
      "name": "scholarshipApplications",
      "outputs": [
        {
          "internalType": "address",
          "name": "applicant",
          "type": "address"
        },
        {
          "internalType": "string",
          "name": "studentName",
          "type": "string"
        },
        {
          "internalType": "string",
          "name": "regNumber",
          "type": "string"
        },
        {
          "internalType": "string",
          "name": "college",
          "type": "string"
        },
        {
          "internalType": "string",
          "name": "course",
          "type": "string"
        },
        {
          "internalType": "uint8",
          "name": "attendancePercent",
          "type": "uint8"
        },
        {
          "internalType": "uint8",
          "name": "academicMark",
          "type": "uint8"
        },
        {
          "internalType": "uint8",
          "name": "score",
          "type": "uint8"
        },
        {
          "internalType": "bool",
          "name": "received",
          "type": "bool"
        }
      ],
      "stateMutability": "view",
      "type": "function"
    },
    {
      "inputs": [],
      "name": "scholarshipCounter",
      "outputs": [
        {
          "internalType": "uint256",
          "name": "",
          "type": "uint256"
        }
      ],
      "stateMutability": "view",
      "type": "function"
    },
    {
      "inputs": [
        {
          "internalType": "uint256",
          "name": "",
          "type": "uint256"
        }
      ],
      "name": "scholarships",
      "outputs": [
        {
          "internalType": "uint256",
          "name": "id",
          "type": "uint256"
        },
        {
          "internalType": "string",
          "name": "name",
          "type": "string"
        },
        {
          "internalType": "uint256",
          "name": "amount",
          "type": "uint256"
        },
        {
          "internalType": "uint8",
          "name": "minScore",
          "type": "uint8"
        },
        {
          "internalType": "uint8",
          "name": "totalSeats",
          "type": "uint8"
        },
        {
          "internalType": "uint8",
          "name": "requiredAttendance",
          "type": "uint8"
        },
        {
          "internalType": "uint8",
          "name": "requiredAcademic",
          "type": "uint8"
        },
        {
          "internalType": "bool",
          "name": "isActive",
          "type": "bool"
        },
        {
          "internalType": "bool",
          "name": "isProcessed",
          "type": "bool"
        }
      ],
      "stateMutability": "view",
      "type": "function"
    },
    {
      "inputs": [
        {
          "internalType": "uint256",
          "name": "_scholarshipId",
          "type": "uint256"
        }
      ],
      "name": "selectTopApplicants",
      "outputs": [],
      "stateMutability": "nonpayable",
      "type": "function"
    },
    {
      "stateMutability": "payable",
      "type": "receive"
    }
  ],
  "bytecode": "0x60808060405234602757600080546001600160a01b03191633179055611a52908161002d8239f35b600080fdfe6080604052600436101561001b575b361561001957600080fd5b005b60003560e01c80632863ab6914610dad57806339dc58c614610d0757806354613f3014610ba55780636fb7c14e1461074a57806384031d081461072c578063a39bf544146106d4578063b629dc1f1461023e578063bc8c937d146101b9578063e6e43ac3146100bc5763f851a4400361000e57346100b75760003660031901126100b7576000546040516001600160a01b039091168152602090f35b600080fd5b346100b75760403660031901126100b757602435600435600052600360205260406000209081548110156100b7576100f39161135e565b5080546001600160a01b031661010b6001830161118a565b9160ff61018a61011d6002840161118a565b9261017c61012d6003830161118a565b61016e600561013e6004860161118a565b940154966101606040519a8b9a8b5261012060208c01526101208b019061122e565b9089820360408b015261122e565b90878203606089015261122e565b90858203608087015261122e565b9181811660a0850152818160081c1660c0850152818160101c1660e085015260181c1615156101008301520390f35b346100b75760203660031901126100b7576004356000526003602052604060002080546101e581611827565b916101f36040519384611169565b818352602083019060005260206000206000915b838310610220576040518061021c878261126f565b0390f35b6006602060019261023085611852565b815201920192019190610207565b346100b75760203660031901126100b75760043561026760018060a01b036000541633146118e3565b80600052600260205260406000206003810160ff815461028b828260201c16611390565b60281c1661069b578260005260036020526040600020918254156106645790926000935b83548510156104775760018501808611610461575b84548110156104555760ff60056102db838861135e565b50015460101c1660ff60056102f0898961135e565b50015460101c1610610305575b6001016102c4565b610318610312878761135e565b50611852565b90610323818761135e565b5061032e888861135e565b93909361043f578382610356936001960361035d575b5050610350838961135e565b90611479565b90506102fd565b60ff60058061043894898060a01b038a8060a01b03865416166bffffffffffffffffffffffff60a01b82541617815561039a8a86018b830161193a565b6103aa600286016002830161193a565b6103ba600386016003830161193a565b6103ca600486016004830161193a565b01920181808254161682198454161783556103fc82825460081c16849061ff0082549160081b169061ff001916179055565b8054835462ff00001916601091821c841690911b62ff0000161783555460181c1663ff000000825491151560181b169063ff0000001916179055565b8980610344565b634e487b7160e01b600052600060045260246000fd5b506001909401936102af565b634e487b7160e01b600052601160045260246000fd5b91906000805b8554811080610651575b1561063a5760ff600561049a838961135e565b50015460101c1660ff86541611158061061e575b6104c1575b6104bc90611818565b61047d565b6104cb818761135e565b50546002850180549093916001600160a01b03164782116105d957600080809381935af13d156105d4573d6104ff816113d5565b9061050d6040519283611169565b8152600060203d92013e5b1561059d5760ff90600561052c848a61135e565b5001805463ff00000019166301000000179055169060ff82146104615760016104bc920192847f8c4905f8a17a430223b23d54ea01f7ebb8c6cc6417d7eae96dfa0010949f0fa0602061057f858c61135e565b505493546040519081526001600160a01b0390941693a390506104b3565b60405162461bcd60e51b815260206004820152600f60248201526e151c985b9cd9995c8819985a5b1959608a1b6044820152606490fd5b610518565b60405162461bcd60e51b815260206004820152601d60248201527f496e73756666696369656e7420636f6e74726163742062616c616e63650000006044820152606490fd5b5060ff600561062d838961135e565b50015460181c16156104ae565b845465ff0000000000191665010000000000178555005b5060ff855460081c1660ff831610610487565b60405162461bcd60e51b815260206004820152600f60248201526e4e6f206170706c69636174696f6e7360881b6044820152606490fd5b60405162461bcd60e51b8152602060048201526011602482015270105b1c9958591e481c1c9bd8d95cdcd959607a1b6044820152606490fd5b346100b75760403660031901126100b7576024356001600160a01b03811681036100b757600435600052600460205260406000209060018060a01b0316600052602052602060ff604060002054166040519015158152f35b346100b75760003660031901126100b7576020600154604051908152f35b346100b75760c03660031901126100b7576004356001600160401b0381116100b75761077a9036906004016110d6565b906044359160ff83168093036100b75760643560ff81168091036100b75760843560ff81168091036100b7576107ae611103565b6107c360018060a01b036000541633146118e3565b60243515610b6b5760c88611610b32578215610aed57606482111580610adf575b15610a9a576107f4600154611818565b9081600155604051926108068461114d565b8284526108143687896113f0565b97602085019889526040850190602435825260608601526080850195865260a0850191825260ff60c086019316835260e0850193600185526000610100870152600052600260205260406000209885518a55518051906001600160401b038211610a8457610892828c600161088b81830154611113565b9101611427565b602090601f83116001146109dd579361093560ff60037fcd613ed337e0507220dae4ee9a4abc53280c43016d259a8ea66bf5e8bfe57b879e60809d9c9b99976108fd8861094d9986996101009f9d6000926109d2575b50508160011b916000199060031b1c19161790565b60018301555b5160028201550199818060608b0151161682198c5416178b555116899061ff0082549160081b169061ff001916179055565b51875462ff00001916911660101b62ff000016178655565b519063ff00000064ff0000000086549251151560201b169260181b169064ffff0000001916171783550151151565ff000000000082549160281b169065ff0000000000191617905560015490806040519485938452606060208501528160608501528484013760008282018401526024356040830152601f01601f19168101030190a1005b0151905038806108e8565b9060018c01600052806000209160005b601f1985168110610a6c575060ff60037fcd613ed337e0507220dae4ee9a4abc53280c43016d259a8ea66bf5e8bfe57b879e60809d9c9b999760018885986101009e9c986109359861094d9c601f19811610610a54575b505050811b016001830155610903565b015160001983881b60f8161c19169055388080610a44565b919260206001819286850151815501940192016109ed565b634e487b7160e01b600052604160045260246000fd5b60405162461bcd60e51b815260206004820152601960248201527f496e76616c69642070657263656e7461676520696e70757473000000000000006044820152606490fd5b50606460ff821611156107e4565b60405162461bcd60e51b815260206004820152601760248201527f546f74616c207365617473206d757374206265203e20300000000000000000006044820152606490fd5b60405162461bcd60e51b8152602060048201526011602482015270496e76616c6964206d696e2073636f726560781b6044820152606490fd5b60405162461bcd60e51b81526020600482015260126024820152710416d6f756e74206d757374206265203e20360741b6044820152606490fd5b346100b75760203660031901126100b7576004356000908152600360205260408120805490825b828110610cd15750610bdd83611827565b92610beb6040519485611169565b808452610bfa601f1991611827565b0160005b818110610c7b5750506000805b838110610c20576040518061021c878261126f565b8060ff6005610c316001948761135e565b50015460181c16610c43575b01610c0b565b610c75610c50828661135e565b5093610c64610c5e82611818565b95611852565b610c6e828a61183e565b528761183e565b50610c3d565b602090604051610c8a8161114d565b600081526060838201526060604082015260608082015260606080820152600060a0820152600060c0820152600060e0820152600061010082015282828801015201610bfe565b60ff6005610cdf838561135e565b50015460181c16610cf3575b600101610bcc565b92610cff600191611818565b939050610ceb565b346100b75760203660031901126100b757600435600052600260205260406000208054610d366001830161118a565b9160ff60036002830154920154610d616040519586958652610120602087015261012086019061122e565b9260408501528181166060850152818160081c166080850152818160101c1660a0850152818160181c1660c0850152818160201c16151560e085015260281c1615156101008301520390f35b346100b75760e03660031901126100b7576004356024356001600160401b0381116100b757610de09036906004016110d6565b91906044356001600160401b0381116100b757610e019036906004016110d6565b906064356001600160401b0381116100b757610e219036906004016110d6565b906084356001600160401b0381116100b757610e419036906004016110d6565b9091610e4b611103565b9360c4359560ff87168097036100b75789600052600260205260036040600020015495610e7d60ff8860201c16611390565b60008b815260046020908152604080832033845290915290205460ff1661109f5760ff1695606487111580611094575b156110585760ff8160101c1687106110135760181c60ff168710610fd6578686019760ff8911610461578a60005260036020526040600020996040519c610ef38e61114d565b8d3390523690610f02926113f0565b60208d01523690610f12926113f0565b60408b01523690610f22926113f0565b60608901523690610f32926113f0565b608087015260a086015260c085015260ff16928360e082015261010081016000905281549168010000000000000000831015610a845782610350916001610f7b9501815561135e565b806000526004602052604060002060018060a01b0333166000526020526040600020600160ff198254161790556040519182527fe16892d79bf1bda42d2f7448597e39c3c9575cfa509f0ba25f6ea6d9e66b6d7960203393a3005b60405162461bcd60e51b815260206004820152601560248201527413585c9adcc818995b1bddc81d1a1c995cda1bdb19605a1b6044820152606490fd5b60405162461bcd60e51b815260206004820152601a60248201527f417474656e64616e63652062656c6f77207468726573686f6c640000000000006044820152606490fd5b60405162461bcd60e51b8152602060048201526014602482015273496e76616c696420696e7075742076616c75657360601b6044820152606490fd5b506064881115610ead565b60405162461bcd60e51b815260206004820152600f60248201526e105b1c9958591e48185c1c1b1a5959608a1b6044820152606490fd5b9181601f840112156100b7578235916001600160401b0383116100b757602083818601950101116100b757565b60a4359060ff821682036100b757565b90600182811c92168015611143575b602083101461112d57565b634e487b7160e01b600052602260045260246000fd5b91607f1691611122565b61012081019081106001600160401b03821117610a8457604052565b90601f801991011681019081106001600160401b03821117610a8457604052565b906040519182600082549261119e84611113565b808452936001811690811561120c57506001146111c5575b506111c392500383611169565b565b90506000929192526020600020906000915b8183106111f05750509060206111c392820101386111b6565b60209193508060019154838589010152019101909184926111d7565b9050602092506111c394915060ff191682840152151560051b820101386111b6565b919082519283825260005b84811061125a575050826000602080949584010152601f8019910116010190565b80602080928401015182828601015201611239565b602081016020825282518091526040820191602060408360051b8301019401926000915b8383106112a257505050505090565b9091929394602080600192603f19858203018652885190848060a01b0382511681526101008061132061130e6112fc6112ea888801516101208a89015261012088019061122e565b6040880151878203604089015261122e565b6060870151868203606088015261122e565b6080860151858203608087015261122e565b9360ff60a08201511660a085015260ff60c08201511660c085015260ff60e08201511660e08501520151151591015297019301930191939290611293565b805482101561137a576000526006602060002091020190600090565b634e487b7160e01b600052603260045260246000fd5b1561139757565b60405162461bcd60e51b81526020600482015260166024820152755363686f6c617273686970206e6f742061637469766560501b6044820152606490fd5b6001600160401b038111610a8457601f01601f191660200190565b9291926113fc826113d5565b9161140a6040519384611169565b8294818452818301116100b7578281602093846000960137010152565b601f821161143457505050565b6000526020600020906020601f840160051c8301931061146f575b601f0160051c01905b818110611463575050565b60008155600101611458565b909150819061144f565b9061043f57815181546001600160a01b0319166001600160a01b03919091161781556020820151805160018301916001600160401b038211610a84576114c9826114c38554611113565b85611427565b602090601f83116001146117b1576114f99291600091836109d25750508160011b916000199060031b1c19161790565b90555b6002810160408301518051906001600160401b038211610a8457611524826114c38554611113565b602090601f831160011461174a576115549291600091836109d25750508160011b916000199060031b1c19161790565b90555b6003810160608301518051906001600160401b038211610a845761157f826114c38554611113565b602090601f83116001146116e3576115af9291600091836109d25750508160011b916000199060031b1c19161790565b90555b6004810160808301518051906001600160401b038211610a84576115da826114c38554611113565b602090601f83116001146116715792611616836005946111c3989794610100976000926109d25750508160011b916000199060031b1c19161790565b90555b60a08401519101805460c085015160e0860151949095015160109490941b62ff00001661ff0060089690961b9590951660ff90931663ffffffff1990911617919091179290921790151560181b63ff00000016179055565b90601f1983169184600052816000209260005b8181106116cb5750936111c3979693610100969360019383600598106116b2575b505050811b019055611619565b015160001960f88460031b161c191690553880806116a5565b92936020600181928786015181550195019301611684565b90601f1983169184600052816000209260005b8181106117325750908460019594939210611719575b505050811b0190556115b2565b015160001960f88460031b161c1916905538808061170c565b929360206001819287860151815501950193016116f6565b90601f1983169184600052816000209260005b8181106117995750908460019594939210611780575b505050811b019055611557565b015160001960f88460031b161c19169055388080611773565b9293602060018192878601518155019501930161175d565b90601f1983169184600052816000209260005b81811061180057509084600195949392106117e7575b505050811b0190556114fc565b015160001960f88460031b161c191690553880806117da565b929360206001819287860151815501950193016117c4565b60001981146104615760010190565b6001600160401b038111610a845760051b60200190565b805182101561137a5760209160051b010190565b9060405161185f8161114d565b61010060ff6005839560018060a01b0381541685526118806001820161118a565b60208601526118916002820161118a565b60408601526118a26003820161118a565b60608601526118b36004820161118a565b6080860152015481811660a0850152818160081c1660c0850152818160101c1660e085015260181c161515910152565b156118ea57565b60405162461bcd60e51b815260206004820152602260248201527f4f6e6c792061646d696e2063616e20706572666f726d2074686973206163746960448201526137b760f11b6064820152608490fd5b919091828114611a175761194e8354611113565b6001600160401b038111610a84576119708161196a8454611113565b84611427565b600093601f82116001146119b1576119a292939482916000926119a65750508160011b916000199060031b1c19161790565b9055565b0154905038806108e8565b845260208085208386529085209094601f198316815b8181106119ff575095836001959697106119e6575b505050811b019055565b015460001960f88460031b161c191690553880806119dc565b9192600180602092868b0154815501940192016119c7565b50905056fea2646970667358221220f8f2c669c2afc6c6300c852862abf7f6a45ffefaf6b26ce4491b11c5a68a92e164736f6c634300081c0033",
  "linkReferences": {},
  "deployedLinkReferences": {}
}